{
	"data": {
		"bytecode": {
			"linkReferences": {},
			"object": "60c060405234801562000010575f80fd5b506040516200196d3803806200196d8339810160408190526200003391620001de565b806040518060400160405280600981526020016847484f496e7375726560b81b8152506040518060400160405280600581526020016447484f2d4960d81b8152508160039081620000859190620002ad565b506004620000948282620002ad565b5050505f80620000aa83620000ff60201b60201c565b9150915081620000bc576012620000be565b805b60ff1660a05250506001600160a01b03908116608052600580546001600160a01b0319908116331790915560068054939092169216919091179055620003bb565b60408051600481526024810182526020810180516001600160e01b031663313ce56760e01b17905290515f918291829182916001600160a01b03871691620001479162000375565b5f60405180830381855afa9150503d805f811462000181576040519150601f19603f3d011682016040523d82523d5f602084013e62000186565b606091505b50915091508180156200019b57506020815110155b15620001d2575f81806020019051810190620001b89190620003a3565b905060ff8111620001d0576001969095509350505050565b505b505f9485945092505050565b5f60208284031215620001ef575f80fd5b81516001600160a01b038116811462000206575f80fd5b9392505050565b634e487b7160e01b5f52604160045260245ffd5b600181811c908216806200023657607f821691505b6020821081036200025557634e487b7160e01b5f52602260045260245ffd5b50919050565b601f821115620002a8575f81815260208120601f850160051c81016020861015620002835750805b601f850160051c820191505b81811015620002a4578281556001016200028f565b5050505b505050565b81516001600160401b03811115620002c957620002c96200020d565b620002e181620002da845462000221565b846200025b565b602080601f83116001811462000317575f8415620002ff5750858301515b5f19600386901b1c1916600185901b178555620002a4565b5f85815260208120601f198616915b82811015620003475788860151825594840194600190910190840162000326565b50858210156200036557878501515f19600388901b60f8161c191681555b5050505050600190811b01905550565b5f82515f5b818110156200039657602081860181015185830152016200037a565b505f920191825250919050565b5f60208284031215620003b4575f80fd5b5051919050565b60805160a05161157b620003f25f395f61058601525f818161026f01528181610420015281816109e20152610b9d015261157b5ff3fe608060405234801561000f575f80fd5b50600436106101bb575f3560e01c806394bf804d116100f3578063c63d75b611610093578063d905777e1161006e578063d905777e146103ab578063dd62ed3e146103be578063ef8b30f714610385578063f77c4791146103f6575f80fd5b8063c63d75b6146102a7578063c6e6f59214610385578063ce96cb7714610398575f80fd5b8063ade8323f116100ce578063ade8323f14610337578063b3d7f6b91461034c578063b460af941461035f578063ba08765214610372575f80fd5b806394bf804d1461030957806395d89b411461031c578063a9059cbb14610324575f80fd5b8063313ce5671161015e5780634cdad506116101395780634cdad506146101ef5780635996db91146102bb5780636e553f65146102ce57806370a08231146102e1575f80fd5b8063313ce5671461025357806338d52e0f1461026d578063402d267d146102a7575f80fd5b8063095ea7b311610199578063095ea7b3146102025780630a28a4771461022557806318160ddd1461023857806323b872dd14610240575f80fd5b806301e1d114146101bf57806306fdde03146101da57806307a2d13a146101ef575b5f80fd5b6101c7610409565b6040519081526020015b60405180910390f35b6101e2610496565b6040516101d191906111af565b6101c76101fd3660046111e1565b610526565b610215610210366004611213565b610537565b60405190151581526020016101d1565b6101c76102333660046111e1565b61054e565b6002546101c7565b61021561024e36600461123b565b61055a565b61025b61057f565b60405160ff90911681526020016101d1565b7f00000000000000000000000000000000000000000000000000000000000000005b6040516001600160a01b0390911681526020016101d1565b6101c76102b5366004611274565b505f1990565b60065461028f906001600160a01b031681565b6101c76102dc36600461128d565b6105aa565b6101c76102ef366004611274565b6001600160a01b03165f9081526020819052604090205490565b6101c761031736600461128d565b6105db565b6101e26105f6565b610215610332366004611213565b610605565b61034a610345366004611213565b610612565b005b6101c761035a3660046111e1565b6107ac565b6101c761036d3660046112b7565b6107b8565b6101c76103803660046112b7565b61080e565b6101c76103933660046111e1565b61085b565b6101c76103a6366004611274565b610866565b6101c76103b9366004611274565b610888565b6101c76103cc3660046112f0565b6001600160a01b039182165f90815260016020908152604080832093909416825291909152205490565b60055461028f906001600160a01b031681565b6040516370a0823160e01b81523060048201525f907f00000000000000000000000000000000000000000000000000000000000000006001600160a01b0316906370a0823190602401602060405180830381865afa15801561046d573d5f803e3d5ffd5b505050506040513d601f19601f820116820180604052508101906104919190611318565b905090565b6060600380546104a59061132f565b80601f01602080910402602001604051908101604052809291908181526020018280546104d19061132f565b801561051c5780601f106104f35761010080835404028352916020019161051c565b820191905f5260205f20905b8154815290600101906020018083116104ff57829003601f168201915b5050505050905090565b5f610531825f6108a5565b92915050565b5f336105448185856108dd565b5060019392505050565b5f6105318260016108ef565b5f3361056785828561091e565b610572858585610980565b60019150505b9392505050565b5f610491817f000000000000000000000000000000000000000000000000000000000000000061137b565b5f5f196105bb565b60405180910390fd5b5f6105c58561085b565b90506105d3338587846109dd565b949350505050565b5f5f195f6105e8856107ac565b90506105d3338583886109dd565b6060600480546104a59061132f565b5f33610544818585610980565b6005546001600160a01b031633146106925760405162461bcd60e51b815260206004820152603860248201527f455243343632365661756c743a204f6e6c7920636f6e74726f6c6c657220636160448201527f6e207769746864726177206c6f636b656420617373657473000000000000000060648201526084016105b2565b5f81116106fa5760405162461bcd60e51b815260206004820152603060248201527f455243343632365661756c743a2043616e6e6f7420776974686472617720302060448201526f616d6f756e74206f6620746f6b656e7360801b60648201526084016105b2565b6001600160a01b03821661079d576040515f908190339084908381818185875af1925050503d805f8114610749576040519150601f19603f3d011682016040523d82523d5f602084013e61074e565b606091505b5091509150816107975760405162461bcd60e51b81526020600482015260146024820152732330b4b632b2103a379039b2b7321022ba3432b960611b60448201526064016105b2565b50505050565b6107a8823383610a6f565b5050565b5f6105318260016108a5565b5f806107c383610866565b9050808511156107ec57828582604051633fa733bb60e21b81526004016105b293929190611394565b5f6107f68661054e565b90506108053386868985610b6a565b95945050505050565b5f8061081983610888565b90508085111561084257828582604051632e52afbb60e21b81526004016105b293929190611394565b5f61084c86610526565b9050610805338686848a610b6a565b5f610531825f6108ef565b6001600160a01b0381165f90815260208190526040812054610531905f6108a5565b6001600160a01b0381165f90815260208190526040812054610531565b5f6105786108b1610409565b6108bc9060016113b5565b6108c75f600a6114a8565b6002546108d491906113b5565b85919085610c2a565b6108ea8383836001610c77565b505050565b5f6105786108fe82600a6114a8565b60025461090b91906113b5565b610913610409565b6108d49060016113b5565b6001600160a01b038381165f908152600160209081526040808320938616835292905220545f198114610797578181101561097257828183604051637dc7a0d960e11b81526004016105b293929190611394565b61079784848484035f610c77565b6001600160a01b0383166109a957604051634b637e8f60e11b81525f60048201526024016105b2565b6001600160a01b0382166109d25760405163ec442f0560e01b81525f60048201526024016105b2565b6108ea838383610d3b565b610a097f0000000000000000000000000000000000000000000000000000000000000000853085610e4e565b610a138382610eb5565b826001600160a01b0316846001600160a01b03167fdcbc1c05240f31ff3ad067ef1ee35ce4997762752e3a095284754544f4c709d78484604051610a61929190918252602082015260400190565b60405180910390a350505050565b604080516001600160a01b038481166024830152604480830185905283518084039091018152606490920183526020820180516001600160e01b031663a9059cbb60e01b17905291515f92839290871691610aca91906114b6565b5f604051808303815f865af19150503d805f8114610b03576040519150601f19603f3d011682016040523d82523d5f602084013e610b08565b606091505b5091509150818015610b32575080511580610b32575080806020019051810190610b3291906114d1565b610b635760405162461bcd60e51b815260206004820152600260248201526114d560f21b60448201526064016105b2565b5050505050565b826001600160a01b0316856001600160a01b031614610b8e57610b8e83868361091e565b610b988382610ee9565b610bc37f00000000000000000000000000000000000000000000000000000000000000008584610f1d565b826001600160a01b0316846001600160a01b0316866001600160a01b03167ffbde797d201c681b91056529119e0b02407c7bb96a4a2c75c01fc9667232c8db8585604051610c1b929190918252602082015260400190565b60405180910390a45050505050565b5f80610c37868686610f4e565b9050610c428361100d565b8015610c5d57505f8480610c5857610c586114f0565b868809115b1561080557610c6d6001826113b5565b9695505050505050565b6001600160a01b038416610ca05760405163e602df0560e01b81525f60048201526024016105b2565b6001600160a01b038316610cc957604051634a1406b160e11b81525f60048201526024016105b2565b6001600160a01b038085165f908152600160209081526040808320938716835292905220829055801561079757826001600160a01b0316846001600160a01b03167f8c5be1e5ebec7d5bd14f71427d1e84f3dd0314c0f7b2291e5b200ac8c7c3b92584604051610a6191815260200190565b6001600160a01b038316610d65578060025f828254610d5a91906113b5565b90915550610dc29050565b6001600160a01b0383165f9081526020819052604090205481811015610da45783818360405163391434e360e21b81526004016105b293929190611394565b6001600160a01b0384165f9081526020819052604090209082900390555b6001600160a01b038216610dde57600280548290039055610dfc565b6001600160a01b0382165f9081526020819052604090208054820190555b816001600160a01b0316836001600160a01b03167fddf252ad1be2c89b69c2b068fc378daa952ba7f163c4a11628f55a4df523b3ef83604051610e4191815260200190565b60405180910390a3505050565b6040516001600160a01b0384811660248301528381166044830152606482018390526107979186918216906323b872dd906084015b604051602081830303815290604052915060e01b6020820180516001600160e01b038381831617835250505050611039565b6001600160a01b038216610ede5760405163ec442f0560e01b81525f60048201526024016105b2565b6107a85f8383610d3b565b6001600160a01b038216610f1257604051634b637e8f60e11b81525f60048201526024016105b2565b6107a8825f83610d3b565b6040516001600160a01b038381166024830152604482018390526108ea91859182169063a9059cbb90606401610e83565b5f838302815f1985870982811083820303915050805f03610f8257838281610f7857610f786114f0565b0492505050610578565b808411610fa25760405163227bc15360e01b815260040160405180910390fd5b5f848688095f868103871696879004966002600389028118808a02820302808a02820302808a02820302808a02820302808a02820302808a02909103029181900381900460010186841190950394909402919094039290920491909117919091029150509392505050565b5f600282600381111561102257611022611504565b61102c9190611518565b60ff166001149050919050565b5f61104d6001600160a01b0384168361109a565b905080515f1415801561107157508080602001905181019061106f91906114d1565b155b156108ea57604051635274afe760e01b81526001600160a01b03841660048201526024016105b2565b606061057883835f845f80856001600160a01b031684866040516110be91906114b6565b5f6040518083038185875af1925050503d805f81146110f8576040519150601f19603f3d011682016040523d82523d5f602084013e6110fd565b606091505b5091509150610c6d86838360608261111d5761111882611164565b610578565b815115801561113457506001600160a01b0384163b155b1561115d57604051639996b31560e01b81526001600160a01b03851660048201526024016105b2565b5080610578565b8051156111745780518082602001fd5b604051630a12f52160e11b815260040160405180910390fd5b5f5b838110156111a757818101518382015260200161118f565b50505f910152565b602081525f82518060208401526111cd81604085016020870161118d565b601f01601f19169190910160400192915050565b5f602082840312156111f1575f80fd5b5035919050565b80356001600160a01b038116811461120e575f80fd5b919050565b5f8060408385031215611224575f80fd5b61122d836111f8565b946020939093013593505050565b5f805f6060848603121561124d575f80fd5b611256846111f8565b9250611264602085016111f8565b9150604084013590509250925092565b5f60208284031215611284575f80fd5b610578826111f8565b5f806040838503121561129e575f80fd5b823591506112ae602084016111f8565b90509250929050565b5f805f606084860312156112c9575f80fd5b833592506112d9602085016111f8565b91506112e7604085016111f8565b90509250925092565b5f8060408385031215611301575f80fd5b61130a836111f8565b91506112ae602084016111f8565b5f60208284031215611328575f80fd5b5051919050565b600181811c9082168061134357607f821691505b60208210810361136157634e487b7160e01b5f52602260045260245ffd5b50919050565b634e487b7160e01b5f52601160045260245ffd5b60ff818116838216019081111561053157610531611367565b6001600160a01b039390931683526020830191909152604082015260600190565b8082018082111561053157610531611367565b600181815b8085111561140257815f19048211156113e8576113e8611367565b808516156113f557918102915b93841c93908002906113cd565b509250929050565b5f8261141857506001610531565b8161142457505f610531565b816001811461143a576002811461144457611460565b6001915050610531565b60ff84111561145557611455611367565b50506001821b610531565b5060208310610133831016604e8410600b8410161715611483575081810a610531565b61148d83836113c8565b805f19048211156114a0576114a0611367565b029392505050565b5f61057860ff84168361140a565b5f82516114c781846020870161118d565b9190910192915050565b5f602082840312156114e1575f80fd5b81518015158114610578575f80fd5b634e487b7160e01b5f52601260045260245ffd5b634e487b7160e01b5f52602160045260245ffd5b5f60ff83168061153657634e487b7160e01b5f52601260045260245ffd5b8060ff8416069150509291505056fea2646970667358221220d9a1ccdcf8b4c9eb1e308b9705cffe3f43160d5f18923a29dcac26e5aa5ca8ee64736f6c63430008140033",
			"opcodes": "PUSH1 0xC0 PUSH1 0x40 MSTORE CALLVALUE DUP1 ISZERO PUSH3 0x10 JUMPI PUSH0 DUP1 REVERT JUMPDEST POP PUSH1 0x40 MLOAD PUSH3 0x196D CODESIZE SUB DUP1 PUSH3 0x196D DUP4 CODECOPY DUP2 ADD PUSH1 0x40 DUP2 SWAP1 MSTORE PUSH3 0x33 SWAP2 PUSH3 0x1DE JUMP JUMPDEST DUP1 PUSH1 0x40 MLOAD DUP1 PUSH1 0x40 ADD PUSH1 0x40 MSTORE DUP1 PUSH1 0x9 DUP2 MSTORE PUSH1 0x20 ADD PUSH9 0x47484F496E73757265 PUSH1 0xB8 SHL DUP2 MSTORE POP PUSH1 0x40 MLOAD DUP1 PUSH1 0x40 ADD PUSH1 0x40 MSTORE DUP1 PUSH1 0x5 DUP2 MSTORE PUSH1 0x20 ADD PUSH5 0x47484F2D49 PUSH1 0xD8 SHL DUP2 MSTORE POP DUP2 PUSH1 0x3 SWAP1 DUP2 PUSH3 0x85 SWAP2 SWAP1 PUSH3 0x2AD JUMP JUMPDEST POP PUSH1 0x4 PUSH3 0x94 DUP3 DUP3 PUSH3 0x2AD JUMP JUMPDEST POP POP POP PUSH0 DUP1 PUSH3 0xAA DUP4 PUSH3 0xFF PUSH1 0x20 SHL PUSH1 0x20 SHR JUMP JUMPDEST SWAP2 POP SWAP2 POP DUP2 PUSH3 0xBC JUMPI PUSH1 0x12 PUSH3 0xBE JUMP JUMPDEST DUP1 JUMPDEST PUSH1 0xFF AND PUSH1 0xA0 MSTORE POP POP PUSH1 0x1 PUSH1 0x1 PUSH1 0xA0 SHL SUB SWAP1 DUP2 AND PUSH1 0x80 MSTORE PUSH1 0x5 DUP1 SLOAD PUSH1 0x1 PUSH1 0x1 PUSH1 0xA0 SHL SUB NOT SWAP1 DUP2 AND CALLER OR SWAP1 SWAP2 SSTORE PUSH1 0x6 DUP1 SLOAD SWAP4 SWAP1 SWAP3 AND SWAP3 AND SWAP2 SWAP1 SWAP2 OR SWAP1 SSTORE PUSH3 0x3BB JUMP JUMPDEST PUSH1 0x40 DUP1 MLOAD PUSH1 0x4 DUP2 MSTORE PUSH1 0x24 DUP2 ADD DUP3 MSTORE PUSH1 0x20 DUP2 ADD DUP1 MLOAD PUSH1 0x1 PUSH1 0x1 PUSH1 0xE0 SHL SUB AND PUSH4 0x313CE567 PUSH1 0xE0 SHL OR SWAP1 MSTORE SWAP1 MLOAD PUSH0 SWAP2 DUP3 SWAP2 DUP3 SWAP2 DUP3 SWAP2 PUSH1 0x1 PUSH1 0x1 PUSH1 0xA0 SHL SUB DUP8 AND SWAP2 PUSH3 0x147 SWAP2 PUSH3 0x375 JUMP JUMPDEST PUSH0 PUSH1 0x40 MLOAD DUP1 DUP4 SUB DUP2 DUP6 GAS STATICCALL SWAP2 POP POP RETURNDATASIZE DUP1 PUSH0 DUP2 EQ PUSH3 0x181 JUMPI PUSH1 0x40 MLOAD SWAP2 POP PUSH1 0x1F NOT PUSH1 0x3F RETURNDATASIZE ADD AND DUP3 ADD PUSH1 0x40 MSTORE RETURNDATASIZE DUP3 MSTORE RETURNDATASIZE PUSH0 PUSH1 0x20 DUP5 ADD RETURNDATACOPY PUSH3 0x186 JUMP JUMPDEST PUSH1 0x60 SWAP2 POP JUMPDEST POP SWAP2 POP SWAP2 POP DUP2 DUP1 ISZERO PUSH3 0x19B JUMPI POP PUSH1 0x20 DUP2 MLOAD LT ISZERO JUMPDEST ISZERO PUSH3 0x1D2 JUMPI PUSH0 DUP2 DUP1 PUSH1 0x20 ADD SWAP1 MLOAD DUP2 ADD SWAP1 PUSH3 0x1B8 SWAP2 SWAP1 PUSH3 0x3A3 JUMP JUMPDEST SWAP1 POP PUSH1 0xFF DUP2 GT PUSH3 0x1D0 JUMPI PUSH1 0x1 SWAP7 SWAP1 SWAP6 POP SWAP4 POP POP POP POP JUMP JUMPDEST POP JUMPDEST POP PUSH0 SWAP5 DUP6 SWAP5 POP SWAP3 POP POP POP JUMP JUMPDEST PUSH0 PUSH1 0x20 DUP3 DUP5 SUB SLT ISZERO PUSH3 0x1EF JUMPI PUSH0 DUP1 REVERT JUMPDEST DUP2 MLOAD PUSH1 0x1 PUSH1 0x1 PUSH1 0xA0 SHL SUB DUP2 AND DUP2 EQ PUSH3 0x206 JUMPI PUSH0 DUP1 REVERT JUMPDEST SWAP4 SWAP3 POP POP POP JUMP JUMPDEST PUSH4 0x4E487B71 PUSH1 0xE0 SHL PUSH0 MSTORE PUSH1 0x41 PUSH1 0x4 MSTORE PUSH1 0x24 PUSH0 REVERT JUMPDEST PUSH1 0x1 DUP2 DUP2 SHR SWAP1 DUP3 AND DUP1 PUSH3 0x236 JUMPI PUSH1 0x7F DUP3 AND SWAP2 POP JUMPDEST PUSH1 0x20 DUP3 LT DUP2 SUB PUSH3 0x255 JUMPI PUSH4 0x4E487B71 PUSH1 0xE0 SHL PUSH0 MSTORE PUSH1 0x22 PUSH1 0x4 MSTORE PUSH1 0x24 PUSH0 REVERT JUMPDEST POP SWAP2 SWAP1 POP JUMP JUMPDEST PUSH1 0x1F DUP3 GT ISZERO PUSH3 0x2A8 JUMPI PUSH0 DUP2 DUP2 MSTORE PUSH1 0x20 DUP2 KECCAK256 PUSH1 0x1F DUP6 ADD PUSH1 0x5 SHR DUP2 ADD PUSH1 0x20 DUP7 LT ISZERO PUSH3 0x283 JUMPI POP DUP1 JUMPDEST PUSH1 0x1F DUP6 ADD PUSH1 0x5 SHR DUP3 ADD SWAP2 POP JUMPDEST DUP2 DUP2 LT ISZERO PUSH3 0x2A4 JUMPI DUP3 DUP2 SSTORE PUSH1 0x1 ADD PUSH3 0x28F JUMP JUMPDEST POP POP POP JUMPDEST POP POP POP JUMP JUMPDEST DUP2 MLOAD PUSH1 0x1 PUSH1 0x1 PUSH1 0x40 SHL SUB DUP2 GT ISZERO PUSH3 0x2C9 JUMPI PUSH3 0x2C9 PUSH3 0x20D JUMP JUMPDEST PUSH3 0x2E1 DUP2 PUSH3 0x2DA DUP5 SLOAD PUSH3 0x221 JUMP JUMPDEST DUP5 PUSH3 0x25B JUMP JUMPDEST PUSH1 0x20 DUP1 PUSH1 0x1F DUP4 GT PUSH1 0x1 DUP2 EQ PUSH3 0x317 JUMPI PUSH0 DUP5 ISZERO PUSH3 0x2FF JUMPI POP DUP6 DUP4 ADD MLOAD JUMPDEST PUSH0 NOT PUSH1 0x3 DUP7 SWAP1 SHL SHR NOT AND PUSH1 0x1 DUP6 SWAP1 SHL OR DUP6 SSTORE PUSH3 0x2A4 JUMP JUMPDEST PUSH0 DUP6 DUP2 MSTORE PUSH1 0x20 DUP2 KECCAK256 PUSH1 0x1F NOT DUP7 AND SWAP2 JUMPDEST DUP3 DUP2 LT ISZERO PUSH3 0x347 JUMPI DUP9 DUP7 ADD MLOAD DUP3 SSTORE SWAP5 DUP5 ADD SWAP5 PUSH1 0x1 SWAP1 SWAP2 ADD SWAP1 DUP5 ADD PUSH3 0x326 JUMP JUMPDEST POP DUP6 DUP3 LT ISZERO PUSH3 0x365 JUMPI DUP8 DUP6 ADD MLOAD PUSH0 NOT PUSH1 0x3 DUP9 SWAP1 SHL PUSH1 0xF8 AND SHR NOT AND DUP2 SSTORE JUMPDEST POP POP POP POP POP PUSH1 0x1 SWAP1 DUP2 SHL ADD SWAP1 SSTORE POP JUMP JUMPDEST PUSH0 DUP3 MLOAD PUSH0 JUMPDEST DUP2 DUP2 LT ISZERO PUSH3 0x396 JUMPI PUSH1 0x20 DUP2 DUP7 ADD DUP2 ADD MLOAD DUP6 DUP4 ADD MSTORE ADD PUSH3 0x37A JUMP JUMPDEST POP PUSH0 SWAP3 ADD SWAP2 DUP3 MSTORE POP SWAP2 SWAP1 POP JUMP JUMPDEST PUSH0 PUSH1 0x20 DUP3 DUP5 SUB SLT ISZERO PUSH3 0x3B4 JUMPI PUSH0 DUP1 REVERT JUMPDEST POP MLOAD SWAP2 SWAP1 POP JUMP JUMPDEST PUSH1 0x80 MLOAD PUSH1 0xA0 MLOAD PUSH2 0x157B PUSH3 0x3F2 PUSH0 CODECOPY PUSH0 PUSH2 0x586 ADD MSTORE PUSH0 DUP2 DUP2 PUSH2 0x26F ADD MSTORE DUP2 DUP2 PUSH2 0x420 ADD MSTORE DUP2 DUP2 PUSH2 0x9E2 ADD MSTORE PUSH2 0xB9D ADD MSTORE PUSH2 0x157B PUSH0 RETURN INVALID PUSH1 0x80 PUSH1 0x40 MSTORE CALLVALUE DUP1 ISZERO PUSH2 0xF JUMPI PUSH0 DUP1 REVERT JUMPDEST POP PUSH1 0x4 CALLDATASIZE LT PUSH2 0x1BB JUMPI PUSH0 CALLDATALOAD PUSH1 0xE0 SHR DUP1 PUSH4 0x94BF804D GT PUSH2 0xF3 JUMPI DUP1 PUSH4 0xC63D75B6 GT PUSH2 0x93 JUMPI DUP1 PUSH4 0xD905777E GT PUSH2 0x6E JUMPI DUP1 PUSH4 0xD905777E EQ PUSH2 0x3AB JUMPI DUP1 PUSH4 0xDD62ED3E EQ PUSH2 0x3BE JUMPI DUP1 PUSH4 0xEF8B30F7 EQ PUSH2 0x385 JUMPI DUP1 PUSH4 0xF77C4791 EQ PUSH2 0x3F6 JUMPI PUSH0 DUP1 REVERT JUMPDEST DUP1 PUSH4 0xC63D75B6 EQ PUSH2 0x2A7 JUMPI DUP1 PUSH4 0xC6E6F592 EQ PUSH2 0x385 JUMPI DUP1 PUSH4 0xCE96CB77 EQ PUSH2 0x398 JUMPI PUSH0 DUP1 REVERT JUMPDEST DUP1 PUSH4 0xADE8323F GT PUSH2 0xCE JUMPI DUP1 PUSH4 0xADE8323F EQ PUSH2 0x337 JUMPI DUP1 PUSH4 0xB3D7F6B9 EQ PUSH2 0x34C JUMPI DUP1 PUSH4 0xB460AF94 EQ PUSH2 0x35F JUMPI DUP1 PUSH4 0xBA087652 EQ PUSH2 0x372 JUMPI PUSH0 DUP1 REVERT JUMPDEST DUP1 PUSH4 0x94BF804D EQ PUSH2 0x309 JUMPI DUP1 PUSH4 0x95D89B41 EQ PUSH2 0x31C JUMPI DUP1 PUSH4 0xA9059CBB EQ PUSH2 0x324 JUMPI PUSH0 DUP1 REVERT JUMPDEST DUP1 PUSH4 0x313CE567 GT PUSH2 0x15E JUMPI DUP1 PUSH4 0x4CDAD506 GT PUSH2 0x139 JUMPI DUP1 PUSH4 0x4CDAD506 EQ PUSH2 0x1EF JUMPI DUP1 PUSH4 0x5996DB91 EQ PUSH2 0x2BB JUMPI DUP1 PUSH4 0x6E553F65 EQ PUSH2 0x2CE JUMPI DUP1 PUSH4 0x70A08231 EQ PUSH2 0x2E1 JUMPI PUSH0 DUP1 REVERT JUMPDEST DUP1 PUSH4 0x313CE567 EQ PUSH2 0x253 JUMPI DUP1 PUSH4 0x38D52E0F EQ PUSH2 0x26D JUMPI DUP1 PUSH4 0x402D267D EQ PUSH2 0x2A7 JUMPI PUSH0 DUP1 REVERT JUMPDEST DUP1 PUSH4 0x95EA7B3 GT PUSH2 0x199 JUMPI DUP1 PUSH4 0x95EA7B3 EQ PUSH2 0x202 JUMPI DUP1 PUSH4 0xA28A477 EQ PUSH2 0x225 JUMPI DUP1 PUSH4 0x18160DDD EQ PUSH2 0x238 JUMPI DUP1 PUSH4 0x23B872DD EQ PUSH2 0x240 JUMPI PUSH0 DUP1 REVERT JUMPDEST DUP1 PUSH4 0x1E1D114 EQ PUSH2 0x1BF JUMPI DUP1 PUSH4 0x6FDDE03 EQ PUSH2 0x1DA JUMPI DUP1 PUSH4 0x7A2D13A EQ PUSH2 0x1EF JUMPI JUMPDEST PUSH0 DUP1 REVERT JUMPDEST PUSH2 0x1C7 PUSH2 0x409 JUMP JUMPDEST PUSH1 0x40 MLOAD SWAP1 DUP2 MSTORE PUSH1 0x20 ADD JUMPDEST PUSH1 0x40 MLOAD DUP1 SWAP2 SUB SWAP1 RETURN JUMPDEST PUSH2 0x1E2 PUSH2 0x496 JUMP JUMPDEST PUSH1 0x40 MLOAD PUSH2 0x1D1 SWAP2 SWAP1 PUSH2 0x11AF JUMP JUMPDEST PUSH2 0x1C7 PUSH2 0x1FD CALLDATASIZE PUSH1 0x4 PUSH2 0x11E1 JUMP JUMPDEST PUSH2 0x526 JUMP JUMPDEST PUSH2 0x215 PUSH2 0x210 CALLDATASIZE PUSH1 0x4 PUSH2 0x1213 JUMP JUMPDEST PUSH2 0x537 JUMP JUMPDEST PUSH1 0x40 MLOAD SWAP1 ISZERO ISZERO DUP2 MSTORE PUSH1 0x20 ADD PUSH2 0x1D1 JUMP JUMPDEST PUSH2 0x1C7 PUSH2 0x233 CALLDATASIZE PUSH1 0x4 PUSH2 0x11E1 JUMP JUMPDEST PUSH2 0x54E JUMP JUMPDEST PUSH1 0x2 SLOAD PUSH2 0x1C7 JUMP JUMPDEST PUSH2 0x215 PUSH2 0x24E CALLDATASIZE PUSH1 0x4 PUSH2 0x123B JUMP JUMPDEST PUSH2 0x55A JUMP JUMPDEST PUSH2 0x25B PUSH2 0x57F JUMP JUMPDEST PUSH1 0x40 MLOAD PUSH1 0xFF SWAP1 SWAP2 AND DUP2 MSTORE PUSH1 0x20 ADD PUSH2 0x1D1 JUMP JUMPDEST PUSH32 0x0 JUMPDEST PUSH1 0x40 MLOAD PUSH1 0x1 PUSH1 0x1 PUSH1 0xA0 SHL SUB SWAP1 SWAP2 AND DUP2 MSTORE PUSH1 0x20 ADD PUSH2 0x1D1 JUMP JUMPDEST PUSH2 0x1C7 PUSH2 0x2B5 CALLDATASIZE PUSH1 0x4 PUSH2 0x1274 JUMP JUMPDEST POP PUSH0 NOT SWAP1 JUMP JUMPDEST PUSH1 0x6 SLOAD PUSH2 0x28F SWAP1 PUSH1 0x1 PUSH1 0x1 PUSH1 0xA0 SHL SUB AND DUP2 JUMP JUMPDEST PUSH2 0x1C7 PUSH2 0x2DC CALLDATASIZE PUSH1 0x4 PUSH2 0x128D JUMP JUMPDEST PUSH2 0x5AA JUMP JUMPDEST PUSH2 0x1C7 PUSH2 0x2EF CALLDATASIZE PUSH1 0x4 PUSH2 0x1274 JUMP JUMPDEST PUSH1 0x1 PUSH1 0x1 PUSH1 0xA0 SHL SUB AND PUSH0 SWAP1 DUP2 MSTORE PUSH1 0x20 DUP2 SWAP1 MSTORE PUSH1 0x40 SWAP1 KECCAK256 SLOAD SWAP1 JUMP JUMPDEST PUSH2 0x1C7 PUSH2 0x317 CALLDATASIZE PUSH1 0x4 PUSH2 0x128D JUMP JUMPDEST PUSH2 0x5DB JUMP JUMPDEST PUSH2 0x1E2 PUSH2 0x5F6 JUMP JUMPDEST PUSH2 0x215 PUSH2 0x332 CALLDATASIZE PUSH1 0x4 PUSH2 0x1213 JUMP JUMPDEST PUSH2 0x605 JUMP JUMPDEST PUSH2 0x34A PUSH2 0x345 CALLDATASIZE PUSH1 0x4 PUSH2 0x1213 JUMP JUMPDEST PUSH2 0x612 JUMP JUMPDEST STOP JUMPDEST PUSH2 0x1C7 PUSH2 0x35A CALLDATASIZE PUSH1 0x4 PUSH2 0x11E1 JUMP JUMPDEST PUSH2 0x7AC JUMP JUMPDEST PUSH2 0x1C7 PUSH2 0x36D CALLDATASIZE PUSH1 0x4 PUSH2 0x12B7 JUMP JUMPDEST PUSH2 0x7B8 JUMP JUMPDEST PUSH2 0x1C7 PUSH2 0x380 CALLDATASIZE PUSH1 0x4 PUSH2 0x12B7 JUMP JUMPDEST PUSH2 0x80E JUMP JUMPDEST PUSH2 0x1C7 PUSH2 0x393 CALLDATASIZE PUSH1 0x4 PUSH2 0x11E1 JUMP JUMPDEST PUSH2 0x85B JUMP JUMPDEST PUSH2 0x1C7 PUSH2 0x3A6 CALLDATASIZE PUSH1 0x4 PUSH2 0x1274 JUMP JUMPDEST PUSH2 0x866 JUMP JUMPDEST PUSH2 0x1C7 PUSH2 0x3B9 CALLDATASIZE PUSH1 0x4 PUSH2 0x1274 JUMP JUMPDEST PUSH2 0x888 JUMP JUMPDEST PUSH2 0x1C7 PUSH2 0x3CC CALLDATASIZE PUSH1 0x4 PUSH2 0x12F0 JUMP JUMPDEST PUSH1 0x1 PUSH1 0x1 PUSH1 0xA0 SHL SUB SWAP2 DUP3 AND PUSH0 SWAP1 DUP2 MSTORE PUSH1 0x1 PUSH1 0x20 SWAP1 DUP2 MSTORE PUSH1 0x40 DUP1 DUP4 KECCAK256 SWAP4 SWAP1 SWAP5 AND DUP3 MSTORE SWAP2 SWAP1 SWAP2 MSTORE KECCAK256 SLOAD SWAP1 JUMP JUMPDEST PUSH1 0x5 SLOAD PUSH2 0x28F SWAP1 PUSH1 0x1 PUSH1 0x1 PUSH1 0xA0 SHL SUB AND DUP2 JUMP JUMPDEST PUSH1 0x40 MLOAD PUSH4 0x70A08231 PUSH1 0xE0 SHL DUP2 MSTORE ADDRESS PUSH1 0x4 DUP3 ADD MSTORE PUSH0 SWAP1 PUSH32 0x0 PUSH1 0x1 PUSH1 0x1 PUSH1 0xA0 SHL SUB AND SWAP1 PUSH4 0x70A08231 SWAP1 PUSH1 0x24 ADD PUSH1 0x20 PUSH1 0x40 MLOAD DUP1 DUP4 SUB DUP2 DUP7 GAS STATICCALL ISZERO DUP1 ISZERO PUSH2 0x46D JUMPI RETURNDATASIZE PUSH0 DUP1 RETURNDATACOPY RETURNDATASIZE PUSH0 REVERT JUMPDEST POP POP POP POP PUSH1 0x40 MLOAD RETURNDATASIZE PUSH1 0x1F NOT PUSH1 0x1F DUP3 ADD AND DUP3 ADD DUP1 PUSH1 0x40 MSTORE POP DUP2 ADD SWAP1 PUSH2 0x491 SWAP2 SWAP1 PUSH2 0x1318 JUMP JUMPDEST SWAP1 POP SWAP1 JUMP JUMPDEST PUSH1 0x60 PUSH1 0x3 DUP1 SLOAD PUSH2 0x4A5 SWAP1 PUSH2 0x132F JUMP JUMPDEST DUP1 PUSH1 0x1F ADD PUSH1 0x20 DUP1 SWAP2 DIV MUL PUSH1 0x20 ADD PUSH1 0x40 MLOAD SWAP1 DUP2 ADD PUSH1 0x40 MSTORE DUP1 SWAP3 SWAP2 SWAP1 DUP2 DUP2 MSTORE PUSH1 0x20 ADD DUP3 DUP1 SLOAD PUSH2 0x4D1 SWAP1 PUSH2 0x132F JUMP JUMPDEST DUP1 ISZERO PUSH2 0x51C JUMPI DUP1 PUSH1 0x1F LT PUSH2 0x4F3 JUMPI PUSH2 0x100 DUP1 DUP4 SLOAD DIV MUL DUP4 MSTORE SWAP2 PUSH1 0x20 ADD SWAP2 PUSH2 0x51C JUMP JUMPDEST DUP3 ADD SWAP2 SWAP1 PUSH0 MSTORE PUSH1 0x20 PUSH0 KECCAK256 SWAP1 JUMPDEST DUP2 SLOAD DUP2 MSTORE SWAP1 PUSH1 0x1 ADD SWAP1 PUSH1 0x20 ADD DUP1 DUP4 GT PUSH2 0x4FF JUMPI DUP3 SWAP1 SUB PUSH1 0x1F AND DUP3 ADD SWAP2 JUMPDEST POP POP POP POP POP SWAP1 POP SWAP1 JUMP JUMPDEST PUSH0 PUSH2 0x531 DUP3 PUSH0 PUSH2 0x8A5 JUMP JUMPDEST SWAP3 SWAP2 POP POP JUMP JUMPDEST PUSH0 CALLER PUSH2 0x544 DUP2 DUP6 DUP6 PUSH2 0x8DD JUMP JUMPDEST POP PUSH1 0x1 SWAP4 SWAP3 POP POP POP JUMP JUMPDEST PUSH0 PUSH2 0x531 DUP3 PUSH1 0x1 PUSH2 0x8EF JUMP JUMPDEST PUSH0 CALLER PUSH2 0x567 DUP6 DUP3 DUP6 PUSH2 0x91E JUMP JUMPDEST PUSH2 0x572 DUP6 DUP6 DUP6 PUSH2 0x980 JUMP JUMPDEST PUSH1 0x1 SWAP2 POP POP JUMPDEST SWAP4 SWAP3 POP POP POP JUMP JUMPDEST PUSH0 PUSH2 0x491 DUP2 PUSH32 0x0 PUSH2 0x137B JUMP JUMPDEST PUSH0 PUSH0 NOT PUSH2 0x5BB JUMP JUMPDEST PUSH1 0x40 MLOAD DUP1 SWAP2 SUB SWAP1 REVERT JUMPDEST PUSH0 PUSH2 0x5C5 DUP6 PUSH2 0x85B JUMP JUMPDEST SWAP1 POP PUSH2 0x5D3 CALLER DUP6 DUP8 DUP5 PUSH2 0x9DD JUMP JUMPDEST SWAP5 SWAP4 POP POP POP POP JUMP JUMPDEST PUSH0 PUSH0 NOT PUSH0 PUSH2 0x5E8 DUP6 PUSH2 0x7AC JUMP JUMPDEST SWAP1 POP PUSH2 0x5D3 CALLER DUP6 DUP4 DUP9 PUSH2 0x9DD JUMP JUMPDEST PUSH1 0x60 PUSH1 0x4 DUP1 SLOAD PUSH2 0x4A5 SWAP1 PUSH2 0x132F JUMP JUMPDEST PUSH0 CALLER PUSH2 0x544 DUP2 DUP6 DUP6 PUSH2 0x980 JUMP JUMPDEST PUSH1 0x5 SLOAD PUSH1 0x1 PUSH1 0x1 PUSH1 0xA0 SHL SUB AND CALLER EQ PUSH2 0x692 JUMPI PUSH1 0x40 MLOAD PUSH3 0x461BCD PUSH1 0xE5 SHL DUP2 MSTORE PUSH1 0x20 PUSH1 0x4 DUP3 ADD MSTORE PUSH1 0x38 PUSH1 0x24 DUP3 ADD MSTORE PUSH32 0x455243343632365661756C743A204F6E6C7920636F6E74726F6C6C6572206361 PUSH1 0x44 DUP3 ADD MSTORE PUSH32 0x6E207769746864726177206C6F636B6564206173736574730000000000000000 PUSH1 0x64 DUP3 ADD MSTORE PUSH1 0x84 ADD PUSH2 0x5B2 JUMP JUMPDEST PUSH0 DUP2 GT PUSH2 0x6FA JUMPI PUSH1 0x40 MLOAD PUSH3 0x461BCD PUSH1 0xE5 SHL DUP2 MSTORE PUSH1 0x20 PUSH1 0x4 DUP3 ADD MSTORE PUSH1 0x30 PUSH1 0x24 DUP3 ADD MSTORE PUSH32 0x455243343632365661756C743A2043616E6E6F74207769746864726177203020 PUSH1 0x44 DUP3 ADD MSTORE PUSH16 0x616D6F756E74206F6620746F6B656E73 PUSH1 0x80 SHL PUSH1 0x64 DUP3 ADD MSTORE PUSH1 0x84 ADD PUSH2 0x5B2 JUMP JUMPDEST PUSH1 0x1 PUSH1 0x1 PUSH1 0xA0 SHL SUB DUP3 AND PUSH2 0x79D JUMPI PUSH1 0x40 MLOAD PUSH0 SWAP1 DUP2 SWAP1 CALLER SWAP1 DUP5 SWAP1 DUP4 DUP2 DUP2 DUP2 DUP6 DUP8 GAS CALL SWAP3 POP POP POP RETURNDATASIZE DUP1 PUSH0 DUP2 EQ PUSH2 0x749 JUMPI PUSH1 0x40 MLOAD SWAP2 POP PUSH1 0x1F NOT PUSH1 0x3F RETURNDATASIZE ADD AND DUP3 ADD PUSH1 0x40 MSTORE RETURNDATASIZE DUP3 MSTORE RETURNDATASIZE PUSH0 PUSH1 0x20 DUP5 ADD RETURNDATACOPY PUSH2 0x74E JUMP JUMPDEST PUSH1 0x60 SWAP2 POP JUMPDEST POP SWAP2 POP SWAP2 POP DUP2 PUSH2 0x797 JUMPI PUSH1 0x40 MLOAD PUSH3 0x461BCD PUSH1 0xE5 SHL DUP2 MSTORE PUSH1 0x20 PUSH1 0x4 DUP3 ADD MSTORE PUSH1 0x14 PUSH1 0x24 DUP3 ADD MSTORE PUSH20 0x2330B4B632B2103A379039B2B7321022BA3432B9 PUSH1 0x61 SHL PUSH1 0x44 DUP3 ADD MSTORE PUSH1 0x64 ADD PUSH2 0x5B2 JUMP JUMPDEST POP POP POP POP JUMP JUMPDEST PUSH2 0x7A8 DUP3 CALLER DUP4 PUSH2 0xA6F JUMP JUMPDEST POP POP JUMP JUMPDEST PUSH0 PUSH2 0x531 DUP3 PUSH1 0x1 PUSH2 0x8A5 JUMP JUMPDEST PUSH0 DUP1 PUSH2 0x7C3 DUP4 PUSH2 0x866 JUMP JUMPDEST SWAP1 POP DUP1 DUP6 GT ISZERO PUSH2 0x7EC JUMPI DUP3 DUP6 DUP3 PUSH1 0x40 MLOAD PUSH4 0x3FA733BB PUSH1 0xE2 SHL DUP2 MSTORE PUSH1 0x4 ADD PUSH2 0x5B2 SWAP4 SWAP3 SWAP2 SWAP1 PUSH2 0x1394 JUMP JUMPDEST PUSH0 PUSH2 0x7F6 DUP7 PUSH2 0x54E JUMP JUMPDEST SWAP1 POP PUSH2 0x805 CALLER DUP7 DUP7 DUP10 DUP6 PUSH2 0xB6A JUMP JUMPDEST SWAP6 SWAP5 POP POP POP POP POP JUMP JUMPDEST PUSH0 DUP1 PUSH2 0x819 DUP4 PUSH2 0x888 JUMP JUMPDEST SWAP1 POP DUP1 DUP6 GT ISZERO PUSH2 0x842 JUMPI DUP3 DUP6 DUP3 PUSH1 0x40 MLOAD PUSH4 0x2E52AFBB PUSH1 0xE2 SHL DUP2 MSTORE PUSH1 0x4 ADD PUSH2 0x5B2 SWAP4 SWAP3 SWAP2 SWAP1 PUSH2 0x1394 JUMP JUMPDEST PUSH0 PUSH2 0x84C DUP7 PUSH2 0x526 JUMP JUMPDEST SWAP1 POP PUSH2 0x805 CALLER DUP7 DUP7 DUP5 DUP11 PUSH2 0xB6A JUMP JUMPDEST PUSH0 PUSH2 0x531 DUP3 PUSH0 PUSH2 0x8EF JUMP JUMPDEST PUSH1 0x1 PUSH1 0x1 PUSH1 0xA0 SHL SUB DUP2 AND PUSH0 SWAP1 DUP2 MSTORE PUSH1 0x20 DUP2 SWAP1 MSTORE PUSH1 0x40 DUP2 KECCAK256 SLOAD PUSH2 0x531 SWAP1 PUSH0 PUSH2 0x8A5 JUMP JUMPDEST PUSH1 0x1 PUSH1 0x1 PUSH1 0xA0 SHL SUB DUP2 AND PUSH0 SWAP1 DUP2 MSTORE PUSH1 0x20 DUP2 SWAP1 MSTORE PUSH1 0x40 DUP2 KECCAK256 SLOAD PUSH2 0x531 JUMP JUMPDEST PUSH0 PUSH2 0x578 PUSH2 0x8B1 PUSH2 0x409 JUMP JUMPDEST PUSH2 0x8BC SWAP1 PUSH1 0x1 PUSH2 0x13B5 JUMP JUMPDEST PUSH2 0x8C7 PUSH0 PUSH1 0xA PUSH2 0x14A8 JUMP JUMPDEST PUSH1 0x2 SLOAD PUSH2 0x8D4 SWAP2 SWAP1 PUSH2 0x13B5 JUMP JUMPDEST DUP6 SWAP2 SWAP1 DUP6 PUSH2 0xC2A JUMP JUMPDEST PUSH2 0x8EA DUP4 DUP4 DUP4 PUSH1 0x1 PUSH2 0xC77 JUMP JUMPDEST POP POP POP JUMP JUMPDEST PUSH0 PUSH2 0x578 PUSH2 0x8FE DUP3 PUSH1 0xA PUSH2 0x14A8 JUMP JUMPDEST PUSH1 0x2 SLOAD PUSH2 0x90B SWAP2 SWAP1 PUSH2 0x13B5 JUMP JUMPDEST PUSH2 0x913 PUSH2 0x409 JUMP JUMPDEST PUSH2 0x8D4 SWAP1 PUSH1 0x1 PUSH2 0x13B5 JUMP JUMPDEST PUSH1 0x1 PUSH1 0x1 PUSH1 0xA0 SHL SUB DUP4 DUP2 AND PUSH0 SWAP1 DUP2 MSTORE PUSH1 0x1 PUSH1 0x20 SWAP1 DUP2 MSTORE PUSH1 0x40 DUP1 DUP4 KECCAK256 SWAP4 DUP7 AND DUP4 MSTORE SWAP3 SWAP1 MSTORE KECCAK256 SLOAD PUSH0 NOT DUP2 EQ PUSH2 0x797 JUMPI DUP2 DUP2 LT ISZERO PUSH2 0x972 JUMPI DUP3 DUP2 DUP4 PUSH1 0x40 MLOAD PUSH4 0x7DC7A0D9 PUSH1 0xE1 SHL DUP2 MSTORE PUSH1 0x4 ADD PUSH2 0x5B2 SWAP4 SWAP3 SWAP2 SWAP1 PUSH2 0x1394 JUMP JUMPDEST PUSH2 0x797 DUP5 DUP5 DUP5 DUP5 SUB PUSH0 PUSH2 0xC77 JUMP JUMPDEST PUSH1 0x1 PUSH1 0x1 PUSH1 0xA0 SHL SUB DUP4 AND PUSH2 0x9A9 JUMPI PUSH1 0x40 MLOAD PUSH4 0x4B637E8F PUSH1 0xE1 SHL DUP2 MSTORE PUSH0 PUSH1 0x4 DUP3 ADD MSTORE PUSH1 0x24 ADD PUSH2 0x5B2 JUMP JUMPDEST PUSH1 0x1 PUSH1 0x1 PUSH1 0xA0 SHL SUB DUP3 AND PUSH2 0x9D2 JUMPI PUSH1 0x40 MLOAD PUSH4 0xEC442F05 PUSH1 0xE0 SHL DUP2 MSTORE PUSH0 PUSH1 0x4 DUP3 ADD MSTORE PUSH1 0x24 ADD PUSH2 0x5B2 JUMP JUMPDEST PUSH2 0x8EA DUP4 DUP4 DUP4 PUSH2 0xD3B JUMP JUMPDEST PUSH2 0xA09 PUSH32 0x0 DUP6 ADDRESS DUP6 PUSH2 0xE4E JUMP JUMPDEST PUSH2 0xA13 DUP4 DUP3 PUSH2 0xEB5 JUMP JUMPDEST DUP3 PUSH1 0x1 PUSH1 0x1 PUSH1 0xA0 SHL SUB AND DUP5 PUSH1 0x1 PUSH1 0x1 PUSH1 0xA0 SHL SUB AND PUSH32 0xDCBC1C05240F31FF3AD067EF1EE35CE4997762752E3A095284754544F4C709D7 DUP5 DUP5 PUSH1 0x40 MLOAD PUSH2 0xA61 SWAP3 SWAP2 SWAP1 SWAP2 DUP3 MSTORE PUSH1 0x20 DUP3 ADD MSTORE PUSH1 0x40 ADD SWAP1 JUMP JUMPDEST PUSH1 0x40 MLOAD DUP1 SWAP2 SUB SWAP1 LOG3 POP POP POP POP JUMP JUMPDEST PUSH1 0x40 DUP1 MLOAD PUSH1 0x1 PUSH1 0x1 PUSH1 0xA0 SHL SUB DUP5 DUP2 AND PUSH1 0x24 DUP4 ADD MSTORE PUSH1 0x44 DUP1 DUP4 ADD DUP6 SWAP1 MSTORE DUP4 MLOAD DUP1 DUP5 SUB SWAP1 SWAP2 ADD DUP2 MSTORE PUSH1 0x64 SWAP1 SWAP3 ADD DUP4 MSTORE PUSH1 0x20 DUP3 ADD DUP1 MLOAD PUSH1 0x1 PUSH1 0x1 PUSH1 0xE0 SHL SUB AND PUSH4 0xA9059CBB PUSH1 0xE0 SHL OR SWAP1 MSTORE SWAP2 MLOAD PUSH0 SWAP3 DUP4 SWAP3 SWAP1 DUP8 AND SWAP2 PUSH2 0xACA SWAP2 SWAP1 PUSH2 0x14B6 JUMP JUMPDEST PUSH0 PUSH1 0x40 MLOAD DUP1 DUP4 SUB DUP2 PUSH0 DUP7 GAS CALL SWAP2 POP POP RETURNDATASIZE DUP1 PUSH0 DUP2 EQ PUSH2 0xB03 JUMPI PUSH1 0x40 MLOAD SWAP2 POP PUSH1 0x1F NOT PUSH1 0x3F RETURNDATASIZE ADD AND DUP3 ADD PUSH1 0x40 MSTORE RETURNDATASIZE DUP3 MSTORE RETURNDATASIZE PUSH0 PUSH1 0x20 DUP5 ADD RETURNDATACOPY PUSH2 0xB08 JUMP JUMPDEST PUSH1 0x60 SWAP2 POP JUMPDEST POP SWAP2 POP SWAP2 POP DUP2 DUP1 ISZERO PUSH2 0xB32 JUMPI POP DUP1 MLOAD ISZERO DUP1 PUSH2 0xB32 JUMPI POP DUP1 DUP1 PUSH1 0x20 ADD SWAP1 MLOAD DUP2 ADD SWAP1 PUSH2 0xB32 SWAP2 SWAP1 PUSH2 0x14D1 JUMP JUMPDEST PUSH2 0xB63 JUMPI PUSH1 0x40 MLOAD PUSH3 0x461BCD PUSH1 0xE5 SHL DUP2 MSTORE PUSH1 0x20 PUSH1 0x4 DUP3 ADD MSTORE PUSH1 0x2 PUSH1 0x24 DUP3 ADD MSTORE PUSH2 0x14D5 PUSH1 0xF2 SHL PUSH1 0x44 DUP3 ADD MSTORE PUSH1 0x64 ADD PUSH2 0x5B2 JUMP JUMPDEST POP POP POP POP POP JUMP JUMPDEST DUP3 PUSH1 0x1 PUSH1 0x1 PUSH1 0xA0 SHL SUB AND DUP6 PUSH1 0x1 PUSH1 0x1 PUSH1 0xA0 SHL SUB AND EQ PUSH2 0xB8E JUMPI PUSH2 0xB8E DUP4 DUP7 DUP4 PUSH2 0x91E JUMP JUMPDEST PUSH2 0xB98 DUP4 DUP3 PUSH2 0xEE9 JUMP JUMPDEST PUSH2 0xBC3 PUSH32 0x0 DUP6 DUP5 PUSH2 0xF1D JUMP JUMPDEST DUP3 PUSH1 0x1 PUSH1 0x1 PUSH1 0xA0 SHL SUB AND DUP5 PUSH1 0x1 PUSH1 0x1 PUSH1 0xA0 SHL SUB AND DUP7 PUSH1 0x1 PUSH1 0x1 PUSH1 0xA0 SHL SUB AND PUSH32 0xFBDE797D201C681B91056529119E0B02407C7BB96A4A2C75C01FC9667232C8DB DUP6 DUP6 PUSH1 0x40 MLOAD PUSH2 0xC1B SWAP3 SWAP2 SWAP1 SWAP2 DUP3 MSTORE PUSH1 0x20 DUP3 ADD MSTORE PUSH1 0x40 ADD SWAP1 JUMP JUMPDEST PUSH1 0x40 MLOAD DUP1 SWAP2 SUB SWAP1 LOG4 POP POP POP POP POP JUMP JUMPDEST PUSH0 DUP1 PUSH2 0xC37 DUP7 DUP7 DUP7 PUSH2 0xF4E JUMP JUMPDEST SWAP1 POP PUSH2 0xC42 DUP4 PUSH2 0x100D JUMP JUMPDEST DUP1 ISZERO PUSH2 0xC5D JUMPI POP PUSH0 DUP5 DUP1 PUSH2 0xC58 JUMPI PUSH2 0xC58 PUSH2 0x14F0 JUMP JUMPDEST DUP7 DUP9 MULMOD GT JUMPDEST ISZERO PUSH2 0x805 JUMPI PUSH2 0xC6D PUSH1 0x1 DUP3 PUSH2 0x13B5 JUMP JUMPDEST SWAP7 SWAP6 POP POP POP POP POP POP JUMP JUMPDEST PUSH1 0x1 PUSH1 0x1 PUSH1 0xA0 SHL SUB DUP5 AND PUSH2 0xCA0 JUMPI PUSH1 0x40 MLOAD PUSH4 0xE602DF05 PUSH1 0xE0 SHL DUP2 MSTORE PUSH0 PUSH1 0x4 DUP3 ADD MSTORE PUSH1 0x24 ADD PUSH2 0x5B2 JUMP JUMPDEST PUSH1 0x1 PUSH1 0x1 PUSH1 0xA0 SHL SUB DUP4 AND PUSH2 0xCC9 JUMPI PUSH1 0x40 MLOAD PUSH4 0x4A1406B1 PUSH1 0xE1 SHL DUP2 MSTORE PUSH0 PUSH1 0x4 DUP3 ADD MSTORE PUSH1 0x24 ADD PUSH2 0x5B2 JUMP JUMPDEST PUSH1 0x1 PUSH1 0x1 PUSH1 0xA0 SHL SUB DUP1 DUP6 AND PUSH0 SWAP1 DUP2 MSTORE PUSH1 0x1 PUSH1 0x20 SWAP1 DUP2 MSTORE PUSH1 0x40 DUP1 DUP4 KECCAK256 SWAP4 DUP8 AND DUP4 MSTORE SWAP3 SWAP1 MSTORE KECCAK256 DUP3 SWAP1 SSTORE DUP1 ISZERO PUSH2 0x797 JUMPI DUP3 PUSH1 0x1 PUSH1 0x1 PUSH1 0xA0 SHL SUB AND DUP5 PUSH1 0x1 PUSH1 0x1 PUSH1 0xA0 SHL SUB AND PUSH32 0x8C5BE1E5EBEC7D5BD14F71427D1E84F3DD0314C0F7B2291E5B200AC8C7C3B925 DUP5 PUSH1 0x40 MLOAD PUSH2 0xA61 SWAP2 DUP2 MSTORE PUSH1 0x20 ADD SWAP1 JUMP JUMPDEST PUSH1 0x1 PUSH1 0x1 PUSH1 0xA0 SHL SUB DUP4 AND PUSH2 0xD65 JUMPI DUP1 PUSH1 0x2 PUSH0 DUP3 DUP3 SLOAD PUSH2 0xD5A SWAP2 SWAP1 PUSH2 0x13B5 JUMP JUMPDEST SWAP1 SWAP2 SSTORE POP PUSH2 0xDC2 SWAP1 POP JUMP JUMPDEST PUSH1 0x1 PUSH1 0x1 PUSH1 0xA0 SHL SUB DUP4 AND PUSH0 SWAP1 DUP2 MSTORE PUSH1 0x20 DUP2 SWAP1 MSTORE PUSH1 0x40 SWAP1 KECCAK256 SLOAD DUP2 DUP2 LT ISZERO PUSH2 0xDA4 JUMPI DUP4 DUP2 DUP4 PUSH1 0x40 MLOAD PUSH4 0x391434E3 PUSH1 0xE2 SHL DUP2 MSTORE PUSH1 0x4 ADD PUSH2 0x5B2 SWAP4 SWAP3 SWAP2 SWAP1 PUSH2 0x1394 JUMP JUMPDEST PUSH1 0x1 PUSH1 0x1 PUSH1 0xA0 SHL SUB DUP5 AND PUSH0 SWAP1 DUP2 MSTORE PUSH1 0x20 DUP2 SWAP1 MSTORE PUSH1 0x40 SWAP1 KECCAK256 SWAP1 DUP3 SWAP1 SUB SWAP1 SSTORE JUMPDEST PUSH1 0x1 PUSH1 0x1 PUSH1 0xA0 SHL SUB DUP3 AND PUSH2 0xDDE JUMPI PUSH1 0x2 DUP1 SLOAD DUP3 SWAP1 SUB SWAP1 SSTORE PUSH2 0xDFC JUMP JUMPDEST PUSH1 0x1 PUSH1 0x1 PUSH1 0xA0 SHL SUB DUP3 AND PUSH0 SWAP1 DUP2 MSTORE PUSH1 0x20 DUP2 SWAP1 MSTORE PUSH1 0x40 SWAP1 KECCAK256 DUP1 SLOAD DUP3 ADD SWAP1 SSTORE JUMPDEST DUP2 PUSH1 0x1 PUSH1 0x1 PUSH1 0xA0 SHL SUB AND DUP4 PUSH1 0x1 PUSH1 0x1 PUSH1 0xA0 SHL SUB AND PUSH32 0xDDF252AD1BE2C89B69C2B068FC378DAA952BA7F163C4A11628F55A4DF523B3EF DUP4 PUSH1 0x40 MLOAD PUSH2 0xE41 SWAP2 DUP2 MSTORE PUSH1 0x20 ADD SWAP1 JUMP JUMPDEST PUSH1 0x40 MLOAD DUP1 SWAP2 SUB SWAP1 LOG3 POP POP POP JUMP JUMPDEST PUSH1 0x40 MLOAD PUSH1 0x1 PUSH1 0x1 PUSH1 0xA0 SHL SUB DUP5 DUP2 AND PUSH1 0x24 DUP4 ADD MSTORE DUP4 DUP2 AND PUSH1 0x44 DUP4 ADD MSTORE PUSH1 0x64 DUP3 ADD DUP4 SWAP1 MSTORE PUSH2 0x797 SWAP2 DUP7 SWAP2 DUP3 AND SWAP1 PUSH4 0x23B872DD SWAP1 PUSH1 0x84 ADD JUMPDEST PUSH1 0x40 MLOAD PUSH1 0x20 DUP2 DUP4 SUB SUB DUP2 MSTORE SWAP1 PUSH1 0x40 MSTORE SWAP2 POP PUSH1 0xE0 SHL PUSH1 0x20 DUP3 ADD DUP1 MLOAD PUSH1 0x1 PUSH1 0x1 PUSH1 0xE0 SHL SUB DUP4 DUP2 DUP4 AND OR DUP4 MSTORE POP POP POP POP PUSH2 0x1039 JUMP JUMPDEST PUSH1 0x1 PUSH1 0x1 PUSH1 0xA0 SHL SUB DUP3 AND PUSH2 0xEDE JUMPI PUSH1 0x40 MLOAD PUSH4 0xEC442F05 PUSH1 0xE0 SHL DUP2 MSTORE PUSH0 PUSH1 0x4 DUP3 ADD MSTORE PUSH1 0x24 ADD PUSH2 0x5B2 JUMP JUMPDEST PUSH2 0x7A8 PUSH0 DUP4 DUP4 PUSH2 0xD3B JUMP JUMPDEST PUSH1 0x1 PUSH1 0x1 PUSH1 0xA0 SHL SUB DUP3 AND PUSH2 0xF12 JUMPI PUSH1 0x40 MLOAD PUSH4 0x4B637E8F PUSH1 0xE1 SHL DUP2 MSTORE PUSH0 PUSH1 0x4 DUP3 ADD MSTORE PUSH1 0x24 ADD PUSH2 0x5B2 JUMP JUMPDEST PUSH2 0x7A8 DUP3 PUSH0 DUP4 PUSH2 0xD3B JUMP JUMPDEST PUSH1 0x40 MLOAD PUSH1 0x1 PUSH1 0x1 PUSH1 0xA0 SHL SUB DUP4 DUP2 AND PUSH1 0x24 DUP4 ADD MSTORE PUSH1 0x44 DUP3 ADD DUP4 SWAP1 MSTORE PUSH2 0x8EA SWAP2 DUP6 SWAP2 DUP3 AND SWAP1 PUSH4 0xA9059CBB SWAP1 PUSH1 0x64 ADD PUSH2 0xE83 JUMP JUMPDEST PUSH0 DUP4 DUP4 MUL DUP2 PUSH0 NOT DUP6 DUP8 MULMOD DUP3 DUP2 LT DUP4 DUP3 SUB SUB SWAP2 POP POP DUP1 PUSH0 SUB PUSH2 0xF82 JUMPI DUP4 DUP3 DUP2 PUSH2 0xF78 JUMPI PUSH2 0xF78 PUSH2 0x14F0 JUMP JUMPDEST DIV SWAP3 POP POP POP PUSH2 0x578 JUMP JUMPDEST DUP1 DUP5 GT PUSH2 0xFA2 JUMPI PUSH1 0x40 MLOAD PUSH4 0x227BC153 PUSH1 0xE0 SHL DUP2 MSTORE PUSH1 0x4 ADD PUSH1 0x40 MLOAD DUP1 SWAP2 SUB SWAP1 REVERT JUMPDEST PUSH0 DUP5 DUP7 DUP9 MULMOD PUSH0 DUP7 DUP2 SUB DUP8 AND SWAP7 DUP8 SWAP1 DIV SWAP7 PUSH1 0x2 PUSH1 0x3 DUP10 MUL DUP2 XOR DUP1 DUP11 MUL DUP3 SUB MUL DUP1 DUP11 MUL DUP3 SUB MUL DUP1 DUP11 MUL DUP3 SUB MUL DUP1 DUP11 MUL DUP3 SUB MUL DUP1 DUP11 MUL DUP3 SUB MUL DUP1 DUP11 MUL SWAP1 SWAP2 SUB MUL SWAP2 DUP2 SWAP1 SUB DUP2 SWAP1 DIV PUSH1 0x1 ADD DUP7 DUP5 GT SWAP1 SWAP6 SUB SWAP5 SWAP1 SWAP5 MUL SWAP2 SWAP1 SWAP5 SUB SWAP3 SWAP1 SWAP3 DIV SWAP2 SWAP1 SWAP2 OR SWAP2 SWAP1 SWAP2 MUL SWAP2 POP POP SWAP4 SWAP3 POP POP POP JUMP JUMPDEST PUSH0 PUSH1 0x2 DUP3 PUSH1 0x3 DUP2 GT ISZERO PUSH2 0x1022 JUMPI PUSH2 0x1022 PUSH2 0x1504 JUMP JUMPDEST PUSH2 0x102C SWAP2 SWAP1 PUSH2 0x1518 JUMP JUMPDEST PUSH1 0xFF AND PUSH1 0x1 EQ SWAP1 POP SWAP2 SWAP1 POP JUMP JUMPDEST PUSH0 PUSH2 0x104D PUSH1 0x1 PUSH1 0x1 PUSH1 0xA0 SHL SUB DUP5 AND DUP4 PUSH2 0x109A JUMP JUMPDEST SWAP1 POP DUP1 MLOAD PUSH0 EQ ISZERO DUP1 ISZERO PUSH2 0x1071 JUMPI POP DUP1 DUP1 PUSH1 0x20 ADD SWAP1 MLOAD DUP2 ADD SWAP1 PUSH2 0x106F SWAP2 SWAP1 PUSH2 0x14D1 JUMP JUMPDEST ISZERO JUMPDEST ISZERO PUSH2 0x8EA JUMPI PUSH1 0x40 MLOAD PUSH4 0x5274AFE7 PUSH1 0xE0 SHL DUP2 MSTORE PUSH1 0x1 PUSH1 0x1 PUSH1 0xA0 SHL SUB DUP5 AND PUSH1 0x4 DUP3 ADD MSTORE PUSH1 0x24 ADD PUSH2 0x5B2 JUMP JUMPDEST PUSH1 0x60 PUSH2 0x578 DUP4 DUP4 PUSH0 DUP5 PUSH0 DUP1 DUP6 PUSH1 0x1 PUSH1 0x1 PUSH1 0xA0 SHL SUB AND DUP5 DUP7 PUSH1 0x40 MLOAD PUSH2 0x10BE SWAP2 SWAP1 PUSH2 0x14B6 JUMP JUMPDEST PUSH0 PUSH1 0x40 MLOAD DUP1 DUP4 SUB DUP2 DUP6 DUP8 GAS CALL SWAP3 POP POP POP RETURNDATASIZE DUP1 PUSH0 DUP2 EQ PUSH2 0x10F8 JUMPI PUSH1 0x40 MLOAD SWAP2 POP PUSH1 0x1F NOT PUSH1 0x3F RETURNDATASIZE ADD AND DUP3 ADD PUSH1 0x40 MSTORE RETURNDATASIZE DUP3 MSTORE RETURNDATASIZE PUSH0 PUSH1 0x20 DUP5 ADD RETURNDATACOPY PUSH2 0x10FD JUMP JUMPDEST PUSH1 0x60 SWAP2 POP JUMPDEST POP SWAP2 POP SWAP2 POP PUSH2 0xC6D DUP7 DUP4 DUP4 PUSH1 0x60 DUP3 PUSH2 0x111D JUMPI PUSH2 0x1118 DUP3 PUSH2 0x1164 JUMP JUMPDEST PUSH2 0x578 JUMP JUMPDEST DUP2 MLOAD ISZERO DUP1 ISZERO PUSH2 0x1134 JUMPI POP PUSH1 0x1 PUSH1 0x1 PUSH1 0xA0 SHL SUB DUP5 AND EXTCODESIZE ISZERO JUMPDEST ISZERO PUSH2 0x115D JUMPI PUSH1 0x40 MLOAD PUSH4 0x9996B315 PUSH1 0xE0 SHL DUP2 MSTORE PUSH1 0x1 PUSH1 0x1 PUSH1 0xA0 SHL SUB DUP6 AND PUSH1 0x4 DUP3 ADD MSTORE PUSH1 0x24 ADD PUSH2 0x5B2 JUMP JUMPDEST POP DUP1 PUSH2 0x578 JUMP JUMPDEST DUP1 MLOAD ISZERO PUSH2 0x1174 JUMPI DUP1 MLOAD DUP1 DUP3 PUSH1 0x20 ADD REVERT JUMPDEST PUSH1 0x40 MLOAD PUSH4 0xA12F521 PUSH1 0xE1 SHL DUP2 MSTORE PUSH1 0x4 ADD PUSH1 0x40 MLOAD DUP1 SWAP2 SUB SWAP1 REVERT JUMPDEST PUSH0 JUMPDEST DUP4 DUP2 LT ISZERO PUSH2 0x11A7 JUMPI DUP2 DUP2 ADD MLOAD DUP4 DUP3 ADD MSTORE PUSH1 0x20 ADD PUSH2 0x118F JUMP JUMPDEST POP POP PUSH0 SWAP2 ADD MSTORE JUMP JUMPDEST PUSH1 0x20 DUP2 MSTORE PUSH0 DUP3 MLOAD DUP1 PUSH1 0x20 DUP5 ADD MSTORE PUSH2 0x11CD DUP2 PUSH1 0x40 DUP6 ADD PUSH1 0x20 DUP8 ADD PUSH2 0x118D JUMP JUMPDEST PUSH1 0x1F ADD PUSH1 0x1F NOT AND SWAP2 SWAP1 SWAP2 ADD PUSH1 0x40 ADD SWAP3 SWAP2 POP POP JUMP JUMPDEST PUSH0 PUSH1 0x20 DUP3 DUP5 SUB SLT ISZERO PUSH2 0x11F1 JUMPI PUSH0 DUP1 REVERT JUMPDEST POP CALLDATALOAD SWAP2 SWAP1 POP JUMP JUMPDEST DUP1 CALLDATALOAD PUSH1 0x1 PUSH1 0x1 PUSH1 0xA0 SHL SUB DUP2 AND DUP2 EQ PUSH2 0x120E JUMPI PUSH0 DUP1 REVERT JUMPDEST SWAP2 SWAP1 POP JUMP JUMPDEST PUSH0 DUP1 PUSH1 0x40 DUP4 DUP6 SUB SLT ISZERO PUSH2 0x1224 JUMPI PUSH0 DUP1 REVERT JUMPDEST PUSH2 0x122D DUP4 PUSH2 0x11F8 JUMP JUMPDEST SWAP5 PUSH1 0x20 SWAP4 SWAP1 SWAP4 ADD CALLDATALOAD SWAP4 POP POP POP JUMP JUMPDEST PUSH0 DUP1 PUSH0 PUSH1 0x60 DUP5 DUP7 SUB SLT ISZERO PUSH2 0x124D JUMPI PUSH0 DUP1 REVERT JUMPDEST PUSH2 0x1256 DUP5 PUSH2 0x11F8 JUMP JUMPDEST SWAP3 POP PUSH2 0x1264 PUSH1 0x20 DUP6 ADD PUSH2 0x11F8 JUMP JUMPDEST SWAP2 POP PUSH1 0x40 DUP5 ADD CALLDATALOAD SWAP1 POP SWAP3 POP SWAP3 POP SWAP3 JUMP JUMPDEST PUSH0 PUSH1 0x20 DUP3 DUP5 SUB SLT ISZERO PUSH2 0x1284 JUMPI PUSH0 DUP1 REVERT JUMPDEST PUSH2 0x578 DUP3 PUSH2 0x11F8 JUMP JUMPDEST PUSH0 DUP1 PUSH1 0x40 DUP4 DUP6 SUB SLT ISZERO PUSH2 0x129E JUMPI PUSH0 DUP1 REVERT JUMPDEST DUP3 CALLDATALOAD SWAP2 POP PUSH2 0x12AE PUSH1 0x20 DUP5 ADD PUSH2 0x11F8 JUMP JUMPDEST SWAP1 POP SWAP3 POP SWAP3 SWAP1 POP JUMP JUMPDEST PUSH0 DUP1 PUSH0 PUSH1 0x60 DUP5 DUP7 SUB SLT ISZERO PUSH2 0x12C9 JUMPI PUSH0 DUP1 REVERT JUMPDEST DUP4 CALLDATALOAD SWAP3 POP PUSH2 0x12D9 PUSH1 0x20 DUP6 ADD PUSH2 0x11F8 JUMP JUMPDEST SWAP2 POP PUSH2 0x12E7 PUSH1 0x40 DUP6 ADD PUSH2 0x11F8 JUMP JUMPDEST SWAP1 POP SWAP3 POP SWAP3 POP SWAP3 JUMP JUMPDEST PUSH0 DUP1 PUSH1 0x40 DUP4 DUP6 SUB SLT ISZERO PUSH2 0x1301 JUMPI PUSH0 DUP1 REVERT JUMPDEST PUSH2 0x130A DUP4 PUSH2 0x11F8 JUMP JUMPDEST SWAP2 POP PUSH2 0x12AE PUSH1 0x20 DUP5 ADD PUSH2 0x11F8 JUMP JUMPDEST PUSH0 PUSH1 0x20 DUP3 DUP5 SUB SLT ISZERO PUSH2 0x1328 JUMPI PUSH0 DUP1 REVERT JUMPDEST POP MLOAD SWAP2 SWAP1 POP JUMP JUMPDEST PUSH1 0x1 DUP2 DUP2 SHR SWAP1 DUP3 AND DUP1 PUSH2 0x1343 JUMPI PUSH1 0x7F DUP3 AND SWAP2 POP JUMPDEST PUSH1 0x20 DUP3 LT DUP2 SUB PUSH2 0x1361 JUMPI PUSH4 0x4E487B71 PUSH1 0xE0 SHL PUSH0 MSTORE PUSH1 0x22 PUSH1 0x4 MSTORE PUSH1 0x24 PUSH0 REVERT JUMPDEST POP SWAP2 SWAP1 POP JUMP JUMPDEST PUSH4 0x4E487B71 PUSH1 0xE0 SHL PUSH0 MSTORE PUSH1 0x11 PUSH1 0x4 MSTORE PUSH1 0x24 PUSH0 REVERT JUMPDEST PUSH1 0xFF DUP2 DUP2 AND DUP4 DUP3 AND ADD SWAP1 DUP2 GT ISZERO PUSH2 0x531 JUMPI PUSH2 0x531 PUSH2 0x1367 JUMP JUMPDEST PUSH1 0x1 PUSH1 0x1 PUSH1 0xA0 SHL SUB SWAP4 SWAP1 SWAP4 AND DUP4 MSTORE PUSH1 0x20 DUP4 ADD SWAP2 SWAP1 SWAP2 MSTORE PUSH1 0x40 DUP3 ADD MSTORE PUSH1 0x60 ADD SWAP1 JUMP JUMPDEST DUP1 DUP3 ADD DUP1 DUP3 GT ISZERO PUSH2 0x531 JUMPI PUSH2 0x531 PUSH2 0x1367 JUMP JUMPDEST PUSH1 0x1 DUP2 DUP2 JUMPDEST DUP1 DUP6 GT ISZERO PUSH2 0x1402 JUMPI DUP2 PUSH0 NOT DIV DUP3 GT ISZERO PUSH2 0x13E8 JUMPI PUSH2 0x13E8 PUSH2 0x1367 JUMP JUMPDEST DUP1 DUP6 AND ISZERO PUSH2 0x13F5 JUMPI SWAP2 DUP2 MUL SWAP2 JUMPDEST SWAP4 DUP5 SHR SWAP4 SWAP1 DUP1 MUL SWAP1 PUSH2 0x13CD JUMP JUMPDEST POP SWAP3 POP SWAP3 SWAP1 POP JUMP JUMPDEST PUSH0 DUP3 PUSH2 0x1418 JUMPI POP PUSH1 0x1 PUSH2 0x531 JUMP JUMPDEST DUP2 PUSH2 0x1424 JUMPI POP PUSH0 PUSH2 0x531 JUMP JUMPDEST DUP2 PUSH1 0x1 DUP2 EQ PUSH2 0x143A JUMPI PUSH1 0x2 DUP2 EQ PUSH2 0x1444 JUMPI PUSH2 0x1460 JUMP JUMPDEST PUSH1 0x1 SWAP2 POP POP PUSH2 0x531 JUMP JUMPDEST PUSH1 0xFF DUP5 GT ISZERO PUSH2 0x1455 JUMPI PUSH2 0x1455 PUSH2 0x1367 JUMP JUMPDEST POP POP PUSH1 0x1 DUP3 SHL PUSH2 0x531 JUMP JUMPDEST POP PUSH1 0x20 DUP4 LT PUSH2 0x133 DUP4 LT AND PUSH1 0x4E DUP5 LT PUSH1 0xB DUP5 LT AND OR ISZERO PUSH2 0x1483 JUMPI POP DUP2 DUP2 EXP PUSH2 0x531 JUMP JUMPDEST PUSH2 0x148D DUP4 DUP4 PUSH2 0x13C8 JUMP JUMPDEST DUP1 PUSH0 NOT DIV DUP3 GT ISZERO PUSH2 0x14A0 JUMPI PUSH2 0x14A0 PUSH2 0x1367 JUMP JUMPDEST MUL SWAP4 SWAP3 POP POP POP JUMP JUMPDEST PUSH0 PUSH2 0x578 PUSH1 0xFF DUP5 AND DUP4 PUSH2 0x140A JUMP JUMPDEST PUSH0 DUP3 MLOAD PUSH2 0x14C7 DUP2 DUP5 PUSH1 0x20 DUP8 ADD PUSH2 0x118D JUMP JUMPDEST SWAP2 SWAP1 SWAP2 ADD SWAP3 SWAP2 POP POP JUMP JUMPDEST PUSH0 PUSH1 0x20 DUP3 DUP5 SUB SLT ISZERO PUSH2 0x14E1 JUMPI PUSH0 DUP1 REVERT JUMPDEST DUP2 MLOAD DUP1 ISZERO ISZERO DUP2 EQ PUSH2 0x578 JUMPI PUSH0 DUP1 REVERT JUMPDEST PUSH4 0x4E487B71 PUSH1 0xE0 SHL PUSH0 MSTORE PUSH1 0x12 PUSH1 0x4 MSTORE PUSH1 0x24 PUSH0 REVERT JUMPDEST PUSH4 0x4E487B71 PUSH1 0xE0 SHL PUSH0 MSTORE PUSH1 0x21 PUSH1 0x4 MSTORE PUSH1 0x24 PUSH0 REVERT JUMPDEST PUSH0 PUSH1 0xFF DUP4 AND DUP1 PUSH2 0x1536 JUMPI PUSH4 0x4E487B71 PUSH1 0xE0 SHL PUSH0 MSTORE PUSH1 0x12 PUSH1 0x4 MSTORE PUSH1 0x24 PUSH0 REVERT JUMPDEST DUP1 PUSH1 0xFF DUP5 AND MOD SWAP2 POP POP SWAP3 SWAP2 POP POP JUMP INVALID LOG2 PUSH5 0x6970667358 0x22 SLT KECCAK256 0xD9 LOG1 0xCC 0xDC 0xF8 0xB4 0xC9 0xEB 0x1E ADDRESS DUP12 SWAP8 SDIV 0xCF INVALID EXTCODEHASH NUMBER AND 0xD PUSH0 XOR SWAP3 GASPRICE 0x29 0xDC 0xAC 0x26 0xE5 0xAA 0x5C 0xA8 0xEE PUSH5 0x736F6C6343 STOP ADDMOD EQ STOP CALLER "
		},
		"gasEstimates": {
			"creation": {
				"codeDepositCost": "1099800",
				"executionCost": "infinite",
				"totalCost": "infinite"
			},
			"external": {
				"allowance(address,address)": "infinite",
				"approve(address,uint256)": "24754",
				"asset()": "infinite",
				"balanceOf(address)": "2637",
				"controller()": "2446",
				"convertToAssets(uint256)": "infinite",
				"convertToShares(uint256)": "infinite",
				"decimals()": "infinite",
				"deposit(uint256,address)": "infinite",
				"ghoToken()": "2403",
				"maxDeposit(address)": "434",
				"maxMint(address)": "389",
				"maxRedeem(address)": "2604",
				"maxWithdraw(address)": "infinite",
				"mint(uint256,address)": "infinite",
				"name()": "infinite",
				"previewDeposit(uint256)": "infinite",
				"previewMint(uint256)": "infinite",
				"previewRedeem(uint256)": "infinite",
				"previewWithdraw(uint256)": "infinite",
				"redeem(uint256,address,address)": "infinite",
				"symbol()": "infinite",
				"totalAssets()": "infinite",
				"totalSupply()": "2370",
				"transfer(address,uint256)": "51302",
				"transferFrom(address,address,uint256)": "infinite",
				"withdraw(uint256,address,address)": "infinite",
				"withdrawLockedAssets(address,uint256)": "infinite"
			}
		},
		"methodIdentifiers": {
			"allowance(address,address)": "dd62ed3e",
			"approve(address,uint256)": "095ea7b3",
			"asset()": "38d52e0f",
			"balanceOf(address)": "70a08231",
			"controller()": "f77c4791",
			"convertToAssets(uint256)": "07a2d13a",
			"convertToShares(uint256)": "c6e6f592",
			"decimals()": "313ce567",
			"deposit(uint256,address)": "6e553f65",
			"ghoToken()": "5996db91",
			"maxDeposit(address)": "402d267d",
			"maxMint(address)": "c63d75b6",
			"maxRedeem(address)": "d905777e",
			"maxWithdraw(address)": "ce96cb77",
			"mint(uint256,address)": "94bf804d",
			"name()": "06fdde03",
			"previewDeposit(uint256)": "ef8b30f7",
			"previewMint(uint256)": "b3d7f6b9",
			"previewRedeem(uint256)": "4cdad506",
			"previewWithdraw(uint256)": "0a28a477",
			"redeem(uint256,address,address)": "ba087652",
			"symbol()": "95d89b41",
			"totalAssets()": "01e1d114",
			"totalSupply()": "18160ddd",
			"transfer(address,uint256)": "a9059cbb",
			"transferFrom(address,address,uint256)": "23b872dd",
			"withdraw(uint256,address,address)": "b460af94",
			"withdrawLockedAssets(address,uint256)": "ade8323f"
		}
	},
	"abi": [
		{
			"inputs": [
				{
					"internalType": "address",
					"name": "token0",
					"type": "address"
				}
			],
			"stateMutability": "nonpayable",
			"type": "constructor"
		},
		{
			"inputs": [
				{
					"internalType": "address",
					"name": "target",
					"type": "address"
				}
			],
			"name": "AddressEmptyCode",
			"type": "error"
		},
		{
			"inputs": [
				{
					"internalType": "address",
					"name": "account",
					"type": "address"
				}
			],
			"name": "AddressInsufficientBalance",
			"type": "error"
		},
		{
			"inputs": [
				{
					"internalType": "address",
					"name": "spender",
					"type": "address"
				},
				{
					"internalType": "uint256",
					"name": "allowance",
					"type": "uint256"
				},
				{
					"internalType": "uint256",
					"name": "needed",
					"type": "uint256"
				}
			],
			"name": "ERC20InsufficientAllowance",
			"type": "error"
		},
		{
			"inputs": [
				{
					"internalType": "address",
					"name": "sender",
					"type": "address"
				},
				{
					"internalType": "uint256",
					"name": "balance",
					"type": "uint256"
				},
				{
					"internalType": "uint256",
					"name": "needed",
					"type": "uint256"
				}
			],
			"name": "ERC20InsufficientBalance",
			"type": "error"
		},
		{
			"inputs": [
				{
					"internalType": "address",
					"name": "approver",
					"type": "address"
				}
			],
			"name": "ERC20InvalidApprover",
			"type": "error"
		},
		{
			"inputs": [
				{
					"internalType": "address",
					"name": "receiver",
					"type": "address"
				}
			],
			"name": "ERC20InvalidReceiver",
			"type": "error"
		},
		{
			"inputs": [
				{
					"internalType": "address",
					"name": "sender",
					"type": "address"
				}
			],
			"name": "ERC20InvalidSender",
			"type": "error"
		},
		{
			"inputs": [
				{
					"internalType": "address",
					"name": "spender",
					"type": "address"
				}
			],
			"name": "ERC20InvalidSpender",
			"type": "error"
		},
		{
			"inputs": [
				{
					"internalType": "address",
					"name": "receiver",
					"type": "address"
				},
				{
					"internalType": "uint256",
					"name": "assets",
					"type": "uint256"
				},
				{
					"internalType": "uint256",
					"name": "max",
					"type": "uint256"
				}
			],
			"name": "ERC4626ExceededMaxDeposit",
			"type": "error"
		},
		{
			"inputs": [
				{
					"internalType": "address",
					"name": "receiver",
					"type": "address"
				},
				{
					"internalType": "uint256",
					"name": "shares",
					"type": "uint256"
				},
				{
					"internalType": "uint256",
					"name": "max",
					"type": "uint256"
				}
			],
			"name": "ERC4626ExceededMaxMint",
			"type": "error"
		},
		{
			"inputs": [
				{
					"internalType": "address",
					"name": "owner",
					"type": "address"
				},
				{
					"internalType": "uint256",
					"name": "shares",
					"type": "uint256"
				},
				{
					"internalType": "uint256",
					"name": "max",
					"type": "uint256"
				}
			],
			"name": "ERC4626ExceededMaxRedeem",
			"type": "error"
		},
		{
			"inputs": [
				{
					"internalType": "address",
					"name": "owner",
					"type": "address"
				},
				{
					"internalType": "uint256",
					"name": "assets",
					"type": "uint256"
				},
				{
					"internalType": "uint256",
					"name": "max",
					"type": "uint256"
				}
			],
			"name": "ERC4626ExceededMaxWithdraw",
			"type": "error"
		},
		{
			"inputs": [],
			"name": "FailedInnerCall",
			"type": "error"
		},
		{
			"inputs": [],
			"name": "MathOverflowedMulDiv",
			"type": "error"
		},
		{
			"inputs": [
				{
					"internalType": "address",
					"name": "token",
					"type": "address"
				}
			],
			"name": "SafeERC20FailedOperation",
			"type": "error"
		},
		{
			"anonymous": false,
			"inputs": [
				{
					"indexed": true,
					"internalType": "address",
					"name": "owner",
					"type": "address"
				},
				{
					"indexed": true,
					"internalType": "address",
					"name": "spender",
					"type": "address"
				},
				{
					"indexed": false,
					"internalType": "uint256",
					"name": "value",
					"type": "uint256"
				}
			],
			"name": "Approval",
			"type": "event"
		},
		{
			"anonymous": false,
			"inputs": [
				{
					"indexed": true,
					"internalType": "address",
					"name": "sender",
					"type": "address"
				},
				{
					"indexed": true,
					"internalType": "address",
					"name": "owner",
					"type": "address"
				},
				{
					"indexed": false,
					"internalType": "uint256",
					"name": "assets",
					"type": "uint256"
				},
				{
					"indexed": false,
					"internalType": "uint256",
					"name": "shares",
					"type": "uint256"
				}
			],
			"name": "Deposit",
			"type": "event"
		},
		{
			"anonymous": false,
			"inputs": [
				{
					"indexed": true,
					"internalType": "address",
					"name": "from",
					"type": "address"
				},
				{
					"indexed": true,
					"internalType": "address",
					"name": "to",
					"type": "address"
				},
				{
					"indexed": false,
					"internalType": "uint256",
					"name": "value",
					"type": "uint256"
				}
			],
			"name": "Transfer",
			"type": "event"
		},
		{
			"anonymous": false,
			"inputs": [
				{
					"indexed": true,
					"internalType": "address",
					"name": "sender",
					"type": "address"
				},
				{
					"indexed": true,
					"internalType": "address",
					"name": "receiver",
					"type": "address"
				},
				{
					"indexed": true,
					"internalType": "address",
					"name": "owner",
					"type": "address"
				},
				{
					"indexed": false,
					"internalType": "uint256",
					"name": "assets",
					"type": "uint256"
				},
				{
					"indexed": false,
					"internalType": "uint256",
					"name": "shares",
					"type": "uint256"
				}
			],
			"name": "Withdraw",
			"type": "event"
		},
		{
			"inputs": [
				{
					"internalType": "address",
					"name": "owner",
					"type": "address"
				},
				{
					"internalType": "address",
					"name": "spender",
					"type": "address"
				}
			],
			"name": "allowance",
			"outputs": [
				{
					"internalType": "uint256",
					"name": "",
					"type": "uint256"
				}
			],
			"stateMutability": "view",
			"type": "function"
		},
		{
			"inputs": [
				{
					"internalType": "address",
					"name": "spender",
					"type": "address"
				},
				{
					"internalType": "uint256",
					"name": "value",
					"type": "uint256"
				}
			],
			"name": "approve",
			"outputs": [
				{
					"internalType": "bool",
					"name": "",
					"type": "bool"
				}
			],
			"stateMutability": "nonpayable",
			"type": "function"
		},
		{
			"inputs": [],
			"name": "asset",
			"outputs": [
				{
					"internalType": "address",
					"name": "",
					"type": "address"
				}
			],
			"stateMutability": "view",
			"type": "function"
		},
		{
			"inputs": [
				{
					"internalType": "address",
					"name": "account",
					"type": "address"
				}
			],
			"name": "balanceOf",
			"outputs": [
				{
					"internalType": "uint256",
					"name": "",
					"type": "uint256"
				}
			],
			"stateMutability": "view",
			"type": "function"
		},
		{
			"inputs": [],
			"name": "controller",
			"outputs": [
				{
					"internalType": "address",
					"name": "",
					"type": "address"
				}
			],
			"stateMutability": "view",
			"type": "function"
		},
		{
			"inputs": [
				{
					"internalType": "uint256",
					"name": "shares",
					"type": "uint256"
				}
			],
			"name": "convertToAssets",
			"outputs": [
				{
					"internalType": "uint256",
					"name": "",
					"type": "uint256"
				}
			],
			"stateMutability": "view",
			"type": "function"
		},
		{
			"inputs": [
				{
					"internalType": "uint256",
					"name": "assets",
					"type": "uint256"
				}
			],
			"name": "convertToShares",
			"outputs": [
				{
					"internalType": "uint256",
					"name": "",
					"type": "uint256"
				}
			],
			"stateMutability": "view",
			"type": "function"
		},
		{
			"inputs": [],
			"name": "decimals",
			"outputs": [
				{
					"internalType": "uint8",
					"name": "",
					"type": "uint8"
				}
			],
			"stateMutability": "view",
			"type": "function"
		},
		{
			"inputs": [
				{
					"internalType": "uint256",
					"name": "assets",
					"type": "uint256"
				},
				{
					"internalType": "address",
					"name": "receiver",
					"type": "address"
				}
			],
			"name": "deposit",
			"outputs": [
				{
					"internalType": "uint256",
					"name": "",
					"type": "uint256"
				}
			],
			"stateMutability": "nonpayable",
			"type": "function"
		},
		{
			"inputs": [],
			"name": "ghoToken",
			"outputs": [
				{
					"internalType": "contract IERC20",
					"name": "",
					"type": "address"
				}
			],
			"stateMutability": "view",
			"type": "function"
		},
		{
			"inputs": [
				{
					"internalType": "address",
					"name": "",
					"type": "address"
				}
			],
			"name": "maxDeposit",
			"outputs": [
				{
					"internalType": "uint256",
					"name": "",
					"type": "uint256"
				}
			],
			"stateMutability": "view",
			"type": "function"
		},
		{
			"inputs": [
				{
					"internalType": "address",
					"name": "",
					"type": "address"
				}
			],
			"name": "maxMint",
			"outputs": [
				{
					"internalType": "uint256",
					"name": "",
					"type": "uint256"
				}
			],
			"stateMutability": "view",
			"type": "function"
		},
		{
			"inputs": [
				{
					"internalType": "address",
					"name": "owner",
					"type": "address"
				}
			],
			"name": "maxRedeem",
			"outputs": [
				{
					"internalType": "uint256",
					"name": "",
					"type": "uint256"
				}
			],
			"stateMutability": "view",
			"type": "function"
		},
		{
			"inputs": [
				{
					"internalType": "address",
					"name": "owner",
					"type": "address"
				}
			],
			"name": "maxWithdraw",
			"outputs": [
				{
					"internalType": "uint256",
					"name": "",
					"type": "uint256"
				}
			],
			"stateMutability": "view",
			"type": "function"
		},
		{
			"inputs": [
				{
					"internalType": "uint256",
					"name": "shares",
					"type": "uint256"
				},
				{
					"internalType": "address",
					"name": "receiver",
					"type": "address"
				}
			],
			"name": "mint",
			"outputs": [
				{
					"internalType": "uint256",
					"name": "",
					"type": "uint256"
				}
			],
			"stateMutability": "nonpayable",
			"type": "function"
		},
		{
			"inputs": [],
			"name": "name",
			"outputs": [
				{
					"internalType": "string",
					"name": "",
					"type": "string"
				}
			],
			"stateMutability": "view",
			"type": "function"
		},
		{
			"inputs": [
				{
					"internalType": "uint256",
					"name": "assets",
					"type": "uint256"
				}
			],
			"name": "previewDeposit",
			"outputs": [
				{
					"internalType": "uint256",
					"name": "",
					"type": "uint256"
				}
			],
			"stateMutability": "view",
			"type": "function"
		},
		{
			"inputs": [
				{
					"internalType": "uint256",
					"name": "shares",
					"type": "uint256"
				}
			],
			"name": "previewMint",
			"outputs": [
				{
					"internalType": "uint256",
					"name": "",
					"type": "uint256"
				}
			],
			"stateMutability": "view",
			"type": "function"
		},
		{
			"inputs": [
				{
					"internalType": "uint256",
					"name": "shares",
					"type": "uint256"
				}
			],
			"name": "previewRedeem",
			"outputs": [
				{
					"internalType": "uint256",
					"name": "",
					"type": "uint256"
				}
			],
			"stateMutability": "view",
			"type": "function"
		},
		{
			"inputs": [
				{
					"internalType": "uint256",
					"name": "assets",
					"type": "uint256"
				}
			],
			"name": "previewWithdraw",
			"outputs": [
				{
					"internalType": "uint256",
					"name": "",
					"type": "uint256"
				}
			],
			"stateMutability": "view",
			"type": "function"
		},
		{
			"inputs": [
				{
					"internalType": "uint256",
					"name": "shares",
					"type": "uint256"
				},
				{
					"internalType": "address",
					"name": "receiver",
					"type": "address"
				},
				{
					"internalType": "address",
					"name": "owner",
					"type": "address"
				}
			],
			"name": "redeem",
			"outputs": [
				{
					"internalType": "uint256",
					"name": "",
					"type": "uint256"
				}
			],
			"stateMutability": "nonpayable",
			"type": "function"
		},
		{
			"inputs": [],
			"name": "symbol",
			"outputs": [
				{
					"internalType": "string",
					"name": "",
					"type": "string"
				}
			],
			"stateMutability": "view",
			"type": "function"
		},
		{
			"inputs": [],
			"name": "totalAssets",
			"outputs": [
				{
					"internalType": "uint256",
					"name": "",
					"type": "uint256"
				}
			],
			"stateMutability": "view",
			"type": "function"
		},
		{
			"inputs": [],
			"name": "totalSupply",
			"outputs": [
				{
					"internalType": "uint256",
					"name": "",
					"type": "uint256"
				}
			],
			"stateMutability": "view",
			"type": "function"
		},
		{
			"inputs": [
				{
					"internalType": "address",
					"name": "to",
					"type": "address"
				},
				{
					"internalType": "uint256",
					"name": "value",
					"type": "uint256"
				}
			],
			"name": "transfer",
			"outputs": [
				{
					"internalType": "bool",
					"name": "",
					"type": "bool"
				}
			],
			"stateMutability": "nonpayable",
			"type": "function"
		},
		{
			"inputs": [
				{
					"internalType": "address",
					"name": "from",
					"type": "address"
				},
				{
					"internalType": "address",
					"name": "to",
					"type": "address"
				},
				{
					"internalType": "uint256",
					"name": "value",
					"type": "uint256"
				}
			],
			"name": "transferFrom",
			"outputs": [
				{
					"internalType": "bool",
					"name": "",
					"type": "bool"
				}
			],
			"stateMutability": "nonpayable",
			"type": "function"
		},
		{
			"inputs": [
				{
					"internalType": "uint256",
					"name": "assets",
					"type": "uint256"
				},
				{
					"internalType": "address",
					"name": "receiver",
					"type": "address"
				},
				{
					"internalType": "address",
					"name": "owner",
					"type": "address"
				}
			],
			"name": "withdraw",
			"outputs": [
				{
					"internalType": "uint256",
					"name": "",
					"type": "uint256"
				}
			],
			"stateMutability": "nonpayable",
			"type": "function"
		},
		{
			"inputs": [
				{
					"internalType": "address",
					"name": "asset",
					"type": "address"
				},
				{
					"internalType": "uint256",
					"name": "amount",
					"type": "uint256"
				}
			],
			"name": "withdrawLockedAssets",
			"outputs": [],
			"stateMutability": "nonpayable",
			"type": "function"
		}
	]
}