{
	"data": {
		"bytecode": {
			"linkReferences": {},
			"object": "60e060405234801562000010575f80fd5b5060405162002f1038038062002f108339810160408190526200003391620001ff565b816040518060400160405280600981526020016847484f496e7375726560b81b8152506040518060400160405280600581526020016447484f2d4960d81b8152508160039081620000859190620002d5565b506004620000948282620002d5565b5050505f80620000aa836200010460201b60201c565b9150915081620000bc576012620000be565b805b60ff1660a05250506001600160a01b0390811660805260098054336001600160a01b031991821617909155600a8054909116938216939093179092551660c052620003e3565b60408051600481526024810182526020810180516001600160e01b031663313ce56760e01b17905290515f918291829182916001600160a01b038716916200014c916200039d565b5f60405180830381855afa9150503d805f811462000186576040519150601f19603f3d011682016040523d82523d5f602084013e6200018b565b606091505b5091509150818015620001a057506020815110155b15620001d7575f81806020019051810190620001bd9190620003cb565b905060ff8111620001d5576001969095509350505050565b505b505f9485945092505050565b80516001600160a01b0381168114620001fa575f80fd5b919050565b5f806040838503121562000211575f80fd5b6200021c83620001e3565b91506200022c60208401620001e3565b90509250929050565b634e487b7160e01b5f52604160045260245ffd5b600181811c908216806200025e57607f821691505b6020821081036200027d57634e487b7160e01b5f52602260045260245ffd5b50919050565b601f821115620002d0575f81815260208120601f850160051c81016020861015620002ab5750805b601f850160051c820191505b81811015620002cc57828155600101620002b7565b5050505b505050565b81516001600160401b03811115620002f157620002f162000235565b620003098162000302845462000249565b8462000283565b602080601f8311600181146200033f575f8415620003275750858301515b5f19600386901b1c1916600185901b178555620002cc565b5f85815260208120601f198616915b828110156200036f578886015182559484019460019091019084016200034e565b50858210156200038d57878501515f19600388901b60f8161c191681555b5050505050600190811b01905550565b5f82515f5b81811015620003be5760208186018101518583015201620003a2565b505f920191825250919050565b5f60208284031215620003dc575f80fd5b5051919050565b60805160a05160c051612adf620004315f395f81816103cd015281816106ed01526114e801525f610da801525f818161037c0152818161066201528181611fe201526120940152612adf5ff3fe608060405234801561000f575f80fd5b5060043610610260575f3560e01c80636e99d52f1161014b578063b460af94116100bf578063ce96cb7711610084578063ce96cb7714610597578063d905777e146105aa578063dd62ed3e146105bd578063ef8b30f714610584578063f08ec66e146105f5578063f77c479114610638575f80fd5b8063b460af941461055e578063ba08765214610571578063c403bc9b14610320578063c63d75b6146103b4578063c6e6f59214610584575f80fd5b806395d89b411161011057806395d89b41146104765780639c1a6a071461047e578063a5c1674e14610512578063a9059cbb14610525578063ade8323f14610538578063b3d7f6b91461054b575f80fd5b80636e99d52f1461032057806370a082311461041f57806371498ae914610447578063944866ec1461045057806394bf804d14610463575f80fd5b8063226df934116101e2578063402d267d116101a7578063402d267d146103b45780634cdad506146102a95780634cf088d9146103c85780635996db91146103ef5780636bab30b7146104025780636e553f651461040c575f80fd5b8063226df9341461033257806323b872dd1461033a578063313ce5671461034d57806333ac473b1461036757806338d52e0f1461037a575f80fd5b80630a28a477116102285780630a28a477146102df578063147c21de146102f257806318160ddd146103185780631be59c60146103205780631cb27ba41461032a575f80fd5b806301e1d11414610264578063060920721461027f57806306fdde031461029457806307a2d13a146102a9578063095ea7b3146102bc575b5f80fd5b61026c61064b565b6040519081526020015b60405180910390f35b61029261028d3660046123a1565b6106d8565b005b61029c610a63565b604051610276919061241f565b61026c6102b7366004612431565b610af3565b6102cf6102ca366004612463565b610b04565b6040519015158152602001610276565b61026c6102ed366004612431565b610b1b565b610305610300366004612431565b610b27565b60405161027697969594939291906124c3565b60025461026c565b61026c62278d0081565b61026c606481565b610292610bfc565b6102cf610348366004612523565b610d7c565b610355610da1565b60405160ff9091168152602001610276565b610292610375366004612463565b610dcc565b7f00000000000000000000000000000000000000000000000000000000000000005b6040516001600160a01b039091168152602001610276565b61026c6103c236600461255c565b505f1990565b61039c7f000000000000000000000000000000000000000000000000000000000000000081565b600a5461039c906001600160a01b031681565b61026c620d2f0081565b61026c61041a366004612575565b610f74565b61026c61042d36600461255c565b6001600160a01b03165f9081526020819052604090205490565b61026c60085481565b61026c61045e3660046125b3565b610f97565b61026c610471366004612575565b61137c565b61029c611397565b6104d361048c36600461255c565b600660208190525f918252604090912080546001820154600283015460038401546004850154600586015495909601546001600160a01b0390941695929491939092919087565b604080516001600160a01b0390981688526020880196909652948601939093526060850191909152608084015260a083015260c082015260e001610276565b610292610520366004612431565b6113a6565b6102cf610533366004612463565b6115a0565b610292610546366004612463565b6115ad565b61026c610559366004612431565b611741565b61026c61056c366004612662565b61174d565b61026c61057f366004612662565b6117a3565b61026c610592366004612431565b6117f0565b61026c6105a536600461255c565b6117fb565b61026c6105b836600461255c565b61181d565b61026c6105cb36600461269b565b6001600160a01b039182165f90815260016020908152604080832093909416825291909152205490565b61062161060336600461255c565b60056020525f90815260409020805460019091015460ff9091169082565b604080519215158352602083019190915201610276565b60095461039c906001600160a01b031681565b6040516370a0823160e01b81523060048201525f907f00000000000000000000000000000000000000000000000000000000000000006001600160a01b0316906370a0823190602401602060405180830381865afa1580156106af573d5f803e3d5ffd5b505050506040513d601f19601f820116820180604052508101906106d391906126c3565b905090565b6040516306620a4360e31b81523360048201527f00000000000000000000000000000000000000000000000000000000000000006001600160a01b031690633310521890602401602060405180830381865afa15801561073a573d5f803e3d5ffd5b505050506040513d601f19601f8201168201806040525081019061075e91906126da565b6107a05760405162461bcd60e51b815260206004820152600e60248201526d2727aa1020902b22a924a324a2a960911b60448201526064015b60405180910390fd5b5f8281526007602052604081206005015460ff1660038111156107c5576107c561248b565b146108225760405162461bcd60e51b815260206004820152602760248201527f496e737572616e63655661756c743a20436c61696d20616c72656164792070726044820152661bd8d95cdcd95960ca1b6064820152608401610797565b60018160028111156108365761083661248b565b0361094d575f828152600760208181526040808420600580820180546001840180546001600160a01b0319163390811790915561ffff19909116610101179091558087526006808652938720429281019290925595889052939092526002909101549101819055600a546108b5926001600160a01b039091169161183a565b5f828152600760205260408120600201546108d4906032612710611935565b600a549091506108ee906001600160a01b0316338361183a565b5f838152600760205260409081902054905133916001600160a01b0316907f3731bfa366f2f012a082829d0d9094fb9decc7a9edb7eafe6822d1cbed23a67f90610940908790600190819042906126f9565b60405180910390a3505050565b60028160028111156109615761096161248b565b03610a17575f82815260076020526040812060058101805461ffff19166102031790556001810180546001600160a01b03191633179055600201546109aa906032612710611935565b600a549091506109c4906001600160a01b0316338361183a565b5f838152600760205260409081902054905133916001600160a01b0316907f3731bfa366f2f012a082829d0d9094fb9decc7a9edb7eafe6822d1cbed23a67f9061094090879060039060029042906126f9565b60405162461bcd60e51b815260206004820181905260248201527f496e737572616e63655661756c743a20496e76616c6964206465636973696f6e6044820152606401610797565b5050565b606060038054610a7290612729565b80601f0160208091040260200160405190810160405280929190818152602001828054610a9e90612729565b8015610ae95780601f10610ac057610100808354040283529160200191610ae9565b820191905f5260205f20905b815481529060010190602001808311610acc57829003601f168201915b5050505050905090565b5f610afe825f6119f4565b92915050565b5f33610b11818585611a2c565b5060019392505050565b5f610afe826001611a39565b60076020525f908152604090208054600182015460028301546003840180546001600160a01b039485169594909316939192610b6290612729565b80601f0160208091040260200160405190810160405280929190818152602001828054610b8e90612729565b8015610bd95780601f10610bb057610100808354040283529160200191610bd9565b820191905f5260205f20905b815481529060010190602001808311610bbc57829003601f168201915b50505050600483015460059093015491929160ff80821692506101009091041687565b335f818152600660205260409020546001600160a01b031614610c4f5760405162461bcd60e51b815260206004820152600b60248201526a4e4f5420434f4d50414e5960a81b6044820152606401610797565b335f908152600660205260409020546001600160a01b0316610c835760405162461bcd60e51b815260040161079790612761565b335f90815260066020526040902060030154620d2f0090610ca490426127bb565b1115610d3a57335f90815260066020819052604080832080546001600160a01b0319168155600181018490556002810184905560038101849055600480820185905560058201859055920192909255905162461bcd60e51b815261079791016020808252601c908201527f496e737572616e63655661756c743a205072656d69756d206c61746500000000604082015260600190565b600a54335f81815260066020526040902060020154610d65926001600160a01b031691903090611a68565b335f90815260066020526040902042600390910155565b5f33610d89858285611b6d565b610d94858585611bd5565b60019150505b9392505050565b5f6106d3817f00000000000000000000000000000000000000000000000000000000000000006127ce565b6001600160a01b038281165f908152600660205260409020541615610e465760405162461bcd60e51b815260206004820152602a60248201527f496e737572616e63655661756c743a20436f6d70616e7920616c7265616479206044820152691c9959da5cdd195c995960b21b6064820152608401610797565b5f8111610ebb5760405162461bcd60e51b815260206004820152603760248201527f496e737572616e63655661756c743a20496e737572656420616d6f756e74207360448201527f686f756c642062652067726561746572207468656e20300000000000000000006064820152608401610797565b5f610eca826064612710611935565b600a54909150610ee5906001600160a01b0316843084611a68565b6040805160e0810182526001600160a01b0394851680825260208083019586528284019485524260608401818152608085019182525f60a0860181815260c08701828152958252600694859052969020945185546001600160a01b0319169916989098178455955160018401559351600283015594516003820155925160048401555160058301559151910155565b5f5f195f610f81856117f0565b9050610f8f33858784611c32565b949350505050565b335f8181526006602052604081205490916001600160a01b0390911614610fee5760405162461bcd60e51b815260206004820152600b60248201526a4e4f5420434f4d50414e5960a81b6044820152606401610797565b335f908152600660205260409020546001600160a01b03166110225760405162461bcd60e51b815260040161079790612761565b335f90815260066020526040902060030154620d2f009061104390426127bb565b106110905760405162461bcd60e51b815260206004820181905260248201527f496e737572616e63655661756c743a205072656d69756d206e6f7420706169646044820152606401610797565b335f9081526006602052604090206004015462278d00906110b190426127bb565b116111195760405162461bcd60e51b815260206004820152603260248201527f496e737572616e63655661756c743a20436c61696d206e6f7420616c6c6f776560448201527119081a5b881b1bd8dada5b881c195c9a5bd960721b6064820152608401610797565b335f9081526006602052604090206005015462278d009061113a90426127bb565b116111a45760405162461bcd60e51b815260206004820152603460248201527f496e737572616e63655661756c743a20436c61696d206e6f7420616c6c6f776560448201527319081a5b8818dbdbdb191bdddb881c195c9a5bd960621b6064820152608401610797565b335f9081526006602052604090206001015482111561122b5760405162461bcd60e51b815260206004820152603f60248201527f496e737572616e63655661756c743a20436c61696d20616d6f756e742073686f60448201527f756c64206265206c657373207468656e20696e737572656420616d6f756e74006064820152608401610797565b6008546040805160e0810182523381525f6020808301828152838501888152606085018a815242608087015260a0860185905260c08601859052878552600790935294909220835181546001600160a01b03199081166001600160a01b03928316178355935160018301805490951691161790925592516002820155915190919060038201906112bb908261284d565b506080820151600482015560a082015160058201805460ff191660018360038111156112e9576112e961248b565b021790555060c082015160058201805461ff0019166101008360028111156113135761131361248b565b0217905550506008805491505f61132983612909565b9190505550336001600160a01b03167f594638e4878d3f8e84366051a5d81fe440e9d5d20a2dc24e94897dba00ccb6e08286864260405161136d9493929190612921565b60405180910390a29392505050565b5f5f195f61138985611741565b9050610f8f33858388611c32565b606060048054610a7290612729565b60015f8281526007602052604090206005015460ff1660038111156113cd576113cd61248b565b146114255760405162461bcd60e51b815260206004820152602260248201527f496e737572616e63655661756c743a20436c61696d206e6f7420766572696669604482015261195960f21b6064820152608401610797565b60025f82815260076020526040902060050154610100900460ff1660028111156114515761145161248b565b146114a85760405162461bcd60e51b815260206004820152602160248201527f496e737572616e63655661756c743a20436c61696d206e6f7420696e76616c696044820152601960fa1b6064820152608401610797565b5f818152600760205260409081902060058101805460ff1916600217905560010154905163f4add3b560e01b81526001600160a01b0391821660048201527f00000000000000000000000000000000000000000000000000000000000000009091169063f4add3b5906024015f604051808303815f87803b15801561152b575f80fd5b505af115801561153d573d5f803e3d5ffd5b5050505f82815260076020526040908190205490513392506001600160a01b03909116907f3731bfa366f2f012a082829d0d9094fb9decc7a9edb7eafe6822d1cbed23a67f90611595908590600290819042906126f9565b60405180910390a350565b5f33610b11818585611bd5565b6009546001600160a01b0316331461162d5760405162461bcd60e51b815260206004820152603a60248201527f496e737572616e63655661756c743a204f6e6c7920636f6e74726f6c6c65722060448201527f63616e207769746864726177206c6f636b6564206173736574730000000000006064820152608401610797565b5f81116116975760405162461bcd60e51b815260206004820152603260248201527f496e737572616e63655661756c743a2043616e6e6f74207769746864726177206044820152713020616d6f756e74206f6620746f6b656e7360701b6064820152608401610797565b6001600160a01b038216611736576040515f90339083908381818185875af1925050503d805f81146116e4576040519150601f19603f3d011682016040523d82523d5f602084013e6116e9565b606091505b50509050806117315760405162461bcd60e51b81526020600482015260146024820152732330b4b632b2103a379039b2b7321022ba3432b960611b6044820152606401610797565b505050565b610a5f82338361183a565b5f610afe8260016119f4565b5f80611758836117fb565b90508085111561178157828582604051633fa733bb60e21b8152600401610797939291906127e7565b5f61178b86610b1b565b905061179a3386868985611c89565b95945050505050565b5f806117ae8361181d565b9050808511156117d757828582604051632e52afbb60e21b8152600401610797939291906127e7565b5f6117e186610af3565b905061179a338686848a611c89565b5f610afe825f611a39565b6001600160a01b0381165f90815260208190526040812054610afe905f6119f4565b6001600160a01b0381165f90815260208190526040812054610afe565b604080516001600160a01b038481166024830152604480830185905283518084039091018152606490920183526020820180516001600160e01b031663a9059cbb60e01b17905291515f92839290871691611895919061294c565b5f604051808303815f865af19150503d805f81146118ce576040519150601f19603f3d011682016040523d82523d5f602084013e6118d3565b606091505b50915091508180156118fd5750805115806118fd5750808060200190518101906118fd91906126da565b61192e5760405162461bcd60e51b815260206004820152600260248201526114d560f21b6044820152606401610797565b5050505050565b5f838302815f1985870982811083820303915050805f036119695783828161195f5761195f612967565b0492505050610d9a565b8084116119895760405163227bc15360e01b815260040160405180910390fd5b5f848688095f868103871696879004966002600389028118808a02820302808a02820302808a02820302808a02820302808a02820302808a02909103029181900381900460010186841190950394909402919094039290920491909117919091029150509392505050565b5f610d9a611a0061064b565b611a0b90600161297b565b611a165f600a612a6e565b600254611a23919061297b565b85919085611db8565b6117318383836001611e05565b5f610d9a611a4882600a612a6e565b600254611a55919061297b565b611a5d61064b565b611a2390600161297b565b604080516001600160a01b0385811660248301528481166044830152606480830185905283518084039091018152608490920183526020820180516001600160e01b03166323b872dd60e01b17905291515f92839290881691611acb919061294c565b5f604051808303815f865af19150503d805f8114611b04576040519150601f19603f3d011682016040523d82523d5f602084013e611b09565b606091505b5091509150818015611b33575080511580611b33575080806020019051810190611b3391906126da565b611b655760405162461bcd60e51b815260206004820152600360248201526229aa2360e91b6044820152606401610797565b505050505050565b6001600160a01b038381165f908152600160209081526040808320938616835292905220545f198114611bcf5781811015611bc157828183604051637dc7a0d960e11b8152600401610797939291906127e7565b611bcf84848484035f611e05565b50505050565b6001600160a01b038316611bfe57604051634b637e8f60e11b81525f6004820152602401610797565b6001600160a01b038216611c275760405163ec442f0560e01b81525f6004820152602401610797565b611731838383611ed7565b611c3e84848484611fdd565b505060408051808201825260018082524260208084019182526001600160a01b03969096165f9081526005909652929094209051815460ff1916901515178155905192019190915550565b6001600160a01b0385165f9081526005602052604090205460ff161515600114611d045760405162461bcd60e51b815260206004820152602660248201527f496e737572616e63655661756c743a205573657220686173206e6f74206465706044820152651bdcda5d195960d21b6064820152608401610797565b6001600160a01b0385165f9081526005602052604090206001015462278d0090611d2e90426127bb565b11611dab5760405162461bcd60e51b815260206004820152604160248201527f496e737572616e63655661756c743a205573657220686173206e6f742064657060448201527f6f736974656420666f72206d6f7265207468656e2046495845445f504552494f6064820152601160fa1b608482015260a401610797565b61192e8585858585612061565b5f80611dc5868686611935565b9050611dd083612121565b8015611deb57505f8480611de657611de6612967565b868809115b1561179a57611dfb60018261297b565b9695505050505050565b6001600160a01b038416611e2e5760405163e602df0560e01b81525f6004820152602401610797565b6001600160a01b038316611e5757604051634a1406b160e11b81525f6004820152602401610797565b6001600160a01b038085165f9081526001602090815260408083209387168352929052208290558015611bcf57826001600160a01b0316846001600160a01b03167f8c5be1e5ebec7d5bd14f71427d1e84f3dd0314c0f7b2291e5b200ac8c7c3b92584604051611ec991815260200190565b60405180910390a350505050565b6001600160a01b038316611f01578060025f828254611ef6919061297b565b90915550611f5e9050565b6001600160a01b0383165f9081526020819052604090205481811015611f405783818360405163391434e360e21b8152600401610797939291906127e7565b6001600160a01b0384165f9081526020819052604090209082900390555b6001600160a01b038216611f7a57600280548290039055611f98565b6001600160a01b0382165f9081526020819052604090208054820190555b816001600160a01b0316836001600160a01b03167fddf252ad1be2c89b69c2b068fc378daa952ba7f163c4a11628f55a4df523b3ef8360405161094091815260200190565b6120097f000000000000000000000000000000000000000000000000000000000000000085308561214d565b61201383826121b4565b826001600160a01b0316846001600160a01b03167fdcbc1c05240f31ff3ad067ef1ee35ce4997762752e3a095284754544f4c709d78484604051611ec9929190918252602082015260400190565b826001600160a01b0316856001600160a01b03161461208557612085838683611b6d565b61208f83826121e8565b6120ba7f0000000000000000000000000000000000000000000000000000000000000000858461221c565b826001600160a01b0316846001600160a01b0316866001600160a01b03167ffbde797d201c681b91056529119e0b02407c7bb96a4a2c75c01fc9667232c8db8585604051612112929190918252602082015260400190565b60405180910390a45050505050565b5f60028260038111156121365761213661248b565b6121409190612a7c565b60ff166001149050919050565b6040516001600160a01b038481166024830152838116604483015260648201839052611bcf9186918216906323b872dd906084015b604051602081830303815290604052915060e01b6020820180516001600160e01b03838183161783525050505061224d565b6001600160a01b0382166121dd5760405163ec442f0560e01b81525f6004820152602401610797565b610a5f5f8383611ed7565b6001600160a01b03821661221157604051634b637e8f60e11b81525f6004820152602401610797565b610a5f825f83611ed7565b6040516001600160a01b0383811660248301526044820183905261173191859182169063a9059cbb90606401612182565b5f6122616001600160a01b038416836122ae565b905080515f1415801561228557508080602001905181019061228391906126da565b155b1561173157604051635274afe760e01b81526001600160a01b0384166004820152602401610797565b6060610d9a83835f845f80856001600160a01b031684866040516122d2919061294c565b5f6040518083038185875af1925050503d805f811461230c576040519150601f19603f3d011682016040523d82523d5f602084013e612311565b606091505b5091509150611dfb8683836060826123315761232c82612378565b610d9a565b815115801561234857506001600160a01b0384163b155b1561237157604051639996b31560e01b81526001600160a01b0385166004820152602401610797565b5080610d9a565b8051156123885780518082602001fd5b604051630a12f52160e11b815260040160405180910390fd5b5f80604083850312156123b2575f80fd5b823591506020830135600381106123c7575f80fd5b809150509250929050565b5f5b838110156123ec5781810151838201526020016123d4565b50505f910152565b5f815180845261240b8160208601602086016123d2565b601f01601f19169290920160200192915050565b602081525f610d9a60208301846123f4565b5f60208284031215612441575f80fd5b5035919050565b80356001600160a01b038116811461245e575f80fd5b919050565b5f8060408385031215612474575f80fd5b61247d83612448565b946020939093013593505050565b634e487b7160e01b5f52602160045260245ffd5b600481106124af576124af61248b565b9052565b600381106124af576124af61248b565b6001600160a01b038881168252871660208201526040810186905260e0606082018190525f906124f5908301876123f4565b905084608083015261250a60a083018561249f565b61251760c08301846124b3565b98975050505050505050565b5f805f60608486031215612535575f80fd5b61253e84612448565b925061254c60208501612448565b9150604084013590509250925092565b5f6020828403121561256c575f80fd5b610d9a82612448565b5f8060408385031215612586575f80fd5b8235915061259660208401612448565b90509250929050565b634e487b7160e01b5f52604160045260245ffd5b5f80604083850312156125c4575f80fd5b823567ffffffffffffffff808211156125db575f80fd5b818501915085601f8301126125ee575f80fd5b8135818111156126005761260061259f565b604051601f8201601f19908116603f011681019083821181831017156126285761262861259f565b81604052828152886020848701011115612640575f80fd5b826020860160208301375f602093820184015298969091013596505050505050565b5f805f60608486031215612674575f80fd5b8335925061268460208501612448565b915061269260408501612448565b90509250925092565b5f80604083850312156126ac575f80fd5b6126b583612448565b915061259660208401612448565b5f602082840312156126d3575f80fd5b5051919050565b5f602082840312156126ea575f80fd5b81518015158114610d9a575f80fd5b8481526080810161270d602083018661249f565b61271a60408301856124b3565b82606083015295945050505050565b600181811c9082168061273d57607f821691505b60208210810361275b57634e487b7160e01b5f52602260045260245ffd5b50919050565b60208082526026908201527f496e737572616e63655661756c743a20436f6d70616e79206e6f7420726567696040820152651cdd195c995960d21b606082015260800190565b634e487b7160e01b5f52601160045260245ffd5b81810381811115610afe57610afe6127a7565b60ff8181168382160190811115610afe57610afe6127a7565b6001600160a01b039390931683526020830191909152604082015260600190565b601f821115611731575f81815260208120601f850160051c8101602086101561282e5750805b601f850160051c820191505b81811015611b655782815560010161283a565b815167ffffffffffffffff8111156128675761286761259f565b61287b816128758454612729565b84612808565b602080601f8311600181146128ae575f84156128975750858301515b5f19600386901b1c1916600185901b178555611b65565b5f85815260208120601f198616915b828110156128dc578886015182559484019460019091019084016128bd565b50858210156128f957878501515f19600388901b60f8161c191681555b5050505050600190811b01905550565b5f6001820161291a5761291a6127a7565b5060010190565b848152608060208201525f61293960808301866123f4565b6040830194909452506060015292915050565b5f825161295d8184602087016123d2565b9190910192915050565b634e487b7160e01b5f52601260045260245ffd5b80820180821115610afe57610afe6127a7565b600181815b808511156129c857815f19048211156129ae576129ae6127a7565b808516156129bb57918102915b93841c9390800290612993565b509250929050565b5f826129de57506001610afe565b816129ea57505f610afe565b8160018114612a005760028114612a0a57612a26565b6001915050610afe565b60ff841115612a1b57612a1b6127a7565b50506001821b610afe565b5060208310610133831016604e8410600b8410161715612a49575081810a610afe565b612a53838361298e565b805f1904821115612a6657612a666127a7565b029392505050565b5f610d9a60ff8416836129d0565b5f60ff831680612a9a57634e487b7160e01b5f52601260045260245ffd5b8060ff8416069150509291505056fea2646970667358221220a0cdd753466718ace24b7c89c5452eb05b3ea53b8b4989f5404c6a8f98edf6da64736f6c63430008140033",
			"opcodes": "PUSH1 0xE0 PUSH1 0x40 MSTORE CALLVALUE DUP1 ISZERO PUSH3 0x10 JUMPI PUSH0 DUP1 REVERT JUMPDEST POP PUSH1 0x40 MLOAD PUSH3 0x2F10 CODESIZE SUB DUP1 PUSH3 0x2F10 DUP4 CODECOPY DUP2 ADD PUSH1 0x40 DUP2 SWAP1 MSTORE PUSH3 0x33 SWAP2 PUSH3 0x1FF JUMP JUMPDEST DUP2 PUSH1 0x40 MLOAD DUP1 PUSH1 0x40 ADD PUSH1 0x40 MSTORE DUP1 PUSH1 0x9 DUP2 MSTORE PUSH1 0x20 ADD PUSH9 0x47484F496E73757265 PUSH1 0xB8 SHL DUP2 MSTORE POP PUSH1 0x40 MLOAD DUP1 PUSH1 0x40 ADD PUSH1 0x40 MSTORE DUP1 PUSH1 0x5 DUP2 MSTORE PUSH1 0x20 ADD PUSH5 0x47484F2D49 PUSH1 0xD8 SHL DUP2 MSTORE POP DUP2 PUSH1 0x3 SWAP1 DUP2 PUSH3 0x85 SWAP2 SWAP1 PUSH3 0x2D5 JUMP JUMPDEST POP PUSH1 0x4 PUSH3 0x94 DUP3 DUP3 PUSH3 0x2D5 JUMP JUMPDEST POP POP POP PUSH0 DUP1 PUSH3 0xAA DUP4 PUSH3 0x104 PUSH1 0x20 SHL PUSH1 0x20 SHR JUMP JUMPDEST SWAP2 POP SWAP2 POP DUP2 PUSH3 0xBC JUMPI PUSH1 0x12 PUSH3 0xBE JUMP JUMPDEST DUP1 JUMPDEST PUSH1 0xFF AND PUSH1 0xA0 MSTORE POP POP PUSH1 0x1 PUSH1 0x1 PUSH1 0xA0 SHL SUB SWAP1 DUP2 AND PUSH1 0x80 MSTORE PUSH1 0x9 DUP1 SLOAD CALLER PUSH1 0x1 PUSH1 0x1 PUSH1 0xA0 SHL SUB NOT SWAP2 DUP3 AND OR SWAP1 SWAP2 SSTORE PUSH1 0xA DUP1 SLOAD SWAP1 SWAP2 AND SWAP4 DUP3 AND SWAP4 SWAP1 SWAP4 OR SWAP1 SWAP3 SSTORE AND PUSH1 0xC0 MSTORE PUSH3 0x3E3 JUMP JUMPDEST PUSH1 0x40 DUP1 MLOAD PUSH1 0x4 DUP2 MSTORE PUSH1 0x24 DUP2 ADD DUP3 MSTORE PUSH1 0x20 DUP2 ADD DUP1 MLOAD PUSH1 0x1 PUSH1 0x1 PUSH1 0xE0 SHL SUB AND PUSH4 0x313CE567 PUSH1 0xE0 SHL OR SWAP1 MSTORE SWAP1 MLOAD PUSH0 SWAP2 DUP3 SWAP2 DUP3 SWAP2 DUP3 SWAP2 PUSH1 0x1 PUSH1 0x1 PUSH1 0xA0 SHL SUB DUP8 AND SWAP2 PUSH3 0x14C SWAP2 PUSH3 0x39D JUMP JUMPDEST PUSH0 PUSH1 0x40 MLOAD DUP1 DUP4 SUB DUP2 DUP6 GAS STATICCALL SWAP2 POP POP RETURNDATASIZE DUP1 PUSH0 DUP2 EQ PUSH3 0x186 JUMPI PUSH1 0x40 MLOAD SWAP2 POP PUSH1 0x1F NOT PUSH1 0x3F RETURNDATASIZE ADD AND DUP3 ADD PUSH1 0x40 MSTORE RETURNDATASIZE DUP3 MSTORE RETURNDATASIZE PUSH0 PUSH1 0x20 DUP5 ADD RETURNDATACOPY PUSH3 0x18B JUMP JUMPDEST PUSH1 0x60 SWAP2 POP JUMPDEST POP SWAP2 POP SWAP2 POP DUP2 DUP1 ISZERO PUSH3 0x1A0 JUMPI POP PUSH1 0x20 DUP2 MLOAD LT ISZERO JUMPDEST ISZERO PUSH3 0x1D7 JUMPI PUSH0 DUP2 DUP1 PUSH1 0x20 ADD SWAP1 MLOAD DUP2 ADD SWAP1 PUSH3 0x1BD SWAP2 SWAP1 PUSH3 0x3CB JUMP JUMPDEST SWAP1 POP PUSH1 0xFF DUP2 GT PUSH3 0x1D5 JUMPI PUSH1 0x1 SWAP7 SWAP1 SWAP6 POP SWAP4 POP POP POP POP JUMP JUMPDEST POP JUMPDEST POP PUSH0 SWAP5 DUP6 SWAP5 POP SWAP3 POP POP POP JUMP JUMPDEST DUP1 MLOAD PUSH1 0x1 PUSH1 0x1 PUSH1 0xA0 SHL SUB DUP2 AND DUP2 EQ PUSH3 0x1FA JUMPI PUSH0 DUP1 REVERT JUMPDEST SWAP2 SWAP1 POP JUMP JUMPDEST PUSH0 DUP1 PUSH1 0x40 DUP4 DUP6 SUB SLT ISZERO PUSH3 0x211 JUMPI PUSH0 DUP1 REVERT JUMPDEST PUSH3 0x21C DUP4 PUSH3 0x1E3 JUMP JUMPDEST SWAP2 POP PUSH3 0x22C PUSH1 0x20 DUP5 ADD PUSH3 0x1E3 JUMP JUMPDEST SWAP1 POP SWAP3 POP SWAP3 SWAP1 POP JUMP JUMPDEST PUSH4 0x4E487B71 PUSH1 0xE0 SHL PUSH0 MSTORE PUSH1 0x41 PUSH1 0x4 MSTORE PUSH1 0x24 PUSH0 REVERT JUMPDEST PUSH1 0x1 DUP2 DUP2 SHR SWAP1 DUP3 AND DUP1 PUSH3 0x25E JUMPI PUSH1 0x7F DUP3 AND SWAP2 POP JUMPDEST PUSH1 0x20 DUP3 LT DUP2 SUB PUSH3 0x27D JUMPI PUSH4 0x4E487B71 PUSH1 0xE0 SHL PUSH0 MSTORE PUSH1 0x22 PUSH1 0x4 MSTORE PUSH1 0x24 PUSH0 REVERT JUMPDEST POP SWAP2 SWAP1 POP JUMP JUMPDEST PUSH1 0x1F DUP3 GT ISZERO PUSH3 0x2D0 JUMPI PUSH0 DUP2 DUP2 MSTORE PUSH1 0x20 DUP2 KECCAK256 PUSH1 0x1F DUP6 ADD PUSH1 0x5 SHR DUP2 ADD PUSH1 0x20 DUP7 LT ISZERO PUSH3 0x2AB JUMPI POP DUP1 JUMPDEST PUSH1 0x1F DUP6 ADD PUSH1 0x5 SHR DUP3 ADD SWAP2 POP JUMPDEST DUP2 DUP2 LT ISZERO PUSH3 0x2CC JUMPI DUP3 DUP2 SSTORE PUSH1 0x1 ADD PUSH3 0x2B7 JUMP JUMPDEST POP POP POP JUMPDEST POP POP POP JUMP JUMPDEST DUP2 MLOAD PUSH1 0x1 PUSH1 0x1 PUSH1 0x40 SHL SUB DUP2 GT ISZERO PUSH3 0x2F1 JUMPI PUSH3 0x2F1 PUSH3 0x235 JUMP JUMPDEST PUSH3 0x309 DUP2 PUSH3 0x302 DUP5 SLOAD PUSH3 0x249 JUMP JUMPDEST DUP5 PUSH3 0x283 JUMP JUMPDEST PUSH1 0x20 DUP1 PUSH1 0x1F DUP4 GT PUSH1 0x1 DUP2 EQ PUSH3 0x33F JUMPI PUSH0 DUP5 ISZERO PUSH3 0x327 JUMPI POP DUP6 DUP4 ADD MLOAD JUMPDEST PUSH0 NOT PUSH1 0x3 DUP7 SWAP1 SHL SHR NOT AND PUSH1 0x1 DUP6 SWAP1 SHL OR DUP6 SSTORE PUSH3 0x2CC JUMP JUMPDEST PUSH0 DUP6 DUP2 MSTORE PUSH1 0x20 DUP2 KECCAK256 PUSH1 0x1F NOT DUP7 AND SWAP2 JUMPDEST DUP3 DUP2 LT ISZERO PUSH3 0x36F JUMPI DUP9 DUP7 ADD MLOAD DUP3 SSTORE SWAP5 DUP5 ADD SWAP5 PUSH1 0x1 SWAP1 SWAP2 ADD SWAP1 DUP5 ADD PUSH3 0x34E JUMP JUMPDEST POP DUP6 DUP3 LT ISZERO PUSH3 0x38D JUMPI DUP8 DUP6 ADD MLOAD PUSH0 NOT PUSH1 0x3 DUP9 SWAP1 SHL PUSH1 0xF8 AND SHR NOT AND DUP2 SSTORE JUMPDEST POP POP POP POP POP PUSH1 0x1 SWAP1 DUP2 SHL ADD SWAP1 SSTORE POP JUMP JUMPDEST PUSH0 DUP3 MLOAD PUSH0 JUMPDEST DUP2 DUP2 LT ISZERO PUSH3 0x3BE JUMPI PUSH1 0x20 DUP2 DUP7 ADD DUP2 ADD MLOAD DUP6 DUP4 ADD MSTORE ADD PUSH3 0x3A2 JUMP JUMPDEST POP PUSH0 SWAP3 ADD SWAP2 DUP3 MSTORE POP SWAP2 SWAP1 POP JUMP JUMPDEST PUSH0 PUSH1 0x20 DUP3 DUP5 SUB SLT ISZERO PUSH3 0x3DC JUMPI PUSH0 DUP1 REVERT JUMPDEST POP MLOAD SWAP2 SWAP1 POP JUMP JUMPDEST PUSH1 0x80 MLOAD PUSH1 0xA0 MLOAD PUSH1 0xC0 MLOAD PUSH2 0x2ADF PUSH3 0x431 PUSH0 CODECOPY PUSH0 DUP2 DUP2 PUSH2 0x3CD ADD MSTORE DUP2 DUP2 PUSH2 0x6ED ADD MSTORE PUSH2 0x14E8 ADD MSTORE PUSH0 PUSH2 0xDA8 ADD MSTORE PUSH0 DUP2 DUP2 PUSH2 0x37C ADD MSTORE DUP2 DUP2 PUSH2 0x662 ADD MSTORE DUP2 DUP2 PUSH2 0x1FE2 ADD MSTORE PUSH2 0x2094 ADD MSTORE PUSH2 0x2ADF PUSH0 RETURN INVALID PUSH1 0x80 PUSH1 0x40 MSTORE CALLVALUE DUP1 ISZERO PUSH2 0xF JUMPI PUSH0 DUP1 REVERT JUMPDEST POP PUSH1 0x4 CALLDATASIZE LT PUSH2 0x260 JUMPI PUSH0 CALLDATALOAD PUSH1 0xE0 SHR DUP1 PUSH4 0x6E99D52F GT PUSH2 0x14B JUMPI DUP1 PUSH4 0xB460AF94 GT PUSH2 0xBF JUMPI DUP1 PUSH4 0xCE96CB77 GT PUSH2 0x84 JUMPI DUP1 PUSH4 0xCE96CB77 EQ PUSH2 0x597 JUMPI DUP1 PUSH4 0xD905777E EQ PUSH2 0x5AA JUMPI DUP1 PUSH4 0xDD62ED3E EQ PUSH2 0x5BD JUMPI DUP1 PUSH4 0xEF8B30F7 EQ PUSH2 0x584 JUMPI DUP1 PUSH4 0xF08EC66E EQ PUSH2 0x5F5 JUMPI DUP1 PUSH4 0xF77C4791 EQ PUSH2 0x638 JUMPI PUSH0 DUP1 REVERT JUMPDEST DUP1 PUSH4 0xB460AF94 EQ PUSH2 0x55E JUMPI DUP1 PUSH4 0xBA087652 EQ PUSH2 0x571 JUMPI DUP1 PUSH4 0xC403BC9B EQ PUSH2 0x320 JUMPI DUP1 PUSH4 0xC63D75B6 EQ PUSH2 0x3B4 JUMPI DUP1 PUSH4 0xC6E6F592 EQ PUSH2 0x584 JUMPI PUSH0 DUP1 REVERT JUMPDEST DUP1 PUSH4 0x95D89B41 GT PUSH2 0x110 JUMPI DUP1 PUSH4 0x95D89B41 EQ PUSH2 0x476 JUMPI DUP1 PUSH4 0x9C1A6A07 EQ PUSH2 0x47E JUMPI DUP1 PUSH4 0xA5C1674E EQ PUSH2 0x512 JUMPI DUP1 PUSH4 0xA9059CBB EQ PUSH2 0x525 JUMPI DUP1 PUSH4 0xADE8323F EQ PUSH2 0x538 JUMPI DUP1 PUSH4 0xB3D7F6B9 EQ PUSH2 0x54B JUMPI PUSH0 DUP1 REVERT JUMPDEST DUP1 PUSH4 0x6E99D52F EQ PUSH2 0x320 JUMPI DUP1 PUSH4 0x70A08231 EQ PUSH2 0x41F JUMPI DUP1 PUSH4 0x71498AE9 EQ PUSH2 0x447 JUMPI DUP1 PUSH4 0x944866EC EQ PUSH2 0x450 JUMPI DUP1 PUSH4 0x94BF804D EQ PUSH2 0x463 JUMPI PUSH0 DUP1 REVERT JUMPDEST DUP1 PUSH4 0x226DF934 GT PUSH2 0x1E2 JUMPI DUP1 PUSH4 0x402D267D GT PUSH2 0x1A7 JUMPI DUP1 PUSH4 0x402D267D EQ PUSH2 0x3B4 JUMPI DUP1 PUSH4 0x4CDAD506 EQ PUSH2 0x2A9 JUMPI DUP1 PUSH4 0x4CF088D9 EQ PUSH2 0x3C8 JUMPI DUP1 PUSH4 0x5996DB91 EQ PUSH2 0x3EF JUMPI DUP1 PUSH4 0x6BAB30B7 EQ PUSH2 0x402 JUMPI DUP1 PUSH4 0x6E553F65 EQ PUSH2 0x40C JUMPI PUSH0 DUP1 REVERT JUMPDEST DUP1 PUSH4 0x226DF934 EQ PUSH2 0x332 JUMPI DUP1 PUSH4 0x23B872DD EQ PUSH2 0x33A JUMPI DUP1 PUSH4 0x313CE567 EQ PUSH2 0x34D JUMPI DUP1 PUSH4 0x33AC473B EQ PUSH2 0x367 JUMPI DUP1 PUSH4 0x38D52E0F EQ PUSH2 0x37A JUMPI PUSH0 DUP1 REVERT JUMPDEST DUP1 PUSH4 0xA28A477 GT PUSH2 0x228 JUMPI DUP1 PUSH4 0xA28A477 EQ PUSH2 0x2DF JUMPI DUP1 PUSH4 0x147C21DE EQ PUSH2 0x2F2 JUMPI DUP1 PUSH4 0x18160DDD EQ PUSH2 0x318 JUMPI DUP1 PUSH4 0x1BE59C60 EQ PUSH2 0x320 JUMPI DUP1 PUSH4 0x1CB27BA4 EQ PUSH2 0x32A JUMPI PUSH0 DUP1 REVERT JUMPDEST DUP1 PUSH4 0x1E1D114 EQ PUSH2 0x264 JUMPI DUP1 PUSH4 0x6092072 EQ PUSH2 0x27F JUMPI DUP1 PUSH4 0x6FDDE03 EQ PUSH2 0x294 JUMPI DUP1 PUSH4 0x7A2D13A EQ PUSH2 0x2A9 JUMPI DUP1 PUSH4 0x95EA7B3 EQ PUSH2 0x2BC JUMPI JUMPDEST PUSH0 DUP1 REVERT JUMPDEST PUSH2 0x26C PUSH2 0x64B JUMP JUMPDEST PUSH1 0x40 MLOAD SWAP1 DUP2 MSTORE PUSH1 0x20 ADD JUMPDEST PUSH1 0x40 MLOAD DUP1 SWAP2 SUB SWAP1 RETURN JUMPDEST PUSH2 0x292 PUSH2 0x28D CALLDATASIZE PUSH1 0x4 PUSH2 0x23A1 JUMP JUMPDEST PUSH2 0x6D8 JUMP JUMPDEST STOP JUMPDEST PUSH2 0x29C PUSH2 0xA63 JUMP JUMPDEST PUSH1 0x40 MLOAD PUSH2 0x276 SWAP2 SWAP1 PUSH2 0x241F JUMP JUMPDEST PUSH2 0x26C PUSH2 0x2B7 CALLDATASIZE PUSH1 0x4 PUSH2 0x2431 JUMP JUMPDEST PUSH2 0xAF3 JUMP JUMPDEST PUSH2 0x2CF PUSH2 0x2CA CALLDATASIZE PUSH1 0x4 PUSH2 0x2463 JUMP JUMPDEST PUSH2 0xB04 JUMP JUMPDEST PUSH1 0x40 MLOAD SWAP1 ISZERO ISZERO DUP2 MSTORE PUSH1 0x20 ADD PUSH2 0x276 JUMP JUMPDEST PUSH2 0x26C PUSH2 0x2ED CALLDATASIZE PUSH1 0x4 PUSH2 0x2431 JUMP JUMPDEST PUSH2 0xB1B JUMP JUMPDEST PUSH2 0x305 PUSH2 0x300 CALLDATASIZE PUSH1 0x4 PUSH2 0x2431 JUMP JUMPDEST PUSH2 0xB27 JUMP JUMPDEST PUSH1 0x40 MLOAD PUSH2 0x276 SWAP8 SWAP7 SWAP6 SWAP5 SWAP4 SWAP3 SWAP2 SWAP1 PUSH2 0x24C3 JUMP JUMPDEST PUSH1 0x2 SLOAD PUSH2 0x26C JUMP JUMPDEST PUSH2 0x26C PUSH3 0x278D00 DUP2 JUMP JUMPDEST PUSH2 0x26C PUSH1 0x64 DUP2 JUMP JUMPDEST PUSH2 0x292 PUSH2 0xBFC JUMP JUMPDEST PUSH2 0x2CF PUSH2 0x348 CALLDATASIZE PUSH1 0x4 PUSH2 0x2523 JUMP JUMPDEST PUSH2 0xD7C JUMP JUMPDEST PUSH2 0x355 PUSH2 0xDA1 JUMP JUMPDEST PUSH1 0x40 MLOAD PUSH1 0xFF SWAP1 SWAP2 AND DUP2 MSTORE PUSH1 0x20 ADD PUSH2 0x276 JUMP JUMPDEST PUSH2 0x292 PUSH2 0x375 CALLDATASIZE PUSH1 0x4 PUSH2 0x2463 JUMP JUMPDEST PUSH2 0xDCC JUMP JUMPDEST PUSH32 0x0 JUMPDEST PUSH1 0x40 MLOAD PUSH1 0x1 PUSH1 0x1 PUSH1 0xA0 SHL SUB SWAP1 SWAP2 AND DUP2 MSTORE PUSH1 0x20 ADD PUSH2 0x276 JUMP JUMPDEST PUSH2 0x26C PUSH2 0x3C2 CALLDATASIZE PUSH1 0x4 PUSH2 0x255C JUMP JUMPDEST POP PUSH0 NOT SWAP1 JUMP JUMPDEST PUSH2 0x39C PUSH32 0x0 DUP2 JUMP JUMPDEST PUSH1 0xA SLOAD PUSH2 0x39C SWAP1 PUSH1 0x1 PUSH1 0x1 PUSH1 0xA0 SHL SUB AND DUP2 JUMP JUMPDEST PUSH2 0x26C PUSH3 0xD2F00 DUP2 JUMP JUMPDEST PUSH2 0x26C PUSH2 0x41A CALLDATASIZE PUSH1 0x4 PUSH2 0x2575 JUMP JUMPDEST PUSH2 0xF74 JUMP JUMPDEST PUSH2 0x26C PUSH2 0x42D CALLDATASIZE PUSH1 0x4 PUSH2 0x255C JUMP JUMPDEST PUSH1 0x1 PUSH1 0x1 PUSH1 0xA0 SHL SUB AND PUSH0 SWAP1 DUP2 MSTORE PUSH1 0x20 DUP2 SWAP1 MSTORE PUSH1 0x40 SWAP1 KECCAK256 SLOAD SWAP1 JUMP JUMPDEST PUSH2 0x26C PUSH1 0x8 SLOAD DUP2 JUMP JUMPDEST PUSH2 0x26C PUSH2 0x45E CALLDATASIZE PUSH1 0x4 PUSH2 0x25B3 JUMP JUMPDEST PUSH2 0xF97 JUMP JUMPDEST PUSH2 0x26C PUSH2 0x471 CALLDATASIZE PUSH1 0x4 PUSH2 0x2575 JUMP JUMPDEST PUSH2 0x137C JUMP JUMPDEST PUSH2 0x29C PUSH2 0x1397 JUMP JUMPDEST PUSH2 0x4D3 PUSH2 0x48C CALLDATASIZE PUSH1 0x4 PUSH2 0x255C JUMP JUMPDEST PUSH1 0x6 PUSH1 0x20 DUP2 SWAP1 MSTORE PUSH0 SWAP2 DUP3 MSTORE PUSH1 0x40 SWAP1 SWAP2 KECCAK256 DUP1 SLOAD PUSH1 0x1 DUP3 ADD SLOAD PUSH1 0x2 DUP4 ADD SLOAD PUSH1 0x3 DUP5 ADD SLOAD PUSH1 0x4 DUP6 ADD SLOAD PUSH1 0x5 DUP7 ADD SLOAD SWAP6 SWAP1 SWAP7 ADD SLOAD PUSH1 0x1 PUSH1 0x1 PUSH1 0xA0 SHL SUB SWAP1 SWAP5 AND SWAP6 SWAP3 SWAP5 SWAP2 SWAP4 SWAP1 SWAP3 SWAP2 SWAP1 DUP8 JUMP JUMPDEST PUSH1 0x40 DUP1 MLOAD PUSH1 0x1 PUSH1 0x1 PUSH1 0xA0 SHL SUB SWAP1 SWAP9 AND DUP9 MSTORE PUSH1 0x20 DUP9 ADD SWAP7 SWAP1 SWAP7 MSTORE SWAP5 DUP7 ADD SWAP4 SWAP1 SWAP4 MSTORE PUSH1 0x60 DUP6 ADD SWAP2 SWAP1 SWAP2 MSTORE PUSH1 0x80 DUP5 ADD MSTORE PUSH1 0xA0 DUP4 ADD MSTORE PUSH1 0xC0 DUP3 ADD MSTORE PUSH1 0xE0 ADD PUSH2 0x276 JUMP JUMPDEST PUSH2 0x292 PUSH2 0x520 CALLDATASIZE PUSH1 0x4 PUSH2 0x2431 JUMP JUMPDEST PUSH2 0x13A6 JUMP JUMPDEST PUSH2 0x2CF PUSH2 0x533 CALLDATASIZE PUSH1 0x4 PUSH2 0x2463 JUMP JUMPDEST PUSH2 0x15A0 JUMP JUMPDEST PUSH2 0x292 PUSH2 0x546 CALLDATASIZE PUSH1 0x4 PUSH2 0x2463 JUMP JUMPDEST PUSH2 0x15AD JUMP JUMPDEST PUSH2 0x26C PUSH2 0x559 CALLDATASIZE PUSH1 0x4 PUSH2 0x2431 JUMP JUMPDEST PUSH2 0x1741 JUMP JUMPDEST PUSH2 0x26C PUSH2 0x56C CALLDATASIZE PUSH1 0x4 PUSH2 0x2662 JUMP JUMPDEST PUSH2 0x174D JUMP JUMPDEST PUSH2 0x26C PUSH2 0x57F CALLDATASIZE PUSH1 0x4 PUSH2 0x2662 JUMP JUMPDEST PUSH2 0x17A3 JUMP JUMPDEST PUSH2 0x26C PUSH2 0x592 CALLDATASIZE PUSH1 0x4 PUSH2 0x2431 JUMP JUMPDEST PUSH2 0x17F0 JUMP JUMPDEST PUSH2 0x26C PUSH2 0x5A5 CALLDATASIZE PUSH1 0x4 PUSH2 0x255C JUMP JUMPDEST PUSH2 0x17FB JUMP JUMPDEST PUSH2 0x26C PUSH2 0x5B8 CALLDATASIZE PUSH1 0x4 PUSH2 0x255C JUMP JUMPDEST PUSH2 0x181D JUMP JUMPDEST PUSH2 0x26C PUSH2 0x5CB CALLDATASIZE PUSH1 0x4 PUSH2 0x269B JUMP JUMPDEST PUSH1 0x1 PUSH1 0x1 PUSH1 0xA0 SHL SUB SWAP2 DUP3 AND PUSH0 SWAP1 DUP2 MSTORE PUSH1 0x1 PUSH1 0x20 SWAP1 DUP2 MSTORE PUSH1 0x40 DUP1 DUP4 KECCAK256 SWAP4 SWAP1 SWAP5 AND DUP3 MSTORE SWAP2 SWAP1 SWAP2 MSTORE KECCAK256 SLOAD SWAP1 JUMP JUMPDEST PUSH2 0x621 PUSH2 0x603 CALLDATASIZE PUSH1 0x4 PUSH2 0x255C JUMP JUMPDEST PUSH1 0x5 PUSH1 0x20 MSTORE PUSH0 SWAP1 DUP2 MSTORE PUSH1 0x40 SWAP1 KECCAK256 DUP1 SLOAD PUSH1 0x1 SWAP1 SWAP2 ADD SLOAD PUSH1 0xFF SWAP1 SWAP2 AND SWAP1 DUP3 JUMP JUMPDEST PUSH1 0x40 DUP1 MLOAD SWAP3 ISZERO ISZERO DUP4 MSTORE PUSH1 0x20 DUP4 ADD SWAP2 SWAP1 SWAP2 MSTORE ADD PUSH2 0x276 JUMP JUMPDEST PUSH1 0x9 SLOAD PUSH2 0x39C SWAP1 PUSH1 0x1 PUSH1 0x1 PUSH1 0xA0 SHL SUB AND DUP2 JUMP JUMPDEST PUSH1 0x40 MLOAD PUSH4 0x70A08231 PUSH1 0xE0 SHL DUP2 MSTORE ADDRESS PUSH1 0x4 DUP3 ADD MSTORE PUSH0 SWAP1 PUSH32 0x0 PUSH1 0x1 PUSH1 0x1 PUSH1 0xA0 SHL SUB AND SWAP1 PUSH4 0x70A08231 SWAP1 PUSH1 0x24 ADD PUSH1 0x20 PUSH1 0x40 MLOAD DUP1 DUP4 SUB DUP2 DUP7 GAS STATICCALL ISZERO DUP1 ISZERO PUSH2 0x6AF JUMPI RETURNDATASIZE PUSH0 DUP1 RETURNDATACOPY RETURNDATASIZE PUSH0 REVERT JUMPDEST POP POP POP POP PUSH1 0x40 MLOAD RETURNDATASIZE PUSH1 0x1F NOT PUSH1 0x1F DUP3 ADD AND DUP3 ADD DUP1 PUSH1 0x40 MSTORE POP DUP2 ADD SWAP1 PUSH2 0x6D3 SWAP2 SWAP1 PUSH2 0x26C3 JUMP JUMPDEST SWAP1 POP SWAP1 JUMP JUMPDEST PUSH1 0x40 MLOAD PUSH4 0x6620A43 PUSH1 0xE3 SHL DUP2 MSTORE CALLER PUSH1 0x4 DUP3 ADD MSTORE PUSH32 0x0 PUSH1 0x1 PUSH1 0x1 PUSH1 0xA0 SHL SUB AND SWAP1 PUSH4 0x33105218 SWAP1 PUSH1 0x24 ADD PUSH1 0x20 PUSH1 0x40 MLOAD DUP1 DUP4 SUB DUP2 DUP7 GAS STATICCALL ISZERO DUP1 ISZERO PUSH2 0x73A JUMPI RETURNDATASIZE PUSH0 DUP1 RETURNDATACOPY RETURNDATASIZE PUSH0 REVERT JUMPDEST POP POP POP POP PUSH1 0x40 MLOAD RETURNDATASIZE PUSH1 0x1F NOT PUSH1 0x1F DUP3 ADD AND DUP3 ADD DUP1 PUSH1 0x40 MSTORE POP DUP2 ADD SWAP1 PUSH2 0x75E SWAP2 SWAP1 PUSH2 0x26DA JUMP JUMPDEST PUSH2 0x7A0 JUMPI PUSH1 0x40 MLOAD PUSH3 0x461BCD PUSH1 0xE5 SHL DUP2 MSTORE PUSH1 0x20 PUSH1 0x4 DUP3 ADD MSTORE PUSH1 0xE PUSH1 0x24 DUP3 ADD MSTORE PUSH14 0x2727AA1020902B22A924A324A2A9 PUSH1 0x91 SHL PUSH1 0x44 DUP3 ADD MSTORE PUSH1 0x64 ADD JUMPDEST PUSH1 0x40 MLOAD DUP1 SWAP2 SUB SWAP1 REVERT JUMPDEST PUSH0 DUP3 DUP2 MSTORE PUSH1 0x7 PUSH1 0x20 MSTORE PUSH1 0x40 DUP2 KECCAK256 PUSH1 0x5 ADD SLOAD PUSH1 0xFF AND PUSH1 0x3 DUP2 GT ISZERO PUSH2 0x7C5 JUMPI PUSH2 0x7C5 PUSH2 0x248B JUMP JUMPDEST EQ PUSH2 0x822 JUMPI PUSH1 0x40 MLOAD PUSH3 0x461BCD PUSH1 0xE5 SHL DUP2 MSTORE PUSH1 0x20 PUSH1 0x4 DUP3 ADD MSTORE PUSH1 0x27 PUSH1 0x24 DUP3 ADD MSTORE PUSH32 0x496E737572616E63655661756C743A20436C61696D20616C7265616479207072 PUSH1 0x44 DUP3 ADD MSTORE PUSH7 0x1BD8D95CDCD959 PUSH1 0xCA SHL PUSH1 0x64 DUP3 ADD MSTORE PUSH1 0x84 ADD PUSH2 0x797 JUMP JUMPDEST PUSH1 0x1 DUP2 PUSH1 0x2 DUP2 GT ISZERO PUSH2 0x836 JUMPI PUSH2 0x836 PUSH2 0x248B JUMP JUMPDEST SUB PUSH2 0x94D JUMPI PUSH0 DUP3 DUP2 MSTORE PUSH1 0x7 PUSH1 0x20 DUP2 DUP2 MSTORE PUSH1 0x40 DUP1 DUP5 KECCAK256 PUSH1 0x5 DUP1 DUP3 ADD DUP1 SLOAD PUSH1 0x1 DUP5 ADD DUP1 SLOAD PUSH1 0x1 PUSH1 0x1 PUSH1 0xA0 SHL SUB NOT AND CALLER SWAP1 DUP2 OR SWAP1 SWAP2 SSTORE PUSH2 0xFFFF NOT SWAP1 SWAP2 AND PUSH2 0x101 OR SWAP1 SWAP2 SSTORE DUP1 DUP8 MSTORE PUSH1 0x6 DUP1 DUP7 MSTORE SWAP4 DUP8 KECCAK256 TIMESTAMP SWAP3 DUP2 ADD SWAP3 SWAP1 SWAP3 SSTORE SWAP6 DUP9 SWAP1 MSTORE SWAP4 SWAP1 SWAP3 MSTORE PUSH1 0x2 SWAP1 SWAP2 ADD SLOAD SWAP2 ADD DUP2 SWAP1 SSTORE PUSH1 0xA SLOAD PUSH2 0x8B5 SWAP3 PUSH1 0x1 PUSH1 0x1 PUSH1 0xA0 SHL SUB SWAP1 SWAP2 AND SWAP2 PUSH2 0x183A JUMP JUMPDEST PUSH0 DUP3 DUP2 MSTORE PUSH1 0x7 PUSH1 0x20 MSTORE PUSH1 0x40 DUP2 KECCAK256 PUSH1 0x2 ADD SLOAD PUSH2 0x8D4 SWAP1 PUSH1 0x32 PUSH2 0x2710 PUSH2 0x1935 JUMP JUMPDEST PUSH1 0xA SLOAD SWAP1 SWAP2 POP PUSH2 0x8EE SWAP1 PUSH1 0x1 PUSH1 0x1 PUSH1 0xA0 SHL SUB AND CALLER DUP4 PUSH2 0x183A JUMP JUMPDEST PUSH0 DUP4 DUP2 MSTORE PUSH1 0x7 PUSH1 0x20 MSTORE PUSH1 0x40 SWAP1 DUP2 SWAP1 KECCAK256 SLOAD SWAP1 MLOAD CALLER SWAP2 PUSH1 0x1 PUSH1 0x1 PUSH1 0xA0 SHL SUB AND SWAP1 PUSH32 0x3731BFA366F2F012A082829D0D9094FB9DECC7A9EDB7EAFE6822D1CBED23A67F SWAP1 PUSH2 0x940 SWAP1 DUP8 SWAP1 PUSH1 0x1 SWAP1 DUP2 SWAP1 TIMESTAMP SWAP1 PUSH2 0x26F9 JUMP JUMPDEST PUSH1 0x40 MLOAD DUP1 SWAP2 SUB SWAP1 LOG3 POP POP POP JUMP JUMPDEST PUSH1 0x2 DUP2 PUSH1 0x2 DUP2 GT ISZERO PUSH2 0x961 JUMPI PUSH2 0x961 PUSH2 0x248B JUMP JUMPDEST SUB PUSH2 0xA17 JUMPI PUSH0 DUP3 DUP2 MSTORE PUSH1 0x7 PUSH1 0x20 MSTORE PUSH1 0x40 DUP2 KECCAK256 PUSH1 0x5 DUP2 ADD DUP1 SLOAD PUSH2 0xFFFF NOT AND PUSH2 0x203 OR SWAP1 SSTORE PUSH1 0x1 DUP2 ADD DUP1 SLOAD PUSH1 0x1 PUSH1 0x1 PUSH1 0xA0 SHL SUB NOT AND CALLER OR SWAP1 SSTORE PUSH1 0x2 ADD SLOAD PUSH2 0x9AA SWAP1 PUSH1 0x32 PUSH2 0x2710 PUSH2 0x1935 JUMP JUMPDEST PUSH1 0xA SLOAD SWAP1 SWAP2 POP PUSH2 0x9C4 SWAP1 PUSH1 0x1 PUSH1 0x1 PUSH1 0xA0 SHL SUB AND CALLER DUP4 PUSH2 0x183A JUMP JUMPDEST PUSH0 DUP4 DUP2 MSTORE PUSH1 0x7 PUSH1 0x20 MSTORE PUSH1 0x40 SWAP1 DUP2 SWAP1 KECCAK256 SLOAD SWAP1 MLOAD CALLER SWAP2 PUSH1 0x1 PUSH1 0x1 PUSH1 0xA0 SHL SUB AND SWAP1 PUSH32 0x3731BFA366F2F012A082829D0D9094FB9DECC7A9EDB7EAFE6822D1CBED23A67F SWAP1 PUSH2 0x940 SWAP1 DUP8 SWAP1 PUSH1 0x3 SWAP1 PUSH1 0x2 SWAP1 TIMESTAMP SWAP1 PUSH2 0x26F9 JUMP JUMPDEST PUSH1 0x40 MLOAD PUSH3 0x461BCD PUSH1 0xE5 SHL DUP2 MSTORE PUSH1 0x20 PUSH1 0x4 DUP3 ADD DUP2 SWAP1 MSTORE PUSH1 0x24 DUP3 ADD MSTORE PUSH32 0x496E737572616E63655661756C743A20496E76616C6964206465636973696F6E PUSH1 0x44 DUP3 ADD MSTORE PUSH1 0x64 ADD PUSH2 0x797 JUMP JUMPDEST POP POP JUMP JUMPDEST PUSH1 0x60 PUSH1 0x3 DUP1 SLOAD PUSH2 0xA72 SWAP1 PUSH2 0x2729 JUMP JUMPDEST DUP1 PUSH1 0x1F ADD PUSH1 0x20 DUP1 SWAP2 DIV MUL PUSH1 0x20 ADD PUSH1 0x40 MLOAD SWAP1 DUP2 ADD PUSH1 0x40 MSTORE DUP1 SWAP3 SWAP2 SWAP1 DUP2 DUP2 MSTORE PUSH1 0x20 ADD DUP3 DUP1 SLOAD PUSH2 0xA9E SWAP1 PUSH2 0x2729 JUMP JUMPDEST DUP1 ISZERO PUSH2 0xAE9 JUMPI DUP1 PUSH1 0x1F LT PUSH2 0xAC0 JUMPI PUSH2 0x100 DUP1 DUP4 SLOAD DIV MUL DUP4 MSTORE SWAP2 PUSH1 0x20 ADD SWAP2 PUSH2 0xAE9 JUMP JUMPDEST DUP3 ADD SWAP2 SWAP1 PUSH0 MSTORE PUSH1 0x20 PUSH0 KECCAK256 SWAP1 JUMPDEST DUP2 SLOAD DUP2 MSTORE SWAP1 PUSH1 0x1 ADD SWAP1 PUSH1 0x20 ADD DUP1 DUP4 GT PUSH2 0xACC JUMPI DUP3 SWAP1 SUB PUSH1 0x1F AND DUP3 ADD SWAP2 JUMPDEST POP POP POP POP POP SWAP1 POP SWAP1 JUMP JUMPDEST PUSH0 PUSH2 0xAFE DUP3 PUSH0 PUSH2 0x19F4 JUMP JUMPDEST SWAP3 SWAP2 POP POP JUMP JUMPDEST PUSH0 CALLER PUSH2 0xB11 DUP2 DUP6 DUP6 PUSH2 0x1A2C JUMP JUMPDEST POP PUSH1 0x1 SWAP4 SWAP3 POP POP POP JUMP JUMPDEST PUSH0 PUSH2 0xAFE DUP3 PUSH1 0x1 PUSH2 0x1A39 JUMP JUMPDEST PUSH1 0x7 PUSH1 0x20 MSTORE PUSH0 SWAP1 DUP2 MSTORE PUSH1 0x40 SWAP1 KECCAK256 DUP1 SLOAD PUSH1 0x1 DUP3 ADD SLOAD PUSH1 0x2 DUP4 ADD SLOAD PUSH1 0x3 DUP5 ADD DUP1 SLOAD PUSH1 0x1 PUSH1 0x1 PUSH1 0xA0 SHL SUB SWAP5 DUP6 AND SWAP6 SWAP5 SWAP1 SWAP4 AND SWAP4 SWAP2 SWAP3 PUSH2 0xB62 SWAP1 PUSH2 0x2729 JUMP JUMPDEST DUP1 PUSH1 0x1F ADD PUSH1 0x20 DUP1 SWAP2 DIV MUL PUSH1 0x20 ADD PUSH1 0x40 MLOAD SWAP1 DUP2 ADD PUSH1 0x40 MSTORE DUP1 SWAP3 SWAP2 SWAP1 DUP2 DUP2 MSTORE PUSH1 0x20 ADD DUP3 DUP1 SLOAD PUSH2 0xB8E SWAP1 PUSH2 0x2729 JUMP JUMPDEST DUP1 ISZERO PUSH2 0xBD9 JUMPI DUP1 PUSH1 0x1F LT PUSH2 0xBB0 JUMPI PUSH2 0x100 DUP1 DUP4 SLOAD DIV MUL DUP4 MSTORE SWAP2 PUSH1 0x20 ADD SWAP2 PUSH2 0xBD9 JUMP JUMPDEST DUP3 ADD SWAP2 SWAP1 PUSH0 MSTORE PUSH1 0x20 PUSH0 KECCAK256 SWAP1 JUMPDEST DUP2 SLOAD DUP2 MSTORE SWAP1 PUSH1 0x1 ADD SWAP1 PUSH1 0x20 ADD DUP1 DUP4 GT PUSH2 0xBBC JUMPI DUP3 SWAP1 SUB PUSH1 0x1F AND DUP3 ADD SWAP2 JUMPDEST POP POP POP POP PUSH1 0x4 DUP4 ADD SLOAD PUSH1 0x5 SWAP1 SWAP4 ADD SLOAD SWAP2 SWAP3 SWAP2 PUSH1 0xFF DUP1 DUP3 AND SWAP3 POP PUSH2 0x100 SWAP1 SWAP2 DIV AND DUP8 JUMP JUMPDEST CALLER PUSH0 DUP2 DUP2 MSTORE PUSH1 0x6 PUSH1 0x20 MSTORE PUSH1 0x40 SWAP1 KECCAK256 SLOAD PUSH1 0x1 PUSH1 0x1 PUSH1 0xA0 SHL SUB AND EQ PUSH2 0xC4F JUMPI PUSH1 0x40 MLOAD PUSH3 0x461BCD PUSH1 0xE5 SHL DUP2 MSTORE PUSH1 0x20 PUSH1 0x4 DUP3 ADD MSTORE PUSH1 0xB PUSH1 0x24 DUP3 ADD MSTORE PUSH11 0x4E4F5420434F4D50414E59 PUSH1 0xA8 SHL PUSH1 0x44 DUP3 ADD MSTORE PUSH1 0x64 ADD PUSH2 0x797 JUMP JUMPDEST CALLER PUSH0 SWAP1 DUP2 MSTORE PUSH1 0x6 PUSH1 0x20 MSTORE PUSH1 0x40 SWAP1 KECCAK256 SLOAD PUSH1 0x1 PUSH1 0x1 PUSH1 0xA0 SHL SUB AND PUSH2 0xC83 JUMPI PUSH1 0x40 MLOAD PUSH3 0x461BCD PUSH1 0xE5 SHL DUP2 MSTORE PUSH1 0x4 ADD PUSH2 0x797 SWAP1 PUSH2 0x2761 JUMP JUMPDEST CALLER PUSH0 SWAP1 DUP2 MSTORE PUSH1 0x6 PUSH1 0x20 MSTORE PUSH1 0x40 SWAP1 KECCAK256 PUSH1 0x3 ADD SLOAD PUSH3 0xD2F00 SWAP1 PUSH2 0xCA4 SWAP1 TIMESTAMP PUSH2 0x27BB JUMP JUMPDEST GT ISZERO PUSH2 0xD3A JUMPI CALLER PUSH0 SWAP1 DUP2 MSTORE PUSH1 0x6 PUSH1 0x20 DUP2 SWAP1 MSTORE PUSH1 0x40 DUP1 DUP4 KECCAK256 DUP1 SLOAD PUSH1 0x1 PUSH1 0x1 PUSH1 0xA0 SHL SUB NOT AND DUP2 SSTORE PUSH1 0x1 DUP2 ADD DUP5 SWAP1 SSTORE PUSH1 0x2 DUP2 ADD DUP5 SWAP1 SSTORE PUSH1 0x3 DUP2 ADD DUP5 SWAP1 SSTORE PUSH1 0x4 DUP1 DUP3 ADD DUP6 SWAP1 SSTORE PUSH1 0x5 DUP3 ADD DUP6 SWAP1 SSTORE SWAP3 ADD SWAP3 SWAP1 SWAP3 SSTORE SWAP1 MLOAD PUSH3 0x461BCD PUSH1 0xE5 SHL DUP2 MSTORE PUSH2 0x797 SWAP2 ADD PUSH1 0x20 DUP1 DUP3 MSTORE PUSH1 0x1C SWAP1 DUP3 ADD MSTORE PUSH32 0x496E737572616E63655661756C743A205072656D69756D206C61746500000000 PUSH1 0x40 DUP3 ADD MSTORE PUSH1 0x60 ADD SWAP1 JUMP JUMPDEST PUSH1 0xA SLOAD CALLER PUSH0 DUP2 DUP2 MSTORE PUSH1 0x6 PUSH1 0x20 MSTORE PUSH1 0x40 SWAP1 KECCAK256 PUSH1 0x2 ADD SLOAD PUSH2 0xD65 SWAP3 PUSH1 0x1 PUSH1 0x1 PUSH1 0xA0 SHL SUB AND SWAP2 SWAP1 ADDRESS SWAP1 PUSH2 0x1A68 JUMP JUMPDEST CALLER PUSH0 SWAP1 DUP2 MSTORE PUSH1 0x6 PUSH1 0x20 MSTORE PUSH1 0x40 SWAP1 KECCAK256 TIMESTAMP PUSH1 0x3 SWAP1 SWAP2 ADD SSTORE JUMP JUMPDEST PUSH0 CALLER PUSH2 0xD89 DUP6 DUP3 DUP6 PUSH2 0x1B6D JUMP JUMPDEST PUSH2 0xD94 DUP6 DUP6 DUP6 PUSH2 0x1BD5 JUMP JUMPDEST PUSH1 0x1 SWAP2 POP POP JUMPDEST SWAP4 SWAP3 POP POP POP JUMP JUMPDEST PUSH0 PUSH2 0x6D3 DUP2 PUSH32 0x0 PUSH2 0x27CE JUMP JUMPDEST PUSH1 0x1 PUSH1 0x1 PUSH1 0xA0 SHL SUB DUP3 DUP2 AND PUSH0 SWAP1 DUP2 MSTORE PUSH1 0x6 PUSH1 0x20 MSTORE PUSH1 0x40 SWAP1 KECCAK256 SLOAD AND ISZERO PUSH2 0xE46 JUMPI PUSH1 0x40 MLOAD PUSH3 0x461BCD PUSH1 0xE5 SHL DUP2 MSTORE PUSH1 0x20 PUSH1 0x4 DUP3 ADD MSTORE PUSH1 0x2A PUSH1 0x24 DUP3 ADD MSTORE PUSH32 0x496E737572616E63655661756C743A20436F6D70616E7920616C726561647920 PUSH1 0x44 DUP3 ADD MSTORE PUSH10 0x1C9959DA5CDD195C9959 PUSH1 0xB2 SHL PUSH1 0x64 DUP3 ADD MSTORE PUSH1 0x84 ADD PUSH2 0x797 JUMP JUMPDEST PUSH0 DUP2 GT PUSH2 0xEBB JUMPI PUSH1 0x40 MLOAD PUSH3 0x461BCD PUSH1 0xE5 SHL DUP2 MSTORE PUSH1 0x20 PUSH1 0x4 DUP3 ADD MSTORE PUSH1 0x37 PUSH1 0x24 DUP3 ADD MSTORE PUSH32 0x496E737572616E63655661756C743A20496E737572656420616D6F756E742073 PUSH1 0x44 DUP3 ADD MSTORE PUSH32 0x686F756C642062652067726561746572207468656E2030000000000000000000 PUSH1 0x64 DUP3 ADD MSTORE PUSH1 0x84 ADD PUSH2 0x797 JUMP JUMPDEST PUSH0 PUSH2 0xECA DUP3 PUSH1 0x64 PUSH2 0x2710 PUSH2 0x1935 JUMP JUMPDEST PUSH1 0xA SLOAD SWAP1 SWAP2 POP PUSH2 0xEE5 SWAP1 PUSH1 0x1 PUSH1 0x1 PUSH1 0xA0 SHL SUB AND DUP5 ADDRESS DUP5 PUSH2 0x1A68 JUMP JUMPDEST PUSH1 0x40 DUP1 MLOAD PUSH1 0xE0 DUP2 ADD DUP3 MSTORE PUSH1 0x1 PUSH1 0x1 PUSH1 0xA0 SHL SUB SWAP5 DUP6 AND DUP1 DUP3 MSTORE PUSH1 0x20 DUP1 DUP4 ADD SWAP6 DUP7 MSTORE DUP3 DUP5 ADD SWAP5 DUP6 MSTORE TIMESTAMP PUSH1 0x60 DUP5 ADD DUP2 DUP2 MSTORE PUSH1 0x80 DUP6 ADD SWAP2 DUP3 MSTORE PUSH0 PUSH1 0xA0 DUP7 ADD DUP2 DUP2 MSTORE PUSH1 0xC0 DUP8 ADD DUP3 DUP2 MSTORE SWAP6 DUP3 MSTORE PUSH1 0x6 SWAP5 DUP6 SWAP1 MSTORE SWAP7 SWAP1 KECCAK256 SWAP5 MLOAD DUP6 SLOAD PUSH1 0x1 PUSH1 0x1 PUSH1 0xA0 SHL SUB NOT AND SWAP10 AND SWAP9 SWAP1 SWAP9 OR DUP5 SSTORE SWAP6 MLOAD PUSH1 0x1 DUP5 ADD SSTORE SWAP4 MLOAD PUSH1 0x2 DUP4 ADD SSTORE SWAP5 MLOAD PUSH1 0x3 DUP3 ADD SSTORE SWAP3 MLOAD PUSH1 0x4 DUP5 ADD SSTORE MLOAD PUSH1 0x5 DUP4 ADD SSTORE SWAP2 MLOAD SWAP2 ADD SSTORE JUMP JUMPDEST PUSH0 PUSH0 NOT PUSH0 PUSH2 0xF81 DUP6 PUSH2 0x17F0 JUMP JUMPDEST SWAP1 POP PUSH2 0xF8F CALLER DUP6 DUP8 DUP5 PUSH2 0x1C32 JUMP JUMPDEST SWAP5 SWAP4 POP POP POP POP JUMP JUMPDEST CALLER PUSH0 DUP2 DUP2 MSTORE PUSH1 0x6 PUSH1 0x20 MSTORE PUSH1 0x40 DUP2 KECCAK256 SLOAD SWAP1 SWAP2 PUSH1 0x1 PUSH1 0x1 PUSH1 0xA0 SHL SUB SWAP1 SWAP2 AND EQ PUSH2 0xFEE JUMPI PUSH1 0x40 MLOAD PUSH3 0x461BCD PUSH1 0xE5 SHL DUP2 MSTORE PUSH1 0x20 PUSH1 0x4 DUP3 ADD MSTORE PUSH1 0xB PUSH1 0x24 DUP3 ADD MSTORE PUSH11 0x4E4F5420434F4D50414E59 PUSH1 0xA8 SHL PUSH1 0x44 DUP3 ADD MSTORE PUSH1 0x64 ADD PUSH2 0x797 JUMP JUMPDEST CALLER PUSH0 SWAP1 DUP2 MSTORE PUSH1 0x6 PUSH1 0x20 MSTORE PUSH1 0x40 SWAP1 KECCAK256 SLOAD PUSH1 0x1 PUSH1 0x1 PUSH1 0xA0 SHL SUB AND PUSH2 0x1022 JUMPI PUSH1 0x40 MLOAD PUSH3 0x461BCD PUSH1 0xE5 SHL DUP2 MSTORE PUSH1 0x4 ADD PUSH2 0x797 SWAP1 PUSH2 0x2761 JUMP JUMPDEST CALLER PUSH0 SWAP1 DUP2 MSTORE PUSH1 0x6 PUSH1 0x20 MSTORE PUSH1 0x40 SWAP1 KECCAK256 PUSH1 0x3 ADD SLOAD PUSH3 0xD2F00 SWAP1 PUSH2 0x1043 SWAP1 TIMESTAMP PUSH2 0x27BB JUMP JUMPDEST LT PUSH2 0x1090 JUMPI PUSH1 0x40 MLOAD PUSH3 0x461BCD PUSH1 0xE5 SHL DUP2 MSTORE PUSH1 0x20 PUSH1 0x4 DUP3 ADD DUP2 SWAP1 MSTORE PUSH1 0x24 DUP3 ADD MSTORE PUSH32 0x496E737572616E63655661756C743A205072656D69756D206E6F742070616964 PUSH1 0x44 DUP3 ADD MSTORE PUSH1 0x64 ADD PUSH2 0x797 JUMP JUMPDEST CALLER PUSH0 SWAP1 DUP2 MSTORE PUSH1 0x6 PUSH1 0x20 MSTORE PUSH1 0x40 SWAP1 KECCAK256 PUSH1 0x4 ADD SLOAD PUSH3 0x278D00 SWAP1 PUSH2 0x10B1 SWAP1 TIMESTAMP PUSH2 0x27BB JUMP JUMPDEST GT PUSH2 0x1119 JUMPI PUSH1 0x40 MLOAD PUSH3 0x461BCD PUSH1 0xE5 SHL DUP2 MSTORE PUSH1 0x20 PUSH1 0x4 DUP3 ADD MSTORE PUSH1 0x32 PUSH1 0x24 DUP3 ADD MSTORE PUSH32 0x496E737572616E63655661756C743A20436C61696D206E6F7420616C6C6F7765 PUSH1 0x44 DUP3 ADD MSTORE PUSH18 0x19081A5B881B1BD8DADA5B881C195C9A5BD9 PUSH1 0x72 SHL PUSH1 0x64 DUP3 ADD MSTORE PUSH1 0x84 ADD PUSH2 0x797 JUMP JUMPDEST CALLER PUSH0 SWAP1 DUP2 MSTORE PUSH1 0x6 PUSH1 0x20 MSTORE PUSH1 0x40 SWAP1 KECCAK256 PUSH1 0x5 ADD SLOAD PUSH3 0x278D00 SWAP1 PUSH2 0x113A SWAP1 TIMESTAMP PUSH2 0x27BB JUMP JUMPDEST GT PUSH2 0x11A4 JUMPI PUSH1 0x40 MLOAD PUSH3 0x461BCD PUSH1 0xE5 SHL DUP2 MSTORE PUSH1 0x20 PUSH1 0x4 DUP3 ADD MSTORE PUSH1 0x34 PUSH1 0x24 DUP3 ADD MSTORE PUSH32 0x496E737572616E63655661756C743A20436C61696D206E6F7420616C6C6F7765 PUSH1 0x44 DUP3 ADD MSTORE PUSH20 0x19081A5B8818DBDBDB191BDDDB881C195C9A5BD9 PUSH1 0x62 SHL PUSH1 0x64 DUP3 ADD MSTORE PUSH1 0x84 ADD PUSH2 0x797 JUMP JUMPDEST CALLER PUSH0 SWAP1 DUP2 MSTORE PUSH1 0x6 PUSH1 0x20 MSTORE PUSH1 0x40 SWAP1 KECCAK256 PUSH1 0x1 ADD SLOAD DUP3 GT ISZERO PUSH2 0x122B JUMPI PUSH1 0x40 MLOAD PUSH3 0x461BCD PUSH1 0xE5 SHL DUP2 MSTORE PUSH1 0x20 PUSH1 0x4 DUP3 ADD MSTORE PUSH1 0x3F PUSH1 0x24 DUP3 ADD MSTORE PUSH32 0x496E737572616E63655661756C743A20436C61696D20616D6F756E742073686F PUSH1 0x44 DUP3 ADD MSTORE PUSH32 0x756C64206265206C657373207468656E20696E737572656420616D6F756E7400 PUSH1 0x64 DUP3 ADD MSTORE PUSH1 0x84 ADD PUSH2 0x797 JUMP JUMPDEST PUSH1 0x8 SLOAD PUSH1 0x40 DUP1 MLOAD PUSH1 0xE0 DUP2 ADD DUP3 MSTORE CALLER DUP2 MSTORE PUSH0 PUSH1 0x20 DUP1 DUP4 ADD DUP3 DUP2 MSTORE DUP4 DUP6 ADD DUP9 DUP2 MSTORE PUSH1 0x60 DUP6 ADD DUP11 DUP2 MSTORE TIMESTAMP PUSH1 0x80 DUP8 ADD MSTORE PUSH1 0xA0 DUP7 ADD DUP6 SWAP1 MSTORE PUSH1 0xC0 DUP7 ADD DUP6 SWAP1 MSTORE DUP8 DUP6 MSTORE PUSH1 0x7 SWAP1 SWAP4 MSTORE SWAP5 SWAP1 SWAP3 KECCAK256 DUP4 MLOAD DUP2 SLOAD PUSH1 0x1 PUSH1 0x1 PUSH1 0xA0 SHL SUB NOT SWAP1 DUP2 AND PUSH1 0x1 PUSH1 0x1 PUSH1 0xA0 SHL SUB SWAP3 DUP4 AND OR DUP4 SSTORE SWAP4 MLOAD PUSH1 0x1 DUP4 ADD DUP1 SLOAD SWAP1 SWAP6 AND SWAP2 AND OR SWAP1 SWAP3 SSTORE SWAP3 MLOAD PUSH1 0x2 DUP3 ADD SSTORE SWAP2 MLOAD SWAP1 SWAP2 SWAP1 PUSH1 0x3 DUP3 ADD SWAP1 PUSH2 0x12BB SWAP1 DUP3 PUSH2 0x284D JUMP JUMPDEST POP PUSH1 0x80 DUP3 ADD MLOAD PUSH1 0x4 DUP3 ADD SSTORE PUSH1 0xA0 DUP3 ADD MLOAD PUSH1 0x5 DUP3 ADD DUP1 SLOAD PUSH1 0xFF NOT AND PUSH1 0x1 DUP4 PUSH1 0x3 DUP2 GT ISZERO PUSH2 0x12E9 JUMPI PUSH2 0x12E9 PUSH2 0x248B JUMP JUMPDEST MUL OR SWAP1 SSTORE POP PUSH1 0xC0 DUP3 ADD MLOAD PUSH1 0x5 DUP3 ADD DUP1 SLOAD PUSH2 0xFF00 NOT AND PUSH2 0x100 DUP4 PUSH1 0x2 DUP2 GT ISZERO PUSH2 0x1313 JUMPI PUSH2 0x1313 PUSH2 0x248B JUMP JUMPDEST MUL OR SWAP1 SSTORE POP POP PUSH1 0x8 DUP1 SLOAD SWAP2 POP PUSH0 PUSH2 0x1329 DUP4 PUSH2 0x2909 JUMP JUMPDEST SWAP2 SWAP1 POP SSTORE POP CALLER PUSH1 0x1 PUSH1 0x1 PUSH1 0xA0 SHL SUB AND PUSH32 0x594638E4878D3F8E84366051A5D81FE440E9D5D20A2DC24E94897DBA00CCB6E0 DUP3 DUP7 DUP7 TIMESTAMP PUSH1 0x40 MLOAD PUSH2 0x136D SWAP5 SWAP4 SWAP3 SWAP2 SWAP1 PUSH2 0x2921 JUMP JUMPDEST PUSH1 0x40 MLOAD DUP1 SWAP2 SUB SWAP1 LOG2 SWAP4 SWAP3 POP POP POP JUMP JUMPDEST PUSH0 PUSH0 NOT PUSH0 PUSH2 0x1389 DUP6 PUSH2 0x1741 JUMP JUMPDEST SWAP1 POP PUSH2 0xF8F CALLER DUP6 DUP4 DUP9 PUSH2 0x1C32 JUMP JUMPDEST PUSH1 0x60 PUSH1 0x4 DUP1 SLOAD PUSH2 0xA72 SWAP1 PUSH2 0x2729 JUMP JUMPDEST PUSH1 0x1 PUSH0 DUP3 DUP2 MSTORE PUSH1 0x7 PUSH1 0x20 MSTORE PUSH1 0x40 SWAP1 KECCAK256 PUSH1 0x5 ADD SLOAD PUSH1 0xFF AND PUSH1 0x3 DUP2 GT ISZERO PUSH2 0x13CD JUMPI PUSH2 0x13CD PUSH2 0x248B JUMP JUMPDEST EQ PUSH2 0x1425 JUMPI PUSH1 0x40 MLOAD PUSH3 0x461BCD PUSH1 0xE5 SHL DUP2 MSTORE PUSH1 0x20 PUSH1 0x4 DUP3 ADD MSTORE PUSH1 0x22 PUSH1 0x24 DUP3 ADD MSTORE PUSH32 0x496E737572616E63655661756C743A20436C61696D206E6F7420766572696669 PUSH1 0x44 DUP3 ADD MSTORE PUSH2 0x1959 PUSH1 0xF2 SHL PUSH1 0x64 DUP3 ADD MSTORE PUSH1 0x84 ADD PUSH2 0x797 JUMP JUMPDEST PUSH1 0x2 PUSH0 DUP3 DUP2 MSTORE PUSH1 0x7 PUSH1 0x20 MSTORE PUSH1 0x40 SWAP1 KECCAK256 PUSH1 0x5 ADD SLOAD PUSH2 0x100 SWAP1 DIV PUSH1 0xFF AND PUSH1 0x2 DUP2 GT ISZERO PUSH2 0x1451 JUMPI PUSH2 0x1451 PUSH2 0x248B JUMP JUMPDEST EQ PUSH2 0x14A8 JUMPI PUSH1 0x40 MLOAD PUSH3 0x461BCD PUSH1 0xE5 SHL DUP2 MSTORE PUSH1 0x20 PUSH1 0x4 DUP3 ADD MSTORE PUSH1 0x21 PUSH1 0x24 DUP3 ADD MSTORE PUSH32 0x496E737572616E63655661756C743A20436C61696D206E6F7420696E76616C69 PUSH1 0x44 DUP3 ADD MSTORE PUSH1 0x19 PUSH1 0xFA SHL PUSH1 0x64 DUP3 ADD MSTORE PUSH1 0x84 ADD PUSH2 0x797 JUMP JUMPDEST PUSH0 DUP2 DUP2 MSTORE PUSH1 0x7 PUSH1 0x20 MSTORE PUSH1 0x40 SWAP1 DUP2 SWAP1 KECCAK256 PUSH1 0x5 DUP2 ADD DUP1 SLOAD PUSH1 0xFF NOT AND PUSH1 0x2 OR SWAP1 SSTORE PUSH1 0x1 ADD SLOAD SWAP1 MLOAD PUSH4 0xF4ADD3B5 PUSH1 0xE0 SHL DUP2 MSTORE PUSH1 0x1 PUSH1 0x1 PUSH1 0xA0 SHL SUB SWAP2 DUP3 AND PUSH1 0x4 DUP3 ADD MSTORE PUSH32 0x0 SWAP1 SWAP2 AND SWAP1 PUSH4 0xF4ADD3B5 SWAP1 PUSH1 0x24 ADD PUSH0 PUSH1 0x40 MLOAD DUP1 DUP4 SUB DUP2 PUSH0 DUP8 DUP1 EXTCODESIZE ISZERO DUP1 ISZERO PUSH2 0x152B JUMPI PUSH0 DUP1 REVERT JUMPDEST POP GAS CALL ISZERO DUP1 ISZERO PUSH2 0x153D JUMPI RETURNDATASIZE PUSH0 DUP1 RETURNDATACOPY RETURNDATASIZE PUSH0 REVERT JUMPDEST POP POP POP PUSH0 DUP3 DUP2 MSTORE PUSH1 0x7 PUSH1 0x20 MSTORE PUSH1 0x40 SWAP1 DUP2 SWAP1 KECCAK256 SLOAD SWAP1 MLOAD CALLER SWAP3 POP PUSH1 0x1 PUSH1 0x1 PUSH1 0xA0 SHL SUB SWAP1 SWAP2 AND SWAP1 PUSH32 0x3731BFA366F2F012A082829D0D9094FB9DECC7A9EDB7EAFE6822D1CBED23A67F SWAP1 PUSH2 0x1595 SWAP1 DUP6 SWAP1 PUSH1 0x2 SWAP1 DUP2 SWAP1 TIMESTAMP SWAP1 PUSH2 0x26F9 JUMP JUMPDEST PUSH1 0x40 MLOAD DUP1 SWAP2 SUB SWAP1 LOG3 POP JUMP JUMPDEST PUSH0 CALLER PUSH2 0xB11 DUP2 DUP6 DUP6 PUSH2 0x1BD5 JUMP JUMPDEST PUSH1 0x9 SLOAD PUSH1 0x1 PUSH1 0x1 PUSH1 0xA0 SHL SUB AND CALLER EQ PUSH2 0x162D JUMPI PUSH1 0x40 MLOAD PUSH3 0x461BCD PUSH1 0xE5 SHL DUP2 MSTORE PUSH1 0x20 PUSH1 0x4 DUP3 ADD MSTORE PUSH1 0x3A PUSH1 0x24 DUP3 ADD MSTORE PUSH32 0x496E737572616E63655661756C743A204F6E6C7920636F6E74726F6C6C657220 PUSH1 0x44 DUP3 ADD MSTORE PUSH32 0x63616E207769746864726177206C6F636B656420617373657473000000000000 PUSH1 0x64 DUP3 ADD MSTORE PUSH1 0x84 ADD PUSH2 0x797 JUMP JUMPDEST PUSH0 DUP2 GT PUSH2 0x1697 JUMPI PUSH1 0x40 MLOAD PUSH3 0x461BCD PUSH1 0xE5 SHL DUP2 MSTORE PUSH1 0x20 PUSH1 0x4 DUP3 ADD MSTORE PUSH1 0x32 PUSH1 0x24 DUP3 ADD MSTORE PUSH32 0x496E737572616E63655661756C743A2043616E6E6F7420776974686472617720 PUSH1 0x44 DUP3 ADD MSTORE PUSH18 0x3020616D6F756E74206F6620746F6B656E73 PUSH1 0x70 SHL PUSH1 0x64 DUP3 ADD MSTORE PUSH1 0x84 ADD PUSH2 0x797 JUMP JUMPDEST PUSH1 0x1 PUSH1 0x1 PUSH1 0xA0 SHL SUB DUP3 AND PUSH2 0x1736 JUMPI PUSH1 0x40 MLOAD PUSH0 SWAP1 CALLER SWAP1 DUP4 SWAP1 DUP4 DUP2 DUP2 DUP2 DUP6 DUP8 GAS CALL SWAP3 POP POP POP RETURNDATASIZE DUP1 PUSH0 DUP2 EQ PUSH2 0x16E4 JUMPI PUSH1 0x40 MLOAD SWAP2 POP PUSH1 0x1F NOT PUSH1 0x3F RETURNDATASIZE ADD AND DUP3 ADD PUSH1 0x40 MSTORE RETURNDATASIZE DUP3 MSTORE RETURNDATASIZE PUSH0 PUSH1 0x20 DUP5 ADD RETURNDATACOPY PUSH2 0x16E9 JUMP JUMPDEST PUSH1 0x60 SWAP2 POP JUMPDEST POP POP SWAP1 POP DUP1 PUSH2 0x1731 JUMPI PUSH1 0x40 MLOAD PUSH3 0x461BCD PUSH1 0xE5 SHL DUP2 MSTORE PUSH1 0x20 PUSH1 0x4 DUP3 ADD MSTORE PUSH1 0x14 PUSH1 0x24 DUP3 ADD MSTORE PUSH20 0x2330B4B632B2103A379039B2B7321022BA3432B9 PUSH1 0x61 SHL PUSH1 0x44 DUP3 ADD MSTORE PUSH1 0x64 ADD PUSH2 0x797 JUMP JUMPDEST POP POP POP JUMP JUMPDEST PUSH2 0xA5F DUP3 CALLER DUP4 PUSH2 0x183A JUMP JUMPDEST PUSH0 PUSH2 0xAFE DUP3 PUSH1 0x1 PUSH2 0x19F4 JUMP JUMPDEST PUSH0 DUP1 PUSH2 0x1758 DUP4 PUSH2 0x17FB JUMP JUMPDEST SWAP1 POP DUP1 DUP6 GT ISZERO PUSH2 0x1781 JUMPI DUP3 DUP6 DUP3 PUSH1 0x40 MLOAD PUSH4 0x3FA733BB PUSH1 0xE2 SHL DUP2 MSTORE PUSH1 0x4 ADD PUSH2 0x797 SWAP4 SWAP3 SWAP2 SWAP1 PUSH2 0x27E7 JUMP JUMPDEST PUSH0 PUSH2 0x178B DUP7 PUSH2 0xB1B JUMP JUMPDEST SWAP1 POP PUSH2 0x179A CALLER DUP7 DUP7 DUP10 DUP6 PUSH2 0x1C89 JUMP JUMPDEST SWAP6 SWAP5 POP POP POP POP POP JUMP JUMPDEST PUSH0 DUP1 PUSH2 0x17AE DUP4 PUSH2 0x181D JUMP JUMPDEST SWAP1 POP DUP1 DUP6 GT ISZERO PUSH2 0x17D7 JUMPI DUP3 DUP6 DUP3 PUSH1 0x40 MLOAD PUSH4 0x2E52AFBB PUSH1 0xE2 SHL DUP2 MSTORE PUSH1 0x4 ADD PUSH2 0x797 SWAP4 SWAP3 SWAP2 SWAP1 PUSH2 0x27E7 JUMP JUMPDEST PUSH0 PUSH2 0x17E1 DUP7 PUSH2 0xAF3 JUMP JUMPDEST SWAP1 POP PUSH2 0x179A CALLER DUP7 DUP7 DUP5 DUP11 PUSH2 0x1C89 JUMP JUMPDEST PUSH0 PUSH2 0xAFE DUP3 PUSH0 PUSH2 0x1A39 JUMP JUMPDEST PUSH1 0x1 PUSH1 0x1 PUSH1 0xA0 SHL SUB DUP2 AND PUSH0 SWAP1 DUP2 MSTORE PUSH1 0x20 DUP2 SWAP1 MSTORE PUSH1 0x40 DUP2 KECCAK256 SLOAD PUSH2 0xAFE SWAP1 PUSH0 PUSH2 0x19F4 JUMP JUMPDEST PUSH1 0x1 PUSH1 0x1 PUSH1 0xA0 SHL SUB DUP2 AND PUSH0 SWAP1 DUP2 MSTORE PUSH1 0x20 DUP2 SWAP1 MSTORE PUSH1 0x40 DUP2 KECCAK256 SLOAD PUSH2 0xAFE JUMP JUMPDEST PUSH1 0x40 DUP1 MLOAD PUSH1 0x1 PUSH1 0x1 PUSH1 0xA0 SHL SUB DUP5 DUP2 AND PUSH1 0x24 DUP4 ADD MSTORE PUSH1 0x44 DUP1 DUP4 ADD DUP6 SWAP1 MSTORE DUP4 MLOAD DUP1 DUP5 SUB SWAP1 SWAP2 ADD DUP2 MSTORE PUSH1 0x64 SWAP1 SWAP3 ADD DUP4 MSTORE PUSH1 0x20 DUP3 ADD DUP1 MLOAD PUSH1 0x1 PUSH1 0x1 PUSH1 0xE0 SHL SUB AND PUSH4 0xA9059CBB PUSH1 0xE0 SHL OR SWAP1 MSTORE SWAP2 MLOAD PUSH0 SWAP3 DUP4 SWAP3 SWAP1 DUP8 AND SWAP2 PUSH2 0x1895 SWAP2 SWAP1 PUSH2 0x294C JUMP JUMPDEST PUSH0 PUSH1 0x40 MLOAD DUP1 DUP4 SUB DUP2 PUSH0 DUP7 GAS CALL SWAP2 POP POP RETURNDATASIZE DUP1 PUSH0 DUP2 EQ PUSH2 0x18CE JUMPI PUSH1 0x40 MLOAD SWAP2 POP PUSH1 0x1F NOT PUSH1 0x3F RETURNDATASIZE ADD AND DUP3 ADD PUSH1 0x40 MSTORE RETURNDATASIZE DUP3 MSTORE RETURNDATASIZE PUSH0 PUSH1 0x20 DUP5 ADD RETURNDATACOPY PUSH2 0x18D3 JUMP JUMPDEST PUSH1 0x60 SWAP2 POP JUMPDEST POP SWAP2 POP SWAP2 POP DUP2 DUP1 ISZERO PUSH2 0x18FD JUMPI POP DUP1 MLOAD ISZERO DUP1 PUSH2 0x18FD JUMPI POP DUP1 DUP1 PUSH1 0x20 ADD SWAP1 MLOAD DUP2 ADD SWAP1 PUSH2 0x18FD SWAP2 SWAP1 PUSH2 0x26DA JUMP JUMPDEST PUSH2 0x192E JUMPI PUSH1 0x40 MLOAD PUSH3 0x461BCD PUSH1 0xE5 SHL DUP2 MSTORE PUSH1 0x20 PUSH1 0x4 DUP3 ADD MSTORE PUSH1 0x2 PUSH1 0x24 DUP3 ADD MSTORE PUSH2 0x14D5 PUSH1 0xF2 SHL PUSH1 0x44 DUP3 ADD MSTORE PUSH1 0x64 ADD PUSH2 0x797 JUMP JUMPDEST POP POP POP POP POP JUMP JUMPDEST PUSH0 DUP4 DUP4 MUL DUP2 PUSH0 NOT DUP6 DUP8 MULMOD DUP3 DUP2 LT DUP4 DUP3 SUB SUB SWAP2 POP POP DUP1 PUSH0 SUB PUSH2 0x1969 JUMPI DUP4 DUP3 DUP2 PUSH2 0x195F JUMPI PUSH2 0x195F PUSH2 0x2967 JUMP JUMPDEST DIV SWAP3 POP POP POP PUSH2 0xD9A JUMP JUMPDEST DUP1 DUP5 GT PUSH2 0x1989 JUMPI PUSH1 0x40 MLOAD PUSH4 0x227BC153 PUSH1 0xE0 SHL DUP2 MSTORE PUSH1 0x4 ADD PUSH1 0x40 MLOAD DUP1 SWAP2 SUB SWAP1 REVERT JUMPDEST PUSH0 DUP5 DUP7 DUP9 MULMOD PUSH0 DUP7 DUP2 SUB DUP8 AND SWAP7 DUP8 SWAP1 DIV SWAP7 PUSH1 0x2 PUSH1 0x3 DUP10 MUL DUP2 XOR DUP1 DUP11 MUL DUP3 SUB MUL DUP1 DUP11 MUL DUP3 SUB MUL DUP1 DUP11 MUL DUP3 SUB MUL DUP1 DUP11 MUL DUP3 SUB MUL DUP1 DUP11 MUL DUP3 SUB MUL DUP1 DUP11 MUL SWAP1 SWAP2 SUB MUL SWAP2 DUP2 SWAP1 SUB DUP2 SWAP1 DIV PUSH1 0x1 ADD DUP7 DUP5 GT SWAP1 SWAP6 SUB SWAP5 SWAP1 SWAP5 MUL SWAP2 SWAP1 SWAP5 SUB SWAP3 SWAP1 SWAP3 DIV SWAP2 SWAP1 SWAP2 OR SWAP2 SWAP1 SWAP2 MUL SWAP2 POP POP SWAP4 SWAP3 POP POP POP JUMP JUMPDEST PUSH0 PUSH2 0xD9A PUSH2 0x1A00 PUSH2 0x64B JUMP JUMPDEST PUSH2 0x1A0B SWAP1 PUSH1 0x1 PUSH2 0x297B JUMP JUMPDEST PUSH2 0x1A16 PUSH0 PUSH1 0xA PUSH2 0x2A6E JUMP JUMPDEST PUSH1 0x2 SLOAD PUSH2 0x1A23 SWAP2 SWAP1 PUSH2 0x297B JUMP JUMPDEST DUP6 SWAP2 SWAP1 DUP6 PUSH2 0x1DB8 JUMP JUMPDEST PUSH2 0x1731 DUP4 DUP4 DUP4 PUSH1 0x1 PUSH2 0x1E05 JUMP JUMPDEST PUSH0 PUSH2 0xD9A PUSH2 0x1A48 DUP3 PUSH1 0xA PUSH2 0x2A6E JUMP JUMPDEST PUSH1 0x2 SLOAD PUSH2 0x1A55 SWAP2 SWAP1 PUSH2 0x297B JUMP JUMPDEST PUSH2 0x1A5D PUSH2 0x64B JUMP JUMPDEST PUSH2 0x1A23 SWAP1 PUSH1 0x1 PUSH2 0x297B JUMP JUMPDEST PUSH1 0x40 DUP1 MLOAD PUSH1 0x1 PUSH1 0x1 PUSH1 0xA0 SHL SUB DUP6 DUP2 AND PUSH1 0x24 DUP4 ADD MSTORE DUP5 DUP2 AND PUSH1 0x44 DUP4 ADD MSTORE PUSH1 0x64 DUP1 DUP4 ADD DUP6 SWAP1 MSTORE DUP4 MLOAD DUP1 DUP5 SUB SWAP1 SWAP2 ADD DUP2 MSTORE PUSH1 0x84 SWAP1 SWAP3 ADD DUP4 MSTORE PUSH1 0x20 DUP3 ADD DUP1 MLOAD PUSH1 0x1 PUSH1 0x1 PUSH1 0xE0 SHL SUB AND PUSH4 0x23B872DD PUSH1 0xE0 SHL OR SWAP1 MSTORE SWAP2 MLOAD PUSH0 SWAP3 DUP4 SWAP3 SWAP1 DUP9 AND SWAP2 PUSH2 0x1ACB SWAP2 SWAP1 PUSH2 0x294C JUMP JUMPDEST PUSH0 PUSH1 0x40 MLOAD DUP1 DUP4 SUB DUP2 PUSH0 DUP7 GAS CALL SWAP2 POP POP RETURNDATASIZE DUP1 PUSH0 DUP2 EQ PUSH2 0x1B04 JUMPI PUSH1 0x40 MLOAD SWAP2 POP PUSH1 0x1F NOT PUSH1 0x3F RETURNDATASIZE ADD AND DUP3 ADD PUSH1 0x40 MSTORE RETURNDATASIZE DUP3 MSTORE RETURNDATASIZE PUSH0 PUSH1 0x20 DUP5 ADD RETURNDATACOPY PUSH2 0x1B09 JUMP JUMPDEST PUSH1 0x60 SWAP2 POP JUMPDEST POP SWAP2 POP SWAP2 POP DUP2 DUP1 ISZERO PUSH2 0x1B33 JUMPI POP DUP1 MLOAD ISZERO DUP1 PUSH2 0x1B33 JUMPI POP DUP1 DUP1 PUSH1 0x20 ADD SWAP1 MLOAD DUP2 ADD SWAP1 PUSH2 0x1B33 SWAP2 SWAP1 PUSH2 0x26DA JUMP JUMPDEST PUSH2 0x1B65 JUMPI PUSH1 0x40 MLOAD PUSH3 0x461BCD PUSH1 0xE5 SHL DUP2 MSTORE PUSH1 0x20 PUSH1 0x4 DUP3 ADD MSTORE PUSH1 0x3 PUSH1 0x24 DUP3 ADD MSTORE PUSH3 0x29AA23 PUSH1 0xE9 SHL PUSH1 0x44 DUP3 ADD MSTORE PUSH1 0x64 ADD PUSH2 0x797 JUMP JUMPDEST POP POP POP POP POP POP JUMP JUMPDEST PUSH1 0x1 PUSH1 0x1 PUSH1 0xA0 SHL SUB DUP4 DUP2 AND PUSH0 SWAP1 DUP2 MSTORE PUSH1 0x1 PUSH1 0x20 SWAP1 DUP2 MSTORE PUSH1 0x40 DUP1 DUP4 KECCAK256 SWAP4 DUP7 AND DUP4 MSTORE SWAP3 SWAP1 MSTORE KECCAK256 SLOAD PUSH0 NOT DUP2 EQ PUSH2 0x1BCF JUMPI DUP2 DUP2 LT ISZERO PUSH2 0x1BC1 JUMPI DUP3 DUP2 DUP4 PUSH1 0x40 MLOAD PUSH4 0x7DC7A0D9 PUSH1 0xE1 SHL DUP2 MSTORE PUSH1 0x4 ADD PUSH2 0x797 SWAP4 SWAP3 SWAP2 SWAP1 PUSH2 0x27E7 JUMP JUMPDEST PUSH2 0x1BCF DUP5 DUP5 DUP5 DUP5 SUB PUSH0 PUSH2 0x1E05 JUMP JUMPDEST POP POP POP POP JUMP JUMPDEST PUSH1 0x1 PUSH1 0x1 PUSH1 0xA0 SHL SUB DUP4 AND PUSH2 0x1BFE JUMPI PUSH1 0x40 MLOAD PUSH4 0x4B637E8F PUSH1 0xE1 SHL DUP2 MSTORE PUSH0 PUSH1 0x4 DUP3 ADD MSTORE PUSH1 0x24 ADD PUSH2 0x797 JUMP JUMPDEST PUSH1 0x1 PUSH1 0x1 PUSH1 0xA0 SHL SUB DUP3 AND PUSH2 0x1C27 JUMPI PUSH1 0x40 MLOAD PUSH4 0xEC442F05 PUSH1 0xE0 SHL DUP2 MSTORE PUSH0 PUSH1 0x4 DUP3 ADD MSTORE PUSH1 0x24 ADD PUSH2 0x797 JUMP JUMPDEST PUSH2 0x1731 DUP4 DUP4 DUP4 PUSH2 0x1ED7 JUMP JUMPDEST PUSH2 0x1C3E DUP5 DUP5 DUP5 DUP5 PUSH2 0x1FDD JUMP JUMPDEST POP POP PUSH1 0x40 DUP1 MLOAD DUP1 DUP3 ADD DUP3 MSTORE PUSH1 0x1 DUP1 DUP3 MSTORE TIMESTAMP PUSH1 0x20 DUP1 DUP5 ADD SWAP2 DUP3 MSTORE PUSH1 0x1 PUSH1 0x1 PUSH1 0xA0 SHL SUB SWAP7 SWAP1 SWAP7 AND PUSH0 SWAP1 DUP2 MSTORE PUSH1 0x5 SWAP1 SWAP7 MSTORE SWAP3 SWAP1 SWAP5 KECCAK256 SWAP1 MLOAD DUP2 SLOAD PUSH1 0xFF NOT AND SWAP1 ISZERO ISZERO OR DUP2 SSTORE SWAP1 MLOAD SWAP3 ADD SWAP2 SWAP1 SWAP2 SSTORE POP JUMP JUMPDEST PUSH1 0x1 PUSH1 0x1 PUSH1 0xA0 SHL SUB DUP6 AND PUSH0 SWAP1 DUP2 MSTORE PUSH1 0x5 PUSH1 0x20 MSTORE PUSH1 0x40 SWAP1 KECCAK256 SLOAD PUSH1 0xFF AND ISZERO ISZERO PUSH1 0x1 EQ PUSH2 0x1D04 JUMPI PUSH1 0x40 MLOAD PUSH3 0x461BCD PUSH1 0xE5 SHL DUP2 MSTORE PUSH1 0x20 PUSH1 0x4 DUP3 ADD MSTORE PUSH1 0x26 PUSH1 0x24 DUP3 ADD MSTORE PUSH32 0x496E737572616E63655661756C743A205573657220686173206E6F7420646570 PUSH1 0x44 DUP3 ADD MSTORE PUSH6 0x1BDCDA5D1959 PUSH1 0xD2 SHL PUSH1 0x64 DUP3 ADD MSTORE PUSH1 0x84 ADD PUSH2 0x797 JUMP JUMPDEST PUSH1 0x1 PUSH1 0x1 PUSH1 0xA0 SHL SUB DUP6 AND PUSH0 SWAP1 DUP2 MSTORE PUSH1 0x5 PUSH1 0x20 MSTORE PUSH1 0x40 SWAP1 KECCAK256 PUSH1 0x1 ADD SLOAD PUSH3 0x278D00 SWAP1 PUSH2 0x1D2E SWAP1 TIMESTAMP PUSH2 0x27BB JUMP JUMPDEST GT PUSH2 0x1DAB JUMPI PUSH1 0x40 MLOAD PUSH3 0x461BCD PUSH1 0xE5 SHL DUP2 MSTORE PUSH1 0x20 PUSH1 0x4 DUP3 ADD MSTORE PUSH1 0x41 PUSH1 0x24 DUP3 ADD MSTORE PUSH32 0x496E737572616E63655661756C743A205573657220686173206E6F7420646570 PUSH1 0x44 DUP3 ADD MSTORE PUSH32 0x6F736974656420666F72206D6F7265207468656E2046495845445F504552494F PUSH1 0x64 DUP3 ADD MSTORE PUSH1 0x11 PUSH1 0xFA SHL PUSH1 0x84 DUP3 ADD MSTORE PUSH1 0xA4 ADD PUSH2 0x797 JUMP JUMPDEST PUSH2 0x192E DUP6 DUP6 DUP6 DUP6 DUP6 PUSH2 0x2061 JUMP JUMPDEST PUSH0 DUP1 PUSH2 0x1DC5 DUP7 DUP7 DUP7 PUSH2 0x1935 JUMP JUMPDEST SWAP1 POP PUSH2 0x1DD0 DUP4 PUSH2 0x2121 JUMP JUMPDEST DUP1 ISZERO PUSH2 0x1DEB JUMPI POP PUSH0 DUP5 DUP1 PUSH2 0x1DE6 JUMPI PUSH2 0x1DE6 PUSH2 0x2967 JUMP JUMPDEST DUP7 DUP9 MULMOD GT JUMPDEST ISZERO PUSH2 0x179A JUMPI PUSH2 0x1DFB PUSH1 0x1 DUP3 PUSH2 0x297B JUMP JUMPDEST SWAP7 SWAP6 POP POP POP POP POP POP JUMP JUMPDEST PUSH1 0x1 PUSH1 0x1 PUSH1 0xA0 SHL SUB DUP5 AND PUSH2 0x1E2E JUMPI PUSH1 0x40 MLOAD PUSH4 0xE602DF05 PUSH1 0xE0 SHL DUP2 MSTORE PUSH0 PUSH1 0x4 DUP3 ADD MSTORE PUSH1 0x24 ADD PUSH2 0x797 JUMP JUMPDEST PUSH1 0x1 PUSH1 0x1 PUSH1 0xA0 SHL SUB DUP4 AND PUSH2 0x1E57 JUMPI PUSH1 0x40 MLOAD PUSH4 0x4A1406B1 PUSH1 0xE1 SHL DUP2 MSTORE PUSH0 PUSH1 0x4 DUP3 ADD MSTORE PUSH1 0x24 ADD PUSH2 0x797 JUMP JUMPDEST PUSH1 0x1 PUSH1 0x1 PUSH1 0xA0 SHL SUB DUP1 DUP6 AND PUSH0 SWAP1 DUP2 MSTORE PUSH1 0x1 PUSH1 0x20 SWAP1 DUP2 MSTORE PUSH1 0x40 DUP1 DUP4 KECCAK256 SWAP4 DUP8 AND DUP4 MSTORE SWAP3 SWAP1 MSTORE KECCAK256 DUP3 SWAP1 SSTORE DUP1 ISZERO PUSH2 0x1BCF JUMPI DUP3 PUSH1 0x1 PUSH1 0x1 PUSH1 0xA0 SHL SUB AND DUP5 PUSH1 0x1 PUSH1 0x1 PUSH1 0xA0 SHL SUB AND PUSH32 0x8C5BE1E5EBEC7D5BD14F71427D1E84F3DD0314C0F7B2291E5B200AC8C7C3B925 DUP5 PUSH1 0x40 MLOAD PUSH2 0x1EC9 SWAP2 DUP2 MSTORE PUSH1 0x20 ADD SWAP1 JUMP JUMPDEST PUSH1 0x40 MLOAD DUP1 SWAP2 SUB SWAP1 LOG3 POP POP POP POP JUMP JUMPDEST PUSH1 0x1 PUSH1 0x1 PUSH1 0xA0 SHL SUB DUP4 AND PUSH2 0x1F01 JUMPI DUP1 PUSH1 0x2 PUSH0 DUP3 DUP3 SLOAD PUSH2 0x1EF6 SWAP2 SWAP1 PUSH2 0x297B JUMP JUMPDEST SWAP1 SWAP2 SSTORE POP PUSH2 0x1F5E SWAP1 POP JUMP JUMPDEST PUSH1 0x1 PUSH1 0x1 PUSH1 0xA0 SHL SUB DUP4 AND PUSH0 SWAP1 DUP2 MSTORE PUSH1 0x20 DUP2 SWAP1 MSTORE PUSH1 0x40 SWAP1 KECCAK256 SLOAD DUP2 DUP2 LT ISZERO PUSH2 0x1F40 JUMPI DUP4 DUP2 DUP4 PUSH1 0x40 MLOAD PUSH4 0x391434E3 PUSH1 0xE2 SHL DUP2 MSTORE PUSH1 0x4 ADD PUSH2 0x797 SWAP4 SWAP3 SWAP2 SWAP1 PUSH2 0x27E7 JUMP JUMPDEST PUSH1 0x1 PUSH1 0x1 PUSH1 0xA0 SHL SUB DUP5 AND PUSH0 SWAP1 DUP2 MSTORE PUSH1 0x20 DUP2 SWAP1 MSTORE PUSH1 0x40 SWAP1 KECCAK256 SWAP1 DUP3 SWAP1 SUB SWAP1 SSTORE JUMPDEST PUSH1 0x1 PUSH1 0x1 PUSH1 0xA0 SHL SUB DUP3 AND PUSH2 0x1F7A JUMPI PUSH1 0x2 DUP1 SLOAD DUP3 SWAP1 SUB SWAP1 SSTORE PUSH2 0x1F98 JUMP JUMPDEST PUSH1 0x1 PUSH1 0x1 PUSH1 0xA0 SHL SUB DUP3 AND PUSH0 SWAP1 DUP2 MSTORE PUSH1 0x20 DUP2 SWAP1 MSTORE PUSH1 0x40 SWAP1 KECCAK256 DUP1 SLOAD DUP3 ADD SWAP1 SSTORE JUMPDEST DUP2 PUSH1 0x1 PUSH1 0x1 PUSH1 0xA0 SHL SUB AND DUP4 PUSH1 0x1 PUSH1 0x1 PUSH1 0xA0 SHL SUB AND PUSH32 0xDDF252AD1BE2C89B69C2B068FC378DAA952BA7F163C4A11628F55A4DF523B3EF DUP4 PUSH1 0x40 MLOAD PUSH2 0x940 SWAP2 DUP2 MSTORE PUSH1 0x20 ADD SWAP1 JUMP JUMPDEST PUSH2 0x2009 PUSH32 0x0 DUP6 ADDRESS DUP6 PUSH2 0x214D JUMP JUMPDEST PUSH2 0x2013 DUP4 DUP3 PUSH2 0x21B4 JUMP JUMPDEST DUP3 PUSH1 0x1 PUSH1 0x1 PUSH1 0xA0 SHL SUB AND DUP5 PUSH1 0x1 PUSH1 0x1 PUSH1 0xA0 SHL SUB AND PUSH32 0xDCBC1C05240F31FF3AD067EF1EE35CE4997762752E3A095284754544F4C709D7 DUP5 DUP5 PUSH1 0x40 MLOAD PUSH2 0x1EC9 SWAP3 SWAP2 SWAP1 SWAP2 DUP3 MSTORE PUSH1 0x20 DUP3 ADD MSTORE PUSH1 0x40 ADD SWAP1 JUMP JUMPDEST DUP3 PUSH1 0x1 PUSH1 0x1 PUSH1 0xA0 SHL SUB AND DUP6 PUSH1 0x1 PUSH1 0x1 PUSH1 0xA0 SHL SUB AND EQ PUSH2 0x2085 JUMPI PUSH2 0x2085 DUP4 DUP7 DUP4 PUSH2 0x1B6D JUMP JUMPDEST PUSH2 0x208F DUP4 DUP3 PUSH2 0x21E8 JUMP JUMPDEST PUSH2 0x20BA PUSH32 0x0 DUP6 DUP5 PUSH2 0x221C JUMP JUMPDEST DUP3 PUSH1 0x1 PUSH1 0x1 PUSH1 0xA0 SHL SUB AND DUP5 PUSH1 0x1 PUSH1 0x1 PUSH1 0xA0 SHL SUB AND DUP7 PUSH1 0x1 PUSH1 0x1 PUSH1 0xA0 SHL SUB AND PUSH32 0xFBDE797D201C681B91056529119E0B02407C7BB96A4A2C75C01FC9667232C8DB DUP6 DUP6 PUSH1 0x40 MLOAD PUSH2 0x2112 SWAP3 SWAP2 SWAP1 SWAP2 DUP3 MSTORE PUSH1 0x20 DUP3 ADD MSTORE PUSH1 0x40 ADD SWAP1 JUMP JUMPDEST PUSH1 0x40 MLOAD DUP1 SWAP2 SUB SWAP1 LOG4 POP POP POP POP POP JUMP JUMPDEST PUSH0 PUSH1 0x2 DUP3 PUSH1 0x3 DUP2 GT ISZERO PUSH2 0x2136 JUMPI PUSH2 0x2136 PUSH2 0x248B JUMP JUMPDEST PUSH2 0x2140 SWAP2 SWAP1 PUSH2 0x2A7C JUMP JUMPDEST PUSH1 0xFF AND PUSH1 0x1 EQ SWAP1 POP SWAP2 SWAP1 POP JUMP JUMPDEST PUSH1 0x40 MLOAD PUSH1 0x1 PUSH1 0x1 PUSH1 0xA0 SHL SUB DUP5 DUP2 AND PUSH1 0x24 DUP4 ADD MSTORE DUP4 DUP2 AND PUSH1 0x44 DUP4 ADD MSTORE PUSH1 0x64 DUP3 ADD DUP4 SWAP1 MSTORE PUSH2 0x1BCF SWAP2 DUP7 SWAP2 DUP3 AND SWAP1 PUSH4 0x23B872DD SWAP1 PUSH1 0x84 ADD JUMPDEST PUSH1 0x40 MLOAD PUSH1 0x20 DUP2 DUP4 SUB SUB DUP2 MSTORE SWAP1 PUSH1 0x40 MSTORE SWAP2 POP PUSH1 0xE0 SHL PUSH1 0x20 DUP3 ADD DUP1 MLOAD PUSH1 0x1 PUSH1 0x1 PUSH1 0xE0 SHL SUB DUP4 DUP2 DUP4 AND OR DUP4 MSTORE POP POP POP POP PUSH2 0x224D JUMP JUMPDEST PUSH1 0x1 PUSH1 0x1 PUSH1 0xA0 SHL SUB DUP3 AND PUSH2 0x21DD JUMPI PUSH1 0x40 MLOAD PUSH4 0xEC442F05 PUSH1 0xE0 SHL DUP2 MSTORE PUSH0 PUSH1 0x4 DUP3 ADD MSTORE PUSH1 0x24 ADD PUSH2 0x797 JUMP JUMPDEST PUSH2 0xA5F PUSH0 DUP4 DUP4 PUSH2 0x1ED7 JUMP JUMPDEST PUSH1 0x1 PUSH1 0x1 PUSH1 0xA0 SHL SUB DUP3 AND PUSH2 0x2211 JUMPI PUSH1 0x40 MLOAD PUSH4 0x4B637E8F PUSH1 0xE1 SHL DUP2 MSTORE PUSH0 PUSH1 0x4 DUP3 ADD MSTORE PUSH1 0x24 ADD PUSH2 0x797 JUMP JUMPDEST PUSH2 0xA5F DUP3 PUSH0 DUP4 PUSH2 0x1ED7 JUMP JUMPDEST PUSH1 0x40 MLOAD PUSH1 0x1 PUSH1 0x1 PUSH1 0xA0 SHL SUB DUP4 DUP2 AND PUSH1 0x24 DUP4 ADD MSTORE PUSH1 0x44 DUP3 ADD DUP4 SWAP1 MSTORE PUSH2 0x1731 SWAP2 DUP6 SWAP2 DUP3 AND SWAP1 PUSH4 0xA9059CBB SWAP1 PUSH1 0x64 ADD PUSH2 0x2182 JUMP JUMPDEST PUSH0 PUSH2 0x2261 PUSH1 0x1 PUSH1 0x1 PUSH1 0xA0 SHL SUB DUP5 AND DUP4 PUSH2 0x22AE JUMP JUMPDEST SWAP1 POP DUP1 MLOAD PUSH0 EQ ISZERO DUP1 ISZERO PUSH2 0x2285 JUMPI POP DUP1 DUP1 PUSH1 0x20 ADD SWAP1 MLOAD DUP2 ADD SWAP1 PUSH2 0x2283 SWAP2 SWAP1 PUSH2 0x26DA JUMP JUMPDEST ISZERO JUMPDEST ISZERO PUSH2 0x1731 JUMPI PUSH1 0x40 MLOAD PUSH4 0x5274AFE7 PUSH1 0xE0 SHL DUP2 MSTORE PUSH1 0x1 PUSH1 0x1 PUSH1 0xA0 SHL SUB DUP5 AND PUSH1 0x4 DUP3 ADD MSTORE PUSH1 0x24 ADD PUSH2 0x797 JUMP JUMPDEST PUSH1 0x60 PUSH2 0xD9A DUP4 DUP4 PUSH0 DUP5 PUSH0 DUP1 DUP6 PUSH1 0x1 PUSH1 0x1 PUSH1 0xA0 SHL SUB AND DUP5 DUP7 PUSH1 0x40 MLOAD PUSH2 0x22D2 SWAP2 SWAP1 PUSH2 0x294C JUMP JUMPDEST PUSH0 PUSH1 0x40 MLOAD DUP1 DUP4 SUB DUP2 DUP6 DUP8 GAS CALL SWAP3 POP POP POP RETURNDATASIZE DUP1 PUSH0 DUP2 EQ PUSH2 0x230C JUMPI PUSH1 0x40 MLOAD SWAP2 POP PUSH1 0x1F NOT PUSH1 0x3F RETURNDATASIZE ADD AND DUP3 ADD PUSH1 0x40 MSTORE RETURNDATASIZE DUP3 MSTORE RETURNDATASIZE PUSH0 PUSH1 0x20 DUP5 ADD RETURNDATACOPY PUSH2 0x2311 JUMP JUMPDEST PUSH1 0x60 SWAP2 POP JUMPDEST POP SWAP2 POP SWAP2 POP PUSH2 0x1DFB DUP7 DUP4 DUP4 PUSH1 0x60 DUP3 PUSH2 0x2331 JUMPI PUSH2 0x232C DUP3 PUSH2 0x2378 JUMP JUMPDEST PUSH2 0xD9A JUMP JUMPDEST DUP2 MLOAD ISZERO DUP1 ISZERO PUSH2 0x2348 JUMPI POP PUSH1 0x1 PUSH1 0x1 PUSH1 0xA0 SHL SUB DUP5 AND EXTCODESIZE ISZERO JUMPDEST ISZERO PUSH2 0x2371 JUMPI PUSH1 0x40 MLOAD PUSH4 0x9996B315 PUSH1 0xE0 SHL DUP2 MSTORE PUSH1 0x1 PUSH1 0x1 PUSH1 0xA0 SHL SUB DUP6 AND PUSH1 0x4 DUP3 ADD MSTORE PUSH1 0x24 ADD PUSH2 0x797 JUMP JUMPDEST POP DUP1 PUSH2 0xD9A JUMP JUMPDEST DUP1 MLOAD ISZERO PUSH2 0x2388 JUMPI DUP1 MLOAD DUP1 DUP3 PUSH1 0x20 ADD REVERT JUMPDEST PUSH1 0x40 MLOAD PUSH4 0xA12F521 PUSH1 0xE1 SHL DUP2 MSTORE PUSH1 0x4 ADD PUSH1 0x40 MLOAD DUP1 SWAP2 SUB SWAP1 REVERT JUMPDEST PUSH0 DUP1 PUSH1 0x40 DUP4 DUP6 SUB SLT ISZERO PUSH2 0x23B2 JUMPI PUSH0 DUP1 REVERT JUMPDEST DUP3 CALLDATALOAD SWAP2 POP PUSH1 0x20 DUP4 ADD CALLDATALOAD PUSH1 0x3 DUP2 LT PUSH2 0x23C7 JUMPI PUSH0 DUP1 REVERT JUMPDEST DUP1 SWAP2 POP POP SWAP3 POP SWAP3 SWAP1 POP JUMP JUMPDEST PUSH0 JUMPDEST DUP4 DUP2 LT ISZERO PUSH2 0x23EC JUMPI DUP2 DUP2 ADD MLOAD DUP4 DUP3 ADD MSTORE PUSH1 0x20 ADD PUSH2 0x23D4 JUMP JUMPDEST POP POP PUSH0 SWAP2 ADD MSTORE JUMP JUMPDEST PUSH0 DUP2 MLOAD DUP1 DUP5 MSTORE PUSH2 0x240B DUP2 PUSH1 0x20 DUP7 ADD PUSH1 0x20 DUP7 ADD PUSH2 0x23D2 JUMP JUMPDEST PUSH1 0x1F ADD PUSH1 0x1F NOT AND SWAP3 SWAP1 SWAP3 ADD PUSH1 0x20 ADD SWAP3 SWAP2 POP POP JUMP JUMPDEST PUSH1 0x20 DUP2 MSTORE PUSH0 PUSH2 0xD9A PUSH1 0x20 DUP4 ADD DUP5 PUSH2 0x23F4 JUMP JUMPDEST PUSH0 PUSH1 0x20 DUP3 DUP5 SUB SLT ISZERO PUSH2 0x2441 JUMPI PUSH0 DUP1 REVERT JUMPDEST POP CALLDATALOAD SWAP2 SWAP1 POP JUMP JUMPDEST DUP1 CALLDATALOAD PUSH1 0x1 PUSH1 0x1 PUSH1 0xA0 SHL SUB DUP2 AND DUP2 EQ PUSH2 0x245E JUMPI PUSH0 DUP1 REVERT JUMPDEST SWAP2 SWAP1 POP JUMP JUMPDEST PUSH0 DUP1 PUSH1 0x40 DUP4 DUP6 SUB SLT ISZERO PUSH2 0x2474 JUMPI PUSH0 DUP1 REVERT JUMPDEST PUSH2 0x247D DUP4 PUSH2 0x2448 JUMP JUMPDEST SWAP5 PUSH1 0x20 SWAP4 SWAP1 SWAP4 ADD CALLDATALOAD SWAP4 POP POP POP JUMP JUMPDEST PUSH4 0x4E487B71 PUSH1 0xE0 SHL PUSH0 MSTORE PUSH1 0x21 PUSH1 0x4 MSTORE PUSH1 0x24 PUSH0 REVERT JUMPDEST PUSH1 0x4 DUP2 LT PUSH2 0x24AF JUMPI PUSH2 0x24AF PUSH2 0x248B JUMP JUMPDEST SWAP1 MSTORE JUMP JUMPDEST PUSH1 0x3 DUP2 LT PUSH2 0x24AF JUMPI PUSH2 0x24AF PUSH2 0x248B JUMP JUMPDEST PUSH1 0x1 PUSH1 0x1 PUSH1 0xA0 SHL SUB DUP9 DUP2 AND DUP3 MSTORE DUP8 AND PUSH1 0x20 DUP3 ADD MSTORE PUSH1 0x40 DUP2 ADD DUP7 SWAP1 MSTORE PUSH1 0xE0 PUSH1 0x60 DUP3 ADD DUP2 SWAP1 MSTORE PUSH0 SWAP1 PUSH2 0x24F5 SWAP1 DUP4 ADD DUP8 PUSH2 0x23F4 JUMP JUMPDEST SWAP1 POP DUP5 PUSH1 0x80 DUP4 ADD MSTORE PUSH2 0x250A PUSH1 0xA0 DUP4 ADD DUP6 PUSH2 0x249F JUMP JUMPDEST PUSH2 0x2517 PUSH1 0xC0 DUP4 ADD DUP5 PUSH2 0x24B3 JUMP JUMPDEST SWAP9 SWAP8 POP POP POP POP POP POP POP POP JUMP JUMPDEST PUSH0 DUP1 PUSH0 PUSH1 0x60 DUP5 DUP7 SUB SLT ISZERO PUSH2 0x2535 JUMPI PUSH0 DUP1 REVERT JUMPDEST PUSH2 0x253E DUP5 PUSH2 0x2448 JUMP JUMPDEST SWAP3 POP PUSH2 0x254C PUSH1 0x20 DUP6 ADD PUSH2 0x2448 JUMP JUMPDEST SWAP2 POP PUSH1 0x40 DUP5 ADD CALLDATALOAD SWAP1 POP SWAP3 POP SWAP3 POP SWAP3 JUMP JUMPDEST PUSH0 PUSH1 0x20 DUP3 DUP5 SUB SLT ISZERO PUSH2 0x256C JUMPI PUSH0 DUP1 REVERT JUMPDEST PUSH2 0xD9A DUP3 PUSH2 0x2448 JUMP JUMPDEST PUSH0 DUP1 PUSH1 0x40 DUP4 DUP6 SUB SLT ISZERO PUSH2 0x2586 JUMPI PUSH0 DUP1 REVERT JUMPDEST DUP3 CALLDATALOAD SWAP2 POP PUSH2 0x2596 PUSH1 0x20 DUP5 ADD PUSH2 0x2448 JUMP JUMPDEST SWAP1 POP SWAP3 POP SWAP3 SWAP1 POP JUMP JUMPDEST PUSH4 0x4E487B71 PUSH1 0xE0 SHL PUSH0 MSTORE PUSH1 0x41 PUSH1 0x4 MSTORE PUSH1 0x24 PUSH0 REVERT JUMPDEST PUSH0 DUP1 PUSH1 0x40 DUP4 DUP6 SUB SLT ISZERO PUSH2 0x25C4 JUMPI PUSH0 DUP1 REVERT JUMPDEST DUP3 CALLDATALOAD PUSH8 0xFFFFFFFFFFFFFFFF DUP1 DUP3 GT ISZERO PUSH2 0x25DB JUMPI PUSH0 DUP1 REVERT JUMPDEST DUP2 DUP6 ADD SWAP2 POP DUP6 PUSH1 0x1F DUP4 ADD SLT PUSH2 0x25EE JUMPI PUSH0 DUP1 REVERT JUMPDEST DUP2 CALLDATALOAD DUP2 DUP2 GT ISZERO PUSH2 0x2600 JUMPI PUSH2 0x2600 PUSH2 0x259F JUMP JUMPDEST PUSH1 0x40 MLOAD PUSH1 0x1F DUP3 ADD PUSH1 0x1F NOT SWAP1 DUP2 AND PUSH1 0x3F ADD AND DUP2 ADD SWAP1 DUP4 DUP3 GT DUP2 DUP4 LT OR ISZERO PUSH2 0x2628 JUMPI PUSH2 0x2628 PUSH2 0x259F JUMP JUMPDEST DUP2 PUSH1 0x40 MSTORE DUP3 DUP2 MSTORE DUP9 PUSH1 0x20 DUP5 DUP8 ADD ADD GT ISZERO PUSH2 0x2640 JUMPI PUSH0 DUP1 REVERT JUMPDEST DUP3 PUSH1 0x20 DUP7 ADD PUSH1 0x20 DUP4 ADD CALLDATACOPY PUSH0 PUSH1 0x20 SWAP4 DUP3 ADD DUP5 ADD MSTORE SWAP9 SWAP7 SWAP1 SWAP2 ADD CALLDATALOAD SWAP7 POP POP POP POP POP POP JUMP JUMPDEST PUSH0 DUP1 PUSH0 PUSH1 0x60 DUP5 DUP7 SUB SLT ISZERO PUSH2 0x2674 JUMPI PUSH0 DUP1 REVERT JUMPDEST DUP4 CALLDATALOAD SWAP3 POP PUSH2 0x2684 PUSH1 0x20 DUP6 ADD PUSH2 0x2448 JUMP JUMPDEST SWAP2 POP PUSH2 0x2692 PUSH1 0x40 DUP6 ADD PUSH2 0x2448 JUMP JUMPDEST SWAP1 POP SWAP3 POP SWAP3 POP SWAP3 JUMP JUMPDEST PUSH0 DUP1 PUSH1 0x40 DUP4 DUP6 SUB SLT ISZERO PUSH2 0x26AC JUMPI PUSH0 DUP1 REVERT JUMPDEST PUSH2 0x26B5 DUP4 PUSH2 0x2448 JUMP JUMPDEST SWAP2 POP PUSH2 0x2596 PUSH1 0x20 DUP5 ADD PUSH2 0x2448 JUMP JUMPDEST PUSH0 PUSH1 0x20 DUP3 DUP5 SUB SLT ISZERO PUSH2 0x26D3 JUMPI PUSH0 DUP1 REVERT JUMPDEST POP MLOAD SWAP2 SWAP1 POP JUMP JUMPDEST PUSH0 PUSH1 0x20 DUP3 DUP5 SUB SLT ISZERO PUSH2 0x26EA JUMPI PUSH0 DUP1 REVERT JUMPDEST DUP2 MLOAD DUP1 ISZERO ISZERO DUP2 EQ PUSH2 0xD9A JUMPI PUSH0 DUP1 REVERT JUMPDEST DUP5 DUP2 MSTORE PUSH1 0x80 DUP2 ADD PUSH2 0x270D PUSH1 0x20 DUP4 ADD DUP7 PUSH2 0x249F JUMP JUMPDEST PUSH2 0x271A PUSH1 0x40 DUP4 ADD DUP6 PUSH2 0x24B3 JUMP JUMPDEST DUP3 PUSH1 0x60 DUP4 ADD MSTORE SWAP6 SWAP5 POP POP POP POP POP JUMP JUMPDEST PUSH1 0x1 DUP2 DUP2 SHR SWAP1 DUP3 AND DUP1 PUSH2 0x273D JUMPI PUSH1 0x7F DUP3 AND SWAP2 POP JUMPDEST PUSH1 0x20 DUP3 LT DUP2 SUB PUSH2 0x275B JUMPI PUSH4 0x4E487B71 PUSH1 0xE0 SHL PUSH0 MSTORE PUSH1 0x22 PUSH1 0x4 MSTORE PUSH1 0x24 PUSH0 REVERT JUMPDEST POP SWAP2 SWAP1 POP JUMP JUMPDEST PUSH1 0x20 DUP1 DUP3 MSTORE PUSH1 0x26 SWAP1 DUP3 ADD MSTORE PUSH32 0x496E737572616E63655661756C743A20436F6D70616E79206E6F742072656769 PUSH1 0x40 DUP3 ADD MSTORE PUSH6 0x1CDD195C9959 PUSH1 0xD2 SHL PUSH1 0x60 DUP3 ADD MSTORE PUSH1 0x80 ADD SWAP1 JUMP JUMPDEST PUSH4 0x4E487B71 PUSH1 0xE0 SHL PUSH0 MSTORE PUSH1 0x11 PUSH1 0x4 MSTORE PUSH1 0x24 PUSH0 REVERT JUMPDEST DUP2 DUP2 SUB DUP2 DUP2 GT ISZERO PUSH2 0xAFE JUMPI PUSH2 0xAFE PUSH2 0x27A7 JUMP JUMPDEST PUSH1 0xFF DUP2 DUP2 AND DUP4 DUP3 AND ADD SWAP1 DUP2 GT ISZERO PUSH2 0xAFE JUMPI PUSH2 0xAFE PUSH2 0x27A7 JUMP JUMPDEST PUSH1 0x1 PUSH1 0x1 PUSH1 0xA0 SHL SUB SWAP4 SWAP1 SWAP4 AND DUP4 MSTORE PUSH1 0x20 DUP4 ADD SWAP2 SWAP1 SWAP2 MSTORE PUSH1 0x40 DUP3 ADD MSTORE PUSH1 0x60 ADD SWAP1 JUMP JUMPDEST PUSH1 0x1F DUP3 GT ISZERO PUSH2 0x1731 JUMPI PUSH0 DUP2 DUP2 MSTORE PUSH1 0x20 DUP2 KECCAK256 PUSH1 0x1F DUP6 ADD PUSH1 0x5 SHR DUP2 ADD PUSH1 0x20 DUP7 LT ISZERO PUSH2 0x282E JUMPI POP DUP1 JUMPDEST PUSH1 0x1F DUP6 ADD PUSH1 0x5 SHR DUP3 ADD SWAP2 POP JUMPDEST DUP2 DUP2 LT ISZERO PUSH2 0x1B65 JUMPI DUP3 DUP2 SSTORE PUSH1 0x1 ADD PUSH2 0x283A JUMP JUMPDEST DUP2 MLOAD PUSH8 0xFFFFFFFFFFFFFFFF DUP2 GT ISZERO PUSH2 0x2867 JUMPI PUSH2 0x2867 PUSH2 0x259F JUMP JUMPDEST PUSH2 0x287B DUP2 PUSH2 0x2875 DUP5 SLOAD PUSH2 0x2729 JUMP JUMPDEST DUP5 PUSH2 0x2808 JUMP JUMPDEST PUSH1 0x20 DUP1 PUSH1 0x1F DUP4 GT PUSH1 0x1 DUP2 EQ PUSH2 0x28AE JUMPI PUSH0 DUP5 ISZERO PUSH2 0x2897 JUMPI POP DUP6 DUP4 ADD MLOAD JUMPDEST PUSH0 NOT PUSH1 0x3 DUP7 SWAP1 SHL SHR NOT AND PUSH1 0x1 DUP6 SWAP1 SHL OR DUP6 SSTORE PUSH2 0x1B65 JUMP JUMPDEST PUSH0 DUP6 DUP2 MSTORE PUSH1 0x20 DUP2 KECCAK256 PUSH1 0x1F NOT DUP7 AND SWAP2 JUMPDEST DUP3 DUP2 LT ISZERO PUSH2 0x28DC JUMPI DUP9 DUP7 ADD MLOAD DUP3 SSTORE SWAP5 DUP5 ADD SWAP5 PUSH1 0x1 SWAP1 SWAP2 ADD SWAP1 DUP5 ADD PUSH2 0x28BD JUMP JUMPDEST POP DUP6 DUP3 LT ISZERO PUSH2 0x28F9 JUMPI DUP8 DUP6 ADD MLOAD PUSH0 NOT PUSH1 0x3 DUP9 SWAP1 SHL PUSH1 0xF8 AND SHR NOT AND DUP2 SSTORE JUMPDEST POP POP POP POP POP PUSH1 0x1 SWAP1 DUP2 SHL ADD SWAP1 SSTORE POP JUMP JUMPDEST PUSH0 PUSH1 0x1 DUP3 ADD PUSH2 0x291A JUMPI PUSH2 0x291A PUSH2 0x27A7 JUMP JUMPDEST POP PUSH1 0x1 ADD SWAP1 JUMP JUMPDEST DUP5 DUP2 MSTORE PUSH1 0x80 PUSH1 0x20 DUP3 ADD MSTORE PUSH0 PUSH2 0x2939 PUSH1 0x80 DUP4 ADD DUP7 PUSH2 0x23F4 JUMP JUMPDEST PUSH1 0x40 DUP4 ADD SWAP5 SWAP1 SWAP5 MSTORE POP PUSH1 0x60 ADD MSTORE SWAP3 SWAP2 POP POP JUMP JUMPDEST PUSH0 DUP3 MLOAD PUSH2 0x295D DUP2 DUP5 PUSH1 0x20 DUP8 ADD PUSH2 0x23D2 JUMP JUMPDEST SWAP2 SWAP1 SWAP2 ADD SWAP3 SWAP2 POP POP JUMP JUMPDEST PUSH4 0x4E487B71 PUSH1 0xE0 SHL PUSH0 MSTORE PUSH1 0x12 PUSH1 0x4 MSTORE PUSH1 0x24 PUSH0 REVERT JUMPDEST DUP1 DUP3 ADD DUP1 DUP3 GT ISZERO PUSH2 0xAFE JUMPI PUSH2 0xAFE PUSH2 0x27A7 JUMP JUMPDEST PUSH1 0x1 DUP2 DUP2 JUMPDEST DUP1 DUP6 GT ISZERO PUSH2 0x29C8 JUMPI DUP2 PUSH0 NOT DIV DUP3 GT ISZERO PUSH2 0x29AE JUMPI PUSH2 0x29AE PUSH2 0x27A7 JUMP JUMPDEST DUP1 DUP6 AND ISZERO PUSH2 0x29BB JUMPI SWAP2 DUP2 MUL SWAP2 JUMPDEST SWAP4 DUP5 SHR SWAP4 SWAP1 DUP1 MUL SWAP1 PUSH2 0x2993 JUMP JUMPDEST POP SWAP3 POP SWAP3 SWAP1 POP JUMP JUMPDEST PUSH0 DUP3 PUSH2 0x29DE JUMPI POP PUSH1 0x1 PUSH2 0xAFE JUMP JUMPDEST DUP2 PUSH2 0x29EA JUMPI POP PUSH0 PUSH2 0xAFE JUMP JUMPDEST DUP2 PUSH1 0x1 DUP2 EQ PUSH2 0x2A00 JUMPI PUSH1 0x2 DUP2 EQ PUSH2 0x2A0A JUMPI PUSH2 0x2A26 JUMP JUMPDEST PUSH1 0x1 SWAP2 POP POP PUSH2 0xAFE JUMP JUMPDEST PUSH1 0xFF DUP5 GT ISZERO PUSH2 0x2A1B JUMPI PUSH2 0x2A1B PUSH2 0x27A7 JUMP JUMPDEST POP POP PUSH1 0x1 DUP3 SHL PUSH2 0xAFE JUMP JUMPDEST POP PUSH1 0x20 DUP4 LT PUSH2 0x133 DUP4 LT AND PUSH1 0x4E DUP5 LT PUSH1 0xB DUP5 LT AND OR ISZERO PUSH2 0x2A49 JUMPI POP DUP2 DUP2 EXP PUSH2 0xAFE JUMP JUMPDEST PUSH2 0x2A53 DUP4 DUP4 PUSH2 0x298E JUMP JUMPDEST DUP1 PUSH0 NOT DIV DUP3 GT ISZERO PUSH2 0x2A66 JUMPI PUSH2 0x2A66 PUSH2 0x27A7 JUMP JUMPDEST MUL SWAP4 SWAP3 POP POP POP JUMP JUMPDEST PUSH0 PUSH2 0xD9A PUSH1 0xFF DUP5 AND DUP4 PUSH2 0x29D0 JUMP JUMPDEST PUSH0 PUSH1 0xFF DUP4 AND DUP1 PUSH2 0x2A9A JUMPI PUSH4 0x4E487B71 PUSH1 0xE0 SHL PUSH0 MSTORE PUSH1 0x12 PUSH1 0x4 MSTORE PUSH1 0x24 PUSH0 REVERT JUMPDEST DUP1 PUSH1 0xFF DUP5 AND MOD SWAP2 POP POP SWAP3 SWAP2 POP POP JUMP INVALID LOG2 PUSH5 0x6970667358 0x22 SLT KECCAK256 LOG0 0xCD 0xD7 MSTORE8 CHAINID PUSH8 0x18ACE24B7C89C545 0x2E 0xB0 JUMPDEST RETURNDATACOPY 0xA5 EXTCODESIZE DUP12 0x49 DUP10 CREATE2 BLOCKHASH 0x4C PUSH11 0x8F98EDF6DA64736F6C6343 STOP ADDMOD EQ STOP CALLER "
		},
		"gasEstimates": {
			"creation": {
				"codeDepositCost": "2195000",
				"executionCost": "infinite",
				"totalCost": "infinite"
			},
			"external": {
				"COOLDOWN_PERIOD()": "229",
				"FIXED_PERIOD()": "272",
				"LOCKIN_PERIOD()": "295",
				"PREMIUM_PERIOD()": "316",
				"PREMIUM_RATE()": "317",
				"_claimProposals(uint256)": "infinite",
				"_depositsData(address)": "4808",
				"_insuranceData(address)": "15444",
				"allowance(address,address)": "infinite",
				"approve(address,uint256)": "24843",
				"asset()": "infinite",
				"balanceOf(address)": "2594",
				"controller()": "2490",
				"convertToAssets(uint256)": "infinite",
				"convertToShares(uint256)": "infinite",
				"decimals()": "infinite",
				"deposit(uint256,address)": "infinite",
				"depositPremium()": "infinite",
				"ghoToken()": "2447",
				"maxDeposit(address)": "389",
				"maxMint(address)": "455",
				"maxRedeem(address)": "2626",
				"maxWithdraw(address)": "infinite",
				"mint(uint256,address)": "infinite",
				"name()": "infinite",
				"previewDeposit(uint256)": "infinite",
				"previewMint(uint256)": "infinite",
				"previewRedeem(uint256)": "infinite",
				"previewWithdraw(uint256)": "infinite",
				"raiseDispute(uint256)": "infinite",
				"redeem(uint256,address,address)": "infinite",
				"registerInsurance(address,uint256)": "infinite",
				"requestClaim(string,uint256)": "infinite",
				"staking()": "infinite",
				"symbol()": "infinite",
				"totalAssets()": "infinite",
				"totalClaimProposals()": "2373",
				"totalSupply()": "2370",
				"transfer(address,uint256)": "51323",
				"transferFrom(address,address,uint256)": "infinite",
				"verifyClaim(uint256,uint8)": "infinite",
				"withdraw(uint256,address,address)": "infinite",
				"withdrawLockedAssets(address,uint256)": "infinite"
			},
			"internal": {
				"_deposit(address,address,uint256,uint256)": "infinite",
				"_withdraw(address,address,address,uint256,uint256)": "infinite"
			}
		},
		"methodIdentifiers": {
			"COOLDOWN_PERIOD()": "6e99d52f",
			"FIXED_PERIOD()": "c403bc9b",
			"LOCKIN_PERIOD()": "1be59c60",
			"PREMIUM_PERIOD()": "6bab30b7",
			"PREMIUM_RATE()": "1cb27ba4",
			"_claimProposals(uint256)": "147c21de",
			"_depositsData(address)": "f08ec66e",
			"_insuranceData(address)": "9c1a6a07",
			"allowance(address,address)": "dd62ed3e",
			"approve(address,uint256)": "095ea7b3",
			"asset()": "38d52e0f",
			"balanceOf(address)": "70a08231",
			"controller()": "f77c4791",
			"convertToAssets(uint256)": "07a2d13a",
			"convertToShares(uint256)": "c6e6f592",
			"decimals()": "313ce567",
			"deposit(uint256,address)": "6e553f65",
			"depositPremium()": "226df934",
			"ghoToken()": "5996db91",
			"maxDeposit(address)": "402d267d",
			"maxMint(address)": "c63d75b6",
			"maxRedeem(address)": "d905777e",
			"maxWithdraw(address)": "ce96cb77",
			"mint(uint256,address)": "94bf804d",
			"name()": "06fdde03",
			"previewDeposit(uint256)": "ef8b30f7",
			"previewMint(uint256)": "b3d7f6b9",
			"previewRedeem(uint256)": "4cdad506",
			"previewWithdraw(uint256)": "0a28a477",
			"raiseDispute(uint256)": "a5c1674e",
			"redeem(uint256,address,address)": "ba087652",
			"registerInsurance(address,uint256)": "33ac473b",
			"requestClaim(string,uint256)": "944866ec",
			"staking()": "4cf088d9",
			"symbol()": "95d89b41",
			"totalAssets()": "01e1d114",
			"totalClaimProposals()": "71498ae9",
			"totalSupply()": "18160ddd",
			"transfer(address,uint256)": "a9059cbb",
			"transferFrom(address,address,uint256)": "23b872dd",
			"verifyClaim(uint256,uint8)": "06092072",
			"withdraw(uint256,address,address)": "b460af94",
			"withdrawLockedAssets(address,uint256)": "ade8323f"
		}
	},
	"abi": [
		{
			"inputs": [
				{
					"internalType": "address",
					"name": "token0",
					"type": "address"
				},
				{
					"internalType": "address",
					"name": "_staking",
					"type": "address"
				}
			],
			"stateMutability": "nonpayable",
			"type": "constructor"
		},
		{
			"inputs": [
				{
					"internalType": "address",
					"name": "target",
					"type": "address"
				}
			],
			"name": "AddressEmptyCode",
			"type": "error"
		},
		{
			"inputs": [
				{
					"internalType": "address",
					"name": "account",
					"type": "address"
				}
			],
			"name": "AddressInsufficientBalance",
			"type": "error"
		},
		{
			"inputs": [
				{
					"internalType": "address",
					"name": "spender",
					"type": "address"
				},
				{
					"internalType": "uint256",
					"name": "allowance",
					"type": "uint256"
				},
				{
					"internalType": "uint256",
					"name": "needed",
					"type": "uint256"
				}
			],
			"name": "ERC20InsufficientAllowance",
			"type": "error"
		},
		{
			"inputs": [
				{
					"internalType": "address",
					"name": "sender",
					"type": "address"
				},
				{
					"internalType": "uint256",
					"name": "balance",
					"type": "uint256"
				},
				{
					"internalType": "uint256",
					"name": "needed",
					"type": "uint256"
				}
			],
			"name": "ERC20InsufficientBalance",
			"type": "error"
		},
		{
			"inputs": [
				{
					"internalType": "address",
					"name": "approver",
					"type": "address"
				}
			],
			"name": "ERC20InvalidApprover",
			"type": "error"
		},
		{
			"inputs": [
				{
					"internalType": "address",
					"name": "receiver",
					"type": "address"
				}
			],
			"name": "ERC20InvalidReceiver",
			"type": "error"
		},
		{
			"inputs": [
				{
					"internalType": "address",
					"name": "sender",
					"type": "address"
				}
			],
			"name": "ERC20InvalidSender",
			"type": "error"
		},
		{
			"inputs": [
				{
					"internalType": "address",
					"name": "spender",
					"type": "address"
				}
			],
			"name": "ERC20InvalidSpender",
			"type": "error"
		},
		{
			"inputs": [
				{
					"internalType": "address",
					"name": "receiver",
					"type": "address"
				},
				{
					"internalType": "uint256",
					"name": "assets",
					"type": "uint256"
				},
				{
					"internalType": "uint256",
					"name": "max",
					"type": "uint256"
				}
			],
			"name": "ERC4626ExceededMaxDeposit",
			"type": "error"
		},
		{
			"inputs": [
				{
					"internalType": "address",
					"name": "receiver",
					"type": "address"
				},
				{
					"internalType": "uint256",
					"name": "shares",
					"type": "uint256"
				},
				{
					"internalType": "uint256",
					"name": "max",
					"type": "uint256"
				}
			],
			"name": "ERC4626ExceededMaxMint",
			"type": "error"
		},
		{
			"inputs": [
				{
					"internalType": "address",
					"name": "owner",
					"type": "address"
				},
				{
					"internalType": "uint256",
					"name": "shares",
					"type": "uint256"
				},
				{
					"internalType": "uint256",
					"name": "max",
					"type": "uint256"
				}
			],
			"name": "ERC4626ExceededMaxRedeem",
			"type": "error"
		},
		{
			"inputs": [
				{
					"internalType": "address",
					"name": "owner",
					"type": "address"
				},
				{
					"internalType": "uint256",
					"name": "assets",
					"type": "uint256"
				},
				{
					"internalType": "uint256",
					"name": "max",
					"type": "uint256"
				}
			],
			"name": "ERC4626ExceededMaxWithdraw",
			"type": "error"
		},
		{
			"inputs": [],
			"name": "FailedInnerCall",
			"type": "error"
		},
		{
			"inputs": [],
			"name": "MathOverflowedMulDiv",
			"type": "error"
		},
		{
			"inputs": [
				{
					"internalType": "address",
					"name": "token",
					"type": "address"
				}
			],
			"name": "SafeERC20FailedOperation",
			"type": "error"
		},
		{
			"anonymous": false,
			"inputs": [
				{
					"indexed": true,
					"internalType": "address",
					"name": "owner",
					"type": "address"
				},
				{
					"indexed": true,
					"internalType": "address",
					"name": "spender",
					"type": "address"
				},
				{
					"indexed": false,
					"internalType": "uint256",
					"name": "value",
					"type": "uint256"
				}
			],
			"name": "Approval",
			"type": "event"
		},
		{
			"anonymous": false,
			"inputs": [
				{
					"indexed": false,
					"internalType": "uint256",
					"name": "claimId",
					"type": "uint256"
				},
				{
					"indexed": true,
					"internalType": "address",
					"name": "companyAddress",
					"type": "address"
				},
				{
					"indexed": false,
					"internalType": "string",
					"name": "proofCID",
					"type": "string"
				},
				{
					"indexed": false,
					"internalType": "uint256",
					"name": "claimAmount",
					"type": "uint256"
				},
				{
					"indexed": false,
					"internalType": "uint256",
					"name": "timestamp",
					"type": "uint256"
				}
			],
			"name": "ClaimRequested",
			"type": "event"
		},
		{
			"anonymous": false,
			"inputs": [
				{
					"indexed": false,
					"internalType": "uint256",
					"name": "claimId",
					"type": "uint256"
				},
				{
					"indexed": true,
					"internalType": "address",
					"name": "companyAddress",
					"type": "address"
				},
				{
					"indexed": true,
					"internalType": "address",
					"name": "verifierAddress",
					"type": "address"
				},
				{
					"indexed": false,
					"internalType": "enum InsuranceVault.ClaimStatus",
					"name": "_status",
					"type": "uint8"
				},
				{
					"indexed": false,
					"internalType": "enum InsuranceVault.ClaimResult",
					"name": "_result",
					"type": "uint8"
				},
				{
					"indexed": false,
					"internalType": "uint256",
					"name": "timestamp",
					"type": "uint256"
				}
			],
			"name": "ClaimSetteled",
			"type": "event"
		},
		{
			"anonymous": false,
			"inputs": [
				{
					"indexed": true,
					"internalType": "address",
					"name": "sender",
					"type": "address"
				},
				{
					"indexed": true,
					"internalType": "address",
					"name": "owner",
					"type": "address"
				},
				{
					"indexed": false,
					"internalType": "uint256",
					"name": "assets",
					"type": "uint256"
				},
				{
					"indexed": false,
					"internalType": "uint256",
					"name": "shares",
					"type": "uint256"
				}
			],
			"name": "Deposit",
			"type": "event"
		},
		{
			"anonymous": false,
			"inputs": [
				{
					"indexed": true,
					"internalType": "address",
					"name": "from",
					"type": "address"
				},
				{
					"indexed": true,
					"internalType": "address",
					"name": "to",
					"type": "address"
				},
				{
					"indexed": false,
					"internalType": "uint256",
					"name": "value",
					"type": "uint256"
				}
			],
			"name": "Transfer",
			"type": "event"
		},
		{
			"anonymous": false,
			"inputs": [
				{
					"indexed": true,
					"internalType": "address",
					"name": "sender",
					"type": "address"
				},
				{
					"indexed": true,
					"internalType": "address",
					"name": "receiver",
					"type": "address"
				},
				{
					"indexed": true,
					"internalType": "address",
					"name": "owner",
					"type": "address"
				},
				{
					"indexed": false,
					"internalType": "uint256",
					"name": "assets",
					"type": "uint256"
				},
				{
					"indexed": false,
					"internalType": "uint256",
					"name": "shares",
					"type": "uint256"
				}
			],
			"name": "Withdraw",
			"type": "event"
		},
		{
			"inputs": [],
			"name": "COOLDOWN_PERIOD",
			"outputs": [
				{
					"internalType": "uint256",
					"name": "",
					"type": "uint256"
				}
			],
			"stateMutability": "view",
			"type": "function"
		},
		{
			"inputs": [],
			"name": "FIXED_PERIOD",
			"outputs": [
				{
					"internalType": "uint256",
					"name": "",
					"type": "uint256"
				}
			],
			"stateMutability": "view",
			"type": "function"
		},
		{
			"inputs": [],
			"name": "LOCKIN_PERIOD",
			"outputs": [
				{
					"internalType": "uint256",
					"name": "",
					"type": "uint256"
				}
			],
			"stateMutability": "view",
			"type": "function"
		},
		{
			"inputs": [],
			"name": "PREMIUM_PERIOD",
			"outputs": [
				{
					"internalType": "uint256",
					"name": "",
					"type": "uint256"
				}
			],
			"stateMutability": "view",
			"type": "function"
		},
		{
			"inputs": [],
			"name": "PREMIUM_RATE",
			"outputs": [
				{
					"internalType": "uint256",
					"name": "",
					"type": "uint256"
				}
			],
			"stateMutability": "view",
			"type": "function"
		},
		{
			"inputs": [
				{
					"internalType": "uint256",
					"name": "",
					"type": "uint256"
				}
			],
			"name": "_claimProposals",
			"outputs": [
				{
					"internalType": "address",
					"name": "companyAddress",
					"type": "address"
				},
				{
					"internalType": "address",
					"name": "verifierAddress",
					"type": "address"
				},
				{
					"internalType": "uint256",
					"name": "claimAmount",
					"type": "uint256"
				},
				{
					"internalType": "string",
					"name": "proofCID",
					"type": "string"
				},
				{
					"internalType": "uint256",
					"name": "claimProposalTime",
					"type": "uint256"
				},
				{
					"internalType": "enum InsuranceVault.ClaimStatus",
					"name": "_status",
					"type": "uint8"
				},
				{
					"internalType": "enum InsuranceVault.ClaimResult",
					"name": "_result",
					"type": "uint8"
				}
			],
			"stateMutability": "view",
			"type": "function"
		},
		{
			"inputs": [
				{
					"internalType": "address",
					"name": "",
					"type": "address"
				}
			],
			"name": "_depositsData",
			"outputs": [
				{
					"internalType": "bool",
					"name": "hasDeposited",
					"type": "bool"
				},
				{
					"internalType": "uint256",
					"name": "time",
					"type": "uint256"
				}
			],
			"stateMutability": "view",
			"type": "function"
		},
		{
			"inputs": [
				{
					"internalType": "address",
					"name": "",
					"type": "address"
				}
			],
			"name": "_insuranceData",
			"outputs": [
				{
					"internalType": "address",
					"name": "companyAddress",
					"type": "address"
				},
				{
					"internalType": "uint256",
					"name": "insuredAmount",
					"type": "uint256"
				},
				{
					"internalType": "uint256",
					"name": "premium",
					"type": "uint256"
				},
				{
					"internalType": "uint256",
					"name": "lastPremiumDepositTime",
					"type": "uint256"
				},
				{
					"internalType": "uint256",
					"name": "registerationTime",
					"type": "uint256"
				},
				{
					"internalType": "uint256",
					"name": "lastClaimTime",
					"type": "uint256"
				},
				{
					"internalType": "uint256",
					"name": "lastClaimAmount",
					"type": "uint256"
				}
			],
			"stateMutability": "view",
			"type": "function"
		},
		{
			"inputs": [
				{
					"internalType": "address",
					"name": "owner",
					"type": "address"
				},
				{
					"internalType": "address",
					"name": "spender",
					"type": "address"
				}
			],
			"name": "allowance",
			"outputs": [
				{
					"internalType": "uint256",
					"name": "",
					"type": "uint256"
				}
			],
			"stateMutability": "view",
			"type": "function"
		},
		{
			"inputs": [
				{
					"internalType": "address",
					"name": "spender",
					"type": "address"
				},
				{
					"internalType": "uint256",
					"name": "value",
					"type": "uint256"
				}
			],
			"name": "approve",
			"outputs": [
				{
					"internalType": "bool",
					"name": "",
					"type": "bool"
				}
			],
			"stateMutability": "nonpayable",
			"type": "function"
		},
		{
			"inputs": [],
			"name": "asset",
			"outputs": [
				{
					"internalType": "address",
					"name": "",
					"type": "address"
				}
			],
			"stateMutability": "view",
			"type": "function"
		},
		{
			"inputs": [
				{
					"internalType": "address",
					"name": "account",
					"type": "address"
				}
			],
			"name": "balanceOf",
			"outputs": [
				{
					"internalType": "uint256",
					"name": "",
					"type": "uint256"
				}
			],
			"stateMutability": "view",
			"type": "function"
		},
		{
			"inputs": [],
			"name": "controller",
			"outputs": [
				{
					"internalType": "address",
					"name": "",
					"type": "address"
				}
			],
			"stateMutability": "view",
			"type": "function"
		},
		{
			"inputs": [
				{
					"internalType": "uint256",
					"name": "shares",
					"type": "uint256"
				}
			],
			"name": "convertToAssets",
			"outputs": [
				{
					"internalType": "uint256",
					"name": "",
					"type": "uint256"
				}
			],
			"stateMutability": "view",
			"type": "function"
		},
		{
			"inputs": [
				{
					"internalType": "uint256",
					"name": "assets",
					"type": "uint256"
				}
			],
			"name": "convertToShares",
			"outputs": [
				{
					"internalType": "uint256",
					"name": "",
					"type": "uint256"
				}
			],
			"stateMutability": "view",
			"type": "function"
		},
		{
			"inputs": [],
			"name": "decimals",
			"outputs": [
				{
					"internalType": "uint8",
					"name": "",
					"type": "uint8"
				}
			],
			"stateMutability": "view",
			"type": "function"
		},
		{
			"inputs": [
				{
					"internalType": "uint256",
					"name": "assets",
					"type": "uint256"
				},
				{
					"internalType": "address",
					"name": "receiver",
					"type": "address"
				}
			],
			"name": "deposit",
			"outputs": [
				{
					"internalType": "uint256",
					"name": "",
					"type": "uint256"
				}
			],
			"stateMutability": "nonpayable",
			"type": "function"
		},
		{
			"inputs": [],
			"name": "depositPremium",
			"outputs": [],
			"stateMutability": "nonpayable",
			"type": "function"
		},
		{
			"inputs": [],
			"name": "ghoToken",
			"outputs": [
				{
					"internalType": "contract IERC20",
					"name": "",
					"type": "address"
				}
			],
			"stateMutability": "view",
			"type": "function"
		},
		{
			"inputs": [
				{
					"internalType": "address",
					"name": "",
					"type": "address"
				}
			],
			"name": "maxDeposit",
			"outputs": [
				{
					"internalType": "uint256",
					"name": "",
					"type": "uint256"
				}
			],
			"stateMutability": "view",
			"type": "function"
		},
		{
			"inputs": [
				{
					"internalType": "address",
					"name": "",
					"type": "address"
				}
			],
			"name": "maxMint",
			"outputs": [
				{
					"internalType": "uint256",
					"name": "",
					"type": "uint256"
				}
			],
			"stateMutability": "view",
			"type": "function"
		},
		{
			"inputs": [
				{
					"internalType": "address",
					"name": "owner",
					"type": "address"
				}
			],
			"name": "maxRedeem",
			"outputs": [
				{
					"internalType": "uint256",
					"name": "",
					"type": "uint256"
				}
			],
			"stateMutability": "view",
			"type": "function"
		},
		{
			"inputs": [
				{
					"internalType": "address",
					"name": "owner",
					"type": "address"
				}
			],
			"name": "maxWithdraw",
			"outputs": [
				{
					"internalType": "uint256",
					"name": "",
					"type": "uint256"
				}
			],
			"stateMutability": "view",
			"type": "function"
		},
		{
			"inputs": [
				{
					"internalType": "uint256",
					"name": "shares",
					"type": "uint256"
				},
				{
					"internalType": "address",
					"name": "receiver",
					"type": "address"
				}
			],
			"name": "mint",
			"outputs": [
				{
					"internalType": "uint256",
					"name": "",
					"type": "uint256"
				}
			],
			"stateMutability": "nonpayable",
			"type": "function"
		},
		{
			"inputs": [],
			"name": "name",
			"outputs": [
				{
					"internalType": "string",
					"name": "",
					"type": "string"
				}
			],
			"stateMutability": "view",
			"type": "function"
		},
		{
			"inputs": [
				{
					"internalType": "uint256",
					"name": "assets",
					"type": "uint256"
				}
			],
			"name": "previewDeposit",
			"outputs": [
				{
					"internalType": "uint256",
					"name": "",
					"type": "uint256"
				}
			],
			"stateMutability": "view",
			"type": "function"
		},
		{
			"inputs": [
				{
					"internalType": "uint256",
					"name": "shares",
					"type": "uint256"
				}
			],
			"name": "previewMint",
			"outputs": [
				{
					"internalType": "uint256",
					"name": "",
					"type": "uint256"
				}
			],
			"stateMutability": "view",
			"type": "function"
		},
		{
			"inputs": [
				{
					"internalType": "uint256",
					"name": "shares",
					"type": "uint256"
				}
			],
			"name": "previewRedeem",
			"outputs": [
				{
					"internalType": "uint256",
					"name": "",
					"type": "uint256"
				}
			],
			"stateMutability": "view",
			"type": "function"
		},
		{
			"inputs": [
				{
					"internalType": "uint256",
					"name": "assets",
					"type": "uint256"
				}
			],
			"name": "previewWithdraw",
			"outputs": [
				{
					"internalType": "uint256",
					"name": "",
					"type": "uint256"
				}
			],
			"stateMutability": "view",
			"type": "function"
		},
		{
			"inputs": [
				{
					"internalType": "uint256",
					"name": "claimId",
					"type": "uint256"
				}
			],
			"name": "raiseDispute",
			"outputs": [],
			"stateMutability": "nonpayable",
			"type": "function"
		},
		{
			"inputs": [
				{
					"internalType": "uint256",
					"name": "shares",
					"type": "uint256"
				},
				{
					"internalType": "address",
					"name": "receiver",
					"type": "address"
				},
				{
					"internalType": "address",
					"name": "owner",
					"type": "address"
				}
			],
			"name": "redeem",
			"outputs": [
				{
					"internalType": "uint256",
					"name": "",
					"type": "uint256"
				}
			],
			"stateMutability": "nonpayable",
			"type": "function"
		},
		{
			"inputs": [
				{
					"internalType": "address",
					"name": "companyAddress",
					"type": "address"
				},
				{
					"internalType": "uint256",
					"name": "insuredAmount",
					"type": "uint256"
				}
			],
			"name": "registerInsurance",
			"outputs": [],
			"stateMutability": "nonpayable",
			"type": "function"
		},
		{
			"inputs": [
				{
					"internalType": "string",
					"name": "proofCID",
					"type": "string"
				},
				{
					"internalType": "uint256",
					"name": "claimAmount",
					"type": "uint256"
				}
			],
			"name": "requestClaim",
			"outputs": [
				{
					"internalType": "uint256",
					"name": "",
					"type": "uint256"
				}
			],
			"stateMutability": "nonpayable",
			"type": "function"
		},
		{
			"inputs": [],
			"name": "staking",
			"outputs": [
				{
					"internalType": "contract VerifierStaking",
					"name": "",
					"type": "address"
				}
			],
			"stateMutability": "view",
			"type": "function"
		},
		{
			"inputs": [],
			"name": "symbol",
			"outputs": [
				{
					"internalType": "string",
					"name": "",
					"type": "string"
				}
			],
			"stateMutability": "view",
			"type": "function"
		},
		{
			"inputs": [],
			"name": "totalAssets",
			"outputs": [
				{
					"internalType": "uint256",
					"name": "",
					"type": "uint256"
				}
			],
			"stateMutability": "view",
			"type": "function"
		},
		{
			"inputs": [],
			"name": "totalClaimProposals",
			"outputs": [
				{
					"internalType": "uint256",
					"name": "",
					"type": "uint256"
				}
			],
			"stateMutability": "view",
			"type": "function"
		},
		{
			"inputs": [],
			"name": "totalSupply",
			"outputs": [
				{
					"internalType": "uint256",
					"name": "",
					"type": "uint256"
				}
			],
			"stateMutability": "view",
			"type": "function"
		},
		{
			"inputs": [
				{
					"internalType": "address",
					"name": "to",
					"type": "address"
				},
				{
					"internalType": "uint256",
					"name": "value",
					"type": "uint256"
				}
			],
			"name": "transfer",
			"outputs": [
				{
					"internalType": "bool",
					"name": "",
					"type": "bool"
				}
			],
			"stateMutability": "nonpayable",
			"type": "function"
		},
		{
			"inputs": [
				{
					"internalType": "address",
					"name": "from",
					"type": "address"
				},
				{
					"internalType": "address",
					"name": "to",
					"type": "address"
				},
				{
					"internalType": "uint256",
					"name": "value",
					"type": "uint256"
				}
			],
			"name": "transferFrom",
			"outputs": [
				{
					"internalType": "bool",
					"name": "",
					"type": "bool"
				}
			],
			"stateMutability": "nonpayable",
			"type": "function"
		},
		{
			"inputs": [
				{
					"internalType": "uint256",
					"name": "claimId",
					"type": "uint256"
				},
				{
					"internalType": "enum InsuranceVault.ClaimResult",
					"name": "_decision",
					"type": "uint8"
				}
			],
			"name": "verifyClaim",
			"outputs": [],
			"stateMutability": "nonpayable",
			"type": "function"
		},
		{
			"inputs": [
				{
					"internalType": "uint256",
					"name": "assets",
					"type": "uint256"
				},
				{
					"internalType": "address",
					"name": "receiver",
					"type": "address"
				},
				{
					"internalType": "address",
					"name": "owner",
					"type": "address"
				}
			],
			"name": "withdraw",
			"outputs": [
				{
					"internalType": "uint256",
					"name": "",
					"type": "uint256"
				}
			],
			"stateMutability": "nonpayable",
			"type": "function"
		},
		{
			"inputs": [
				{
					"internalType": "address",
					"name": "asset",
					"type": "address"
				},
				{
					"internalType": "uint256",
					"name": "amount",
					"type": "uint256"
				}
			],
			"name": "withdrawLockedAssets",
			"outputs": [],
			"stateMutability": "nonpayable",
			"type": "function"
		}
	]
}