{
	"Staking.sol": {
		"VerifierStaking": {
			"abi": [
				{
					"inputs": [
						{
							"internalType": "address",
							"name": "token",
							"type": "address"
						},
						{
							"internalType": "address",
							"name": "_manager",
							"type": "address"
						}
					],
					"stateMutability": "nonpayable",
					"type": "constructor"
				},
				{
					"inputs": [
						{
							"internalType": "address",
							"name": "owner",
							"type": "address"
						}
					],
					"name": "OwnableInvalidOwner",
					"type": "error"
				},
				{
					"inputs": [
						{
							"internalType": "address",
							"name": "account",
							"type": "address"
						}
					],
					"name": "OwnableUnauthorizedAccount",
					"type": "error"
				},
				{
					"anonymous": false,
					"inputs": [
						{
							"indexed": true,
							"internalType": "address",
							"name": "previousOwner",
							"type": "address"
						},
						{
							"indexed": true,
							"internalType": "address",
							"name": "newOwner",
							"type": "address"
						}
					],
					"name": "OwnershipTransferred",
					"type": "event"
				},
				{
					"inputs": [
						{
							"internalType": "address",
							"name": "verifier",
							"type": "address"
						}
					],
					"name": "blockStake",
					"outputs": [],
					"stateMutability": "nonpayable",
					"type": "function"
				},
				{
					"inputs": [],
					"name": "ghoToken",
					"outputs": [
						{
							"internalType": "contract IERC20",
							"name": "",
							"type": "address"
						}
					],
					"stateMutability": "view",
					"type": "function"
				},
				{
					"inputs": [
						{
							"internalType": "address",
							"name": "",
							"type": "address"
						}
					],
					"name": "isVerifier",
					"outputs": [
						{
							"internalType": "bool",
							"name": "",
							"type": "bool"
						}
					],
					"stateMutability": "view",
					"type": "function"
				},
				{
					"inputs": [],
					"name": "manager",
					"outputs": [
						{
							"internalType": "address",
							"name": "",
							"type": "address"
						}
					],
					"stateMutability": "view",
					"type": "function"
				},
				{
					"inputs": [],
					"name": "owner",
					"outputs": [
						{
							"internalType": "address",
							"name": "",
							"type": "address"
						}
					],
					"stateMutability": "view",
					"type": "function"
				},
				{
					"inputs": [],
					"name": "renounceOwnership",
					"outputs": [],
					"stateMutability": "nonpayable",
					"type": "function"
				},
				{
					"inputs": [
						{
							"internalType": "address",
							"name": "_manager",
							"type": "address"
						}
					],
					"name": "setManager",
					"outputs": [],
					"stateMutability": "nonpayable",
					"type": "function"
				},
				{
					"inputs": [],
					"name": "stake",
					"outputs": [],
					"stateMutability": "nonpayable",
					"type": "function"
				},
				{
					"inputs": [
						{
							"internalType": "address",
							"name": "newOwner",
							"type": "address"
						}
					],
					"name": "transferOwnership",
					"outputs": [],
					"stateMutability": "nonpayable",
					"type": "function"
				},
				{
					"inputs": [],
					"name": "unstake",
					"outputs": [],
					"stateMutability": "nonpayable",
					"type": "function"
				}
			],
			"devdoc": {
				"errors": {
					"OwnableInvalidOwner(address)": [
						{
							"details": "The owner is not a valid owner account. (eg. `address(0)`)"
						}
					],
					"OwnableUnauthorizedAccount(address)": [
						{
							"details": "The caller account is not authorized to perform an operation."
						}
					]
				},
				"kind": "dev",
				"methods": {
					"owner()": {
						"details": "Returns the address of the current owner."
					},
					"renounceOwnership()": {
						"details": "Leaves the contract without owner. It will not be possible to call `onlyOwner` functions. Can only be called by the current owner. NOTE: Renouncing ownership will leave the contract without an owner, thereby disabling any functionality that is only available to the owner."
					},
					"transferOwnership(address)": {
						"details": "Transfers ownership of the contract to a new account (`newOwner`). Can only be called by the current owner."
					}
				},
				"version": 1
			},
			"evm": {
				"assembly": "    /* \"Staking.sol\":582:2262  contract VerifierStaking is Ownable {... */\n  mstore(0x40, 0x80)\n    /* \"Staking.sol\":730:909  constructor(address token, address _manager) Ownable(msg.sender) {... */\n  callvalue\n  dup1\n  iszero\n  tag_1\n  jumpi\n  0x00\n  dup1\n  revert\ntag_1:\n  pop\n  mload(0x40)\n  sub(codesize, bytecodeSize)\n  dup1\n  bytecodeSize\n  dup4\n  codecopy\n  dup2\n  add\n  0x40\n  dup2\n  swap1\n  mstore\n  tag_2\n  swap2\n  tag_3\n  jump\t// in\ntag_2:\n    /* \"Staking.sol\":783:793  msg.sender */\n  caller\n  dup1\n    /* \"@openzeppelin/contracts/access/Ownable.sol\":1269:1364  if (initialOwner == address(0)) {... */\n  tag_7\n  jumpi\n    /* \"@openzeppelin/contracts/access/Ownable.sol\":1322:1353  OwnableInvalidOwner(address(0)) */\n  mload(0x40)\n  shl(0xe0, 0x1e4fbdf7)\n  dup2\n  mstore\n    /* \"@openzeppelin/contracts/access/Ownable.sol\":1350:1351  0 */\n  0x00\n    /* \"@openzeppelin/contracts/access/Ownable.sol\":1322:1353  OwnableInvalidOwner(address(0)) */\n  0x04\n  dup3\n  add\n    /* \"#utility.yul\":640:691   */\n  mstore\n    /* \"#utility.yul\":613:631   */\n  0x24\n  add\n    /* \"@openzeppelin/contracts/access/Ownable.sol\":1322:1353  OwnableInvalidOwner(address(0)) */\n  mload(0x40)\n  dup1\n  swap2\n  sub\n  swap1\n  revert\n    /* \"@openzeppelin/contracts/access/Ownable.sol\":1269:1364  if (initialOwner == address(0)) {... */\ntag_7:\n    /* \"@openzeppelin/contracts/access/Ownable.sol\":1373:1405  _transferOwnership(initialOwner) */\n  tag_10\n    /* \"@openzeppelin/contracts/access/Ownable.sol\":1392:1404  initialOwner */\n  dup2\n    /* \"@openzeppelin/contracts/access/Ownable.sol\":1373:1391  _transferOwnership */\n  tag_11\n    /* \"@openzeppelin/contracts/access/Ownable.sol\":1373:1405  _transferOwnership(initialOwner) */\n  jump\t// in\ntag_10:\n  pop\n    /* \"Staking.sol\":805:813  ghoToken */\n  0x03\n    /* \"Staking.sol\":805:829  ghoToken = IERC20(token) */\n  dup1\n  sload\n  sub(shl(0xa0, 0x01), 0x01)\n  swap4\n  dup5\n  and\n  not(sub(shl(0xa0, 0x01), 0x01))\n  swap2\n  dup3\n  and\n  or\n  swap1\n  swap2\n  sstore\n    /* \"Staking.sol\":839:846  manager */\n  0x02\n    /* \"Staking.sol\":839:857  manager = _manager */\n  dup1\n  sload\n  swap3\n  swap1\n  swap4\n  and\n  swap2\n  and\n  or\n  swap1\n  sstore\n    /* \"Staking.sol\":582:2262  contract VerifierStaking is Ownable {... */\n  jump(tag_16)\n    /* \"@openzeppelin/contracts/access/Ownable.sol\":2912:3099  function _transferOwnership(address newOwner) internal virtual {... */\ntag_11:\n    /* \"@openzeppelin/contracts/access/Ownable.sol\":2985:3001  address oldOwner */\n  0x00\n    /* \"@openzeppelin/contracts/access/Ownable.sol\":3004:3010  _owner */\n  dup1\n  sload\n  sub(shl(0xa0, 0x01), 0x01)\n    /* \"@openzeppelin/contracts/access/Ownable.sol\":3020:3037  _owner = newOwner */\n  dup4\n  dup2\n  and\n  not(sub(shl(0xa0, 0x01), 0x01))\n  dup4\n  and\n  dup2\n  or\n  dup5\n  sstore\n    /* \"@openzeppelin/contracts/access/Ownable.sol\":3052:3092  OwnershipTransferred(oldOwner, newOwner) */\n  mload(0x40)\n    /* \"@openzeppelin/contracts/access/Ownable.sol\":3004:3010  _owner */\n  swap2\n  swap1\n  swap3\n  and\n  swap3\n  dup4\n  swap2\n    /* \"@openzeppelin/contracts/access/Ownable.sol\":3052:3092  OwnershipTransferred(oldOwner, newOwner) */\n  0x8be0079c531659141344cd1fd0a4f28419497f9722a3daafe3b4186f6b6457e0\n  swap2\n    /* \"@openzeppelin/contracts/access/Ownable.sol\":2985:3001  address oldOwner */\n  swap1\n    /* \"@openzeppelin/contracts/access/Ownable.sol\":3052:3092  OwnershipTransferred(oldOwner, newOwner) */\n  log3\n    /* \"@openzeppelin/contracts/access/Ownable.sol\":2975:3099  {... */\n  pop\n    /* \"@openzeppelin/contracts/access/Ownable.sol\":2912:3099  function _transferOwnership(address newOwner) internal virtual {... */\n  pop\n  jump\t// out\n    /* \"#utility.yul\":14:191   */\ntag_15:\n    /* \"#utility.yul\":93:106   */\n  dup1\n  mload\n  sub(shl(0xa0, 0x01), 0x01)\n    /* \"#utility.yul\":135:166   */\n  dup2\n  and\n    /* \"#utility.yul\":125:167   */\n  dup2\n  eq\n    /* \"#utility.yul\":115:185   */\n  tag_18\n  jumpi\n    /* \"#utility.yul\":181:182   */\n  0x00\n    /* \"#utility.yul\":178:179   */\n  dup1\n    /* \"#utility.yul\":171:183   */\n  revert\n    /* \"#utility.yul\":115:185   */\ntag_18:\n    /* \"#utility.yul\":14:191   */\n  swap2\n  swap1\n  pop\n  jump\t// out\n    /* \"#utility.yul\":196:489   */\ntag_3:\n    /* \"#utility.yul\":275:281   */\n  0x00\n    /* \"#utility.yul\":283:289   */\n  dup1\n    /* \"#utility.yul\":336:338   */\n  0x40\n    /* \"#utility.yul\":324:333   */\n  dup4\n    /* \"#utility.yul\":315:322   */\n  dup6\n    /* \"#utility.yul\":311:334   */\n  sub\n    /* \"#utility.yul\":307:339   */\n  slt\n    /* \"#utility.yul\":304:356   */\n  iszero\n  tag_20\n  jumpi\n    /* \"#utility.yul\":352:353   */\n  0x00\n    /* \"#utility.yul\":349:350   */\n  dup1\n    /* \"#utility.yul\":342:354   */\n  revert\n    /* \"#utility.yul\":304:356   */\ntag_20:\n    /* \"#utility.yul\":375:415   */\n  tag_21\n    /* \"#utility.yul\":405:414   */\n  dup4\n    /* \"#utility.yul\":375:415   */\n  tag_15\n  jump\t// in\ntag_21:\n    /* \"#utility.yul\":365:415   */\n  swap2\n  pop\n    /* \"#utility.yul\":434:483   */\n  tag_22\n    /* \"#utility.yul\":479:481   */\n  0x20\n    /* \"#utility.yul\":468:477   */\n  dup5\n    /* \"#utility.yul\":464:482   */\n  add\n    /* \"#utility.yul\":434:483   */\n  tag_15\n  jump\t// in\ntag_22:\n    /* \"#utility.yul\":424:483   */\n  swap1\n  pop\n    /* \"#utility.yul\":196:489   */\n  swap3\n  pop\n  swap3\n  swap1\n  pop\n  jump\t// out\n    /* \"#utility.yul\":494:697   */\ntag_16:\n    /* \"Staking.sol\":582:2262  contract VerifierStaking is Ownable {... */\n  dataSize(sub_0)\n  dup1\n  dataOffset(sub_0)\n  0x00\n  codecopy\n  0x00\n  return\nstop\n\nsub_0: assembly {\n        /* \"Staking.sol\":582:2262  contract VerifierStaking is Ownable {... */\n      mstore(0x40, 0x80)\n      callvalue\n      dup1\n      iszero\n      tag_1\n      jumpi\n      0x00\n      dup1\n      revert\n    tag_1:\n      pop\n      jumpi(tag_2, lt(calldatasize, 0x04))\n      shr(0xe0, calldataload(0x00))\n      dup1\n      0x715018a6\n      gt\n      tag_13\n      jumpi\n      dup1\n      0x715018a6\n      eq\n      tag_8\n      jumpi\n      dup1\n      0x8da5cb5b\n      eq\n      tag_9\n      jumpi\n      dup1\n      0xd0ebdbe7\n      eq\n      tag_10\n      jumpi\n      dup1\n      0xf2fde38b\n      eq\n      tag_11\n      jumpi\n      dup1\n      0xf4add3b5\n      eq\n      tag_12\n      jumpi\n      0x00\n      dup1\n      revert\n    tag_13:\n      dup1\n      0x2def6620\n      eq\n      tag_3\n      jumpi\n      dup1\n      0x33105218\n      eq\n      tag_4\n      jumpi\n      dup1\n      0x3a4b66f1\n      eq\n      tag_5\n      jumpi\n      dup1\n      0x481c6a75\n      eq\n      tag_6\n      jumpi\n      dup1\n      0x5996db91\n      eq\n      tag_7\n      jumpi\n    tag_2:\n      0x00\n      dup1\n      revert\n        /* \"Staking.sol\":1586:1999  function unstake() public {... */\n    tag_3:\n      tag_14\n      tag_15\n      jump\t// in\n    tag_14:\n      stop\n        /* \"Staking.sol\":624:666  mapping(address => bool) public isVerifier */\n    tag_4:\n      tag_16\n      tag_17\n      calldatasize\n      0x04\n      tag_18\n      jump\t// in\n    tag_17:\n      mstore(0x20, 0x01)\n      0x00\n      swap1\n      dup2\n      mstore\n      0x40\n      swap1\n      keccak256\n      sload\n      0xff\n      and\n      dup2\n      jump\n    tag_16:\n      mload(0x40)\n        /* \"#utility.yul\":470:484   */\n      swap1\n      iszero\n        /* \"#utility.yul\":463:485   */\n      iszero\n        /* \"#utility.yul\":445:486   */\n      dup2\n      mstore\n        /* \"#utility.yul\":433:435   */\n      0x20\n        /* \"#utility.yul\":418:436   */\n      add\n        /* \"Staking.sol\":624:666  mapping(address => bool) public isVerifier */\n    tag_20:\n      mload(0x40)\n      dup1\n      swap2\n      sub\n      swap1\n      return\n        /* \"Staking.sol\":1113:1580  function stake() public {... */\n    tag_5:\n      tag_14\n      tag_23\n      jump\t// in\n        /* \"Staking.sol\":672:694  address public manager */\n    tag_6:\n      sload(0x02)\n      tag_24\n      swap1\n      sub(shl(0xa0, 0x01), 0x01)\n      and\n      dup2\n      jump\n    tag_24:\n      mload(0x40)\n      sub(shl(0xa0, 0x01), 0x01)\n        /* \"#utility.yul\":661:693   */\n      swap1\n      swap2\n      and\n        /* \"#utility.yul\":643:694   */\n      dup2\n      mstore\n        /* \"#utility.yul\":631:633   */\n      0x20\n        /* \"#utility.yul\":616:634   */\n      add\n        /* \"Staking.sol\":672:694  address public manager */\n      tag_20\n        /* \"#utility.yul\":497:700   */\n      jump\n        /* \"Staking.sol\":701:723  IERC20 public ghoToken */\n    tag_7:\n      sload(0x03)\n      tag_24\n      swap1\n      sub(shl(0xa0, 0x01), 0x01)\n      and\n      dup2\n      jump\n        /* \"@openzeppelin/contracts/access/Ownable.sol\":2293:2394  function renounceOwnership() public virtual onlyOwner {... */\n    tag_8:\n      tag_14\n      tag_33\n      jump\t// in\n        /* \"@openzeppelin/contracts/access/Ownable.sol\":1638:1723  function owner() public view virtual returns (address) {... */\n    tag_9:\n        /* \"@openzeppelin/contracts/access/Ownable.sol\":1684:1691  address */\n      0x00\n        /* \"@openzeppelin/contracts/access/Ownable.sol\":1710:1716  _owner */\n      sload\n      sub(shl(0xa0, 0x01), 0x01)\n      and\n        /* \"@openzeppelin/contracts/access/Ownable.sol\":1638:1723  function owner() public view virtual returns (address) {... */\n      jump(tag_24)\n        /* \"Staking.sol\":915:1005  function setManager(address _manager) public onlyOwner {... */\n    tag_10:\n      tag_14\n      tag_38\n      calldatasize\n      0x04\n      tag_18\n      jump\t// in\n    tag_38:\n      tag_39\n      jump\t// in\n        /* \"@openzeppelin/contracts/access/Ownable.sol\":2543:2758  function transferOwnership(address newOwner) public virtual onlyOwner {... */\n    tag_11:\n      tag_14\n      tag_41\n      calldatasize\n      0x04\n      tag_18\n      jump\t// in\n    tag_41:\n      tag_42\n      jump\t// in\n        /* \"Staking.sol\":2005:2260  function blockStake(address verifier) public onlyManager {... */\n    tag_12:\n      tag_14\n      tag_44\n      calldatasize\n      0x04\n      tag_18\n      jump\t// in\n    tag_44:\n      tag_45\n      jump\t// in\n        /* \"Staking.sol\":1586:1999  function unstake() public {... */\n    tag_15:\n        /* \"Staking.sol\":1641:1651  msg.sender */\n      caller\n        /* \"Staking.sol\":1630:1652  isVerifier[msg.sender] */\n      0x00\n      swap1\n      dup2\n      mstore\n        /* \"Staking.sol\":1630:1640  isVerifier */\n      0x01\n        /* \"Staking.sol\":1630:1652  isVerifier[msg.sender] */\n      0x20\n      dup2\n      swap1\n      mstore\n      0x40\n      swap1\n      swap2\n      keccak256\n      sload\n      0xff\n      and\n        /* \"Staking.sol\":1630:1660  isVerifier[msg.sender] == true */\n      iszero\n      iszero\n      eq\n        /* \"Staking.sol\":1622:1679  require(isVerifier[msg.sender] == true, \"NOT A VERIFIER\") */\n      tag_47\n      jumpi\n      mload(0x40)\n      shl(0xe5, 0x461bcd)\n      dup2\n      mstore\n        /* \"#utility.yul\":1129:1131   */\n      0x20\n        /* \"Staking.sol\":1622:1679  require(isVerifier[msg.sender] == true, \"NOT A VERIFIER\") */\n      0x04\n      dup3\n      add\n        /* \"#utility.yul\":1111:1132   */\n      mstore\n        /* \"#utility.yul\":1168:1170   */\n      0x0e\n        /* \"#utility.yul\":1148:1166   */\n      0x24\n      dup3\n      add\n        /* \"#utility.yul\":1141:1171   */\n      mstore\n      shl(0x91, 0x2727aa1020902b22a924a324a2a9)\n        /* \"#utility.yul\":1187:1205   */\n      0x44\n      dup3\n      add\n        /* \"#utility.yul\":1180:1224   */\n      mstore\n        /* \"#utility.yul\":1241:1259   */\n      0x64\n      add\n        /* \"Staking.sol\":1622:1679  require(isVerifier[msg.sender] == true, \"NOT A VERIFIER\") */\n    tag_48:\n      mload(0x40)\n      dup1\n      swap2\n      sub\n      swap1\n      revert\n    tag_47:\n        /* \"Staking.sol\":1778:1788  msg.sender */\n      caller\n        /* \"Staking.sol\":1792:1797  false */\n      0x00\n        /* \"Staking.sol\":1767:1789  isVerifier[msg.sender] */\n      dup2\n      dup2\n      mstore\n        /* \"Staking.sol\":1767:1777  isVerifier */\n      0x01\n        /* \"Staking.sol\":1767:1789  isVerifier[msg.sender] */\n      0x20\n      mstore\n      0x40\n      swap1\n      keccak256\n        /* \"Staking.sol\":1767:1797  isVerifier[msg.sender] = false */\n      dup1\n      sload\n      not(0xff)\n      and\n      swap1\n      sstore\n        /* \"Staking.sol\":1902:1910  ghoToken */\n      sload(0x03)\n        /* \"Staking.sol\":1824:1839  1000 * 10 ** 18 */\n      0x3635c9adc5dea00000\n      swap2\n        /* \"Staking.sol\":1849:1992  TransferHelper.safeTransferFrom(... */\n      tag_50\n      swap2\n      sub(shl(0xa0, 0x01), 0x01)\n        /* \"Staking.sol\":1902:1910  ghoToken */\n      and\n      swap1\n        /* \"Staking.sol\":1933:1937  this */\n      address\n      swap1\n        /* \"Staking.sol\":1824:1839  1000 * 10 ** 18 */\n      dup5\n        /* \"Staking.sol\":1849:1880  TransferHelper.safeTransferFrom */\n      tag_51\n        /* \"Staking.sol\":1849:1992  TransferHelper.safeTransferFrom(... */\n      jump\t// in\n    tag_50:\n        /* \"Staking.sol\":1612:1999  {... */\n      pop\n        /* \"Staking.sol\":1586:1999  function unstake() public {... */\n      jump\t// out\n        /* \"Staking.sol\":1113:1580  function stake() public {... */\n    tag_23:\n        /* \"Staking.sol\":1233:1241  ghoToken */\n      sload(0x03)\n        /* \"Staking.sol\":1233:1278  ghoToken.allowance(msg.sender, address(this)) */\n      mload(0x40)\n      shl(0xe1, 0x6eb1769f)\n      dup2\n      mstore\n        /* \"Staking.sol\":1252:1262  msg.sender */\n      caller\n        /* \"Staking.sol\":1233:1278  ghoToken.allowance(msg.sender, address(this)) */\n      0x04\n      dup3\n      add\n        /* \"#utility.yul\":1482:1516   */\n      mstore\n        /* \"Staking.sol\":1272:1276  this */\n      address\n        /* \"#utility.yul\":1532:1550   */\n      0x24\n      dup3\n      add\n        /* \"#utility.yul\":1525:1568   */\n      mstore\n        /* \"Staking.sol\":1282:1297  1000 * 10 ** 18 */\n      0x3635c9adc5dea00000\n      swap2\n      sub(shl(0xa0, 0x01), 0x01)\n        /* \"Staking.sol\":1233:1241  ghoToken */\n      and\n      swap1\n        /* \"Staking.sol\":1233:1251  ghoToken.allowance */\n      0xdd62ed3e\n      swap1\n        /* \"#utility.yul\":1417:1435   */\n      0x44\n      add\n        /* \"Staking.sol\":1233:1278  ghoToken.allowance(msg.sender, address(this)) */\n      0x20\n      mload(0x40)\n      dup1\n      dup4\n      sub\n      dup2\n      dup7\n      gas\n      staticcall\n      iszero\n      dup1\n      iszero\n      tag_56\n      jumpi\n      returndatasize\n      0x00\n      dup1\n      returndatacopy\n      revert(0x00, returndatasize)\n    tag_56:\n      pop\n      pop\n      pop\n      pop\n      mload(0x40)\n      returndatasize\n      not(0x1f)\n      0x1f\n      dup3\n      add\n      and\n      dup3\n      add\n      dup1\n      0x40\n      mstore\n      pop\n      dup2\n      add\n      swap1\n      tag_57\n      swap2\n      swap1\n      tag_58\n      jump\t// in\n    tag_57:\n        /* \"Staking.sol\":1233:1297  ghoToken.allowance(msg.sender, address(this)) >= 1000 * 10 ** 18 */\n      lt\n      iszero\n        /* \"Staking.sol\":1212:1342  require(... */\n      tag_59\n      jumpi\n      mload(0x40)\n      shl(0xe5, 0x461bcd)\n      dup2\n      mstore\n        /* \"#utility.yul\":1970:1972   */\n      0x20\n        /* \"Staking.sol\":1212:1342  require(... */\n      0x04\n      dup3\n      add\n        /* \"#utility.yul\":1952:1973   */\n      mstore\n        /* \"#utility.yul\":2009:2011   */\n      0x13\n        /* \"#utility.yul\":1989:2007   */\n      0x24\n      dup3\n      add\n        /* \"#utility.yul\":1982:2012   */\n      mstore\n      shl(0x6a, 0x1513d2d15394c81393d5081054141493d59151)\n        /* \"#utility.yul\":2028:2046   */\n      0x44\n      dup3\n      add\n        /* \"#utility.yul\":2021:2070   */\n      mstore\n        /* \"#utility.yul\":2087:2105   */\n      0x64\n      add\n        /* \"Staking.sol\":1212:1342  require(... */\n      tag_48\n        /* \"#utility.yul\":1768:2111   */\n      jump\n        /* \"Staking.sol\":1212:1342  require(... */\n    tag_59:\n        /* \"Staking.sol\":1371:1381  msg.sender */\n      caller\n        /* \"Staking.sol\":1360:1382  isVerifier[msg.sender] */\n      0x00\n      swap1\n      dup2\n      mstore\n        /* \"Staking.sol\":1360:1370  isVerifier */\n      0x01\n        /* \"Staking.sol\":1360:1382  isVerifier[msg.sender] */\n      0x20\n      mstore\n      0x40\n      swap1\n      keccak256\n      sload\n      0xff\n      and\n        /* \"Staking.sol\":1360:1391  isVerifier[msg.sender] == false */\n      iszero\n        /* \"Staking.sol\":1352:1414  require(isVerifier[msg.sender] == false, \"ALREADY A VERIFIER\") */\n      tag_62\n      jumpi\n      mload(0x40)\n      shl(0xe5, 0x461bcd)\n      dup2\n      mstore\n        /* \"#utility.yul\":2318:2320   */\n      0x20\n        /* \"Staking.sol\":1352:1414  require(isVerifier[msg.sender] == false, \"ALREADY A VERIFIER\") */\n      0x04\n      dup3\n      add\n        /* \"#utility.yul\":2300:2321   */\n      mstore\n        /* \"#utility.yul\":2357:2359   */\n      0x12\n        /* \"#utility.yul\":2337:2355   */\n      0x24\n      dup3\n      add\n        /* \"#utility.yul\":2330:2360   */\n      mstore\n      shl(0x71, 0x20a62922a0a22c9020902b22a924a324a2a9)\n        /* \"#utility.yul\":2376:2394   */\n      0x44\n      dup3\n      add\n        /* \"#utility.yul\":2369:2417   */\n      mstore\n        /* \"#utility.yul\":2434:2452   */\n      0x64\n      add\n        /* \"Staking.sol\":1352:1414  require(isVerifier[msg.sender] == false, \"ALREADY A VERIFIER\") */\n      tag_48\n        /* \"#utility.yul\":2116:2458   */\n      jump\n        /* \"Staking.sol\":1352:1414  require(isVerifier[msg.sender] == false, \"ALREADY A VERIFIER\") */\n    tag_62:\n        /* \"Staking.sol\":1503:1511  ghoToken */\n      sload(0x03)\n        /* \"Staking.sol\":1442:1457  1000 * 10 ** 18 */\n      0x3635c9adc5dea00000\n      swap1\n        /* \"Staking.sol\":1467:1533  TransferHelper.safeTransfer(address(ghoToken), msg.sender, amount) */\n      tag_65\n      swap1\n      sub(shl(0xa0, 0x01), 0x01)\n        /* \"Staking.sol\":1503:1511  ghoToken */\n      and\n        /* \"Staking.sol\":1514:1524  msg.sender */\n      caller\n        /* \"Staking.sol\":1442:1457  1000 * 10 ** 18 */\n      dup4\n        /* \"Staking.sol\":1467:1494  TransferHelper.safeTransfer */\n      tag_66\n        /* \"Staking.sol\":1467:1533  TransferHelper.safeTransfer(address(ghoToken), msg.sender, amount) */\n      jump\t// in\n    tag_65:\n      pop\n        /* \"Staking.sol\":1555:1565  msg.sender */\n      caller\n        /* \"Staking.sol\":1544:1566  isVerifier[msg.sender] */\n      0x00\n      swap1\n      dup2\n      mstore\n        /* \"Staking.sol\":1569:1573  true */\n      0x01\n        /* \"Staking.sol\":1544:1566  isVerifier[msg.sender] */\n      0x20\n      dup2\n      swap1\n      mstore\n      0x40\n      swap1\n      swap2\n      keccak256\n        /* \"Staking.sol\":1544:1573  isVerifier[msg.sender] = true */\n      dup1\n      sload\n      not(0xff)\n      and\n      swap1\n      swap2\n      or\n      swap1\n      sstore\n        /* \"Staking.sol\":1113:1580  function stake() public {... */\n      jump\t// out\n        /* \"@openzeppelin/contracts/access/Ownable.sol\":2293:2394  function renounceOwnership() public virtual onlyOwner {... */\n    tag_33:\n        /* \"@openzeppelin/contracts/access/Ownable.sol\":1531:1544  _checkOwner() */\n      tag_68\n        /* \"@openzeppelin/contracts/access/Ownable.sol\":1531:1542  _checkOwner */\n      tag_69\n        /* \"@openzeppelin/contracts/access/Ownable.sol\":1531:1544  _checkOwner() */\n      jump\t// in\n    tag_68:\n        /* \"@openzeppelin/contracts/access/Ownable.sol\":2357:2387  _transferOwnership(address(0)) */\n      tag_71\n        /* \"@openzeppelin/contracts/access/Ownable.sol\":2384:2385  0 */\n      0x00\n        /* \"@openzeppelin/contracts/access/Ownable.sol\":2357:2375  _transferOwnership */\n      tag_72\n        /* \"@openzeppelin/contracts/access/Ownable.sol\":2357:2387  _transferOwnership(address(0)) */\n      jump\t// in\n    tag_71:\n        /* \"@openzeppelin/contracts/access/Ownable.sol\":2293:2394  function renounceOwnership() public virtual onlyOwner {... */\n      jump\t// out\n        /* \"Staking.sol\":915:1005  function setManager(address _manager) public onlyOwner {... */\n    tag_39:\n        /* \"@openzeppelin/contracts/access/Ownable.sol\":1531:1544  _checkOwner() */\n      tag_75\n        /* \"@openzeppelin/contracts/access/Ownable.sol\":1531:1542  _checkOwner */\n      tag_69\n        /* \"@openzeppelin/contracts/access/Ownable.sol\":1531:1544  _checkOwner() */\n      jump\t// in\n    tag_75:\n        /* \"Staking.sol\":980:987  manager */\n      0x02\n        /* \"Staking.sol\":980:998  manager = _manager */\n      dup1\n      sload\n      not(sub(shl(0xa0, 0x01), 0x01))\n      and\n      sub(shl(0xa0, 0x01), 0x01)\n      swap3\n      swap1\n      swap3\n      and\n      swap2\n      swap1\n      swap2\n      or\n      swap1\n      sstore\n        /* \"Staking.sol\":915:1005  function setManager(address _manager) public onlyOwner {... */\n      jump\t// out\n        /* \"@openzeppelin/contracts/access/Ownable.sol\":2543:2758  function transferOwnership(address newOwner) public virtual onlyOwner {... */\n    tag_42:\n        /* \"@openzeppelin/contracts/access/Ownable.sol\":1531:1544  _checkOwner() */\n      tag_78\n        /* \"@openzeppelin/contracts/access/Ownable.sol\":1531:1542  _checkOwner */\n      tag_69\n        /* \"@openzeppelin/contracts/access/Ownable.sol\":1531:1544  _checkOwner() */\n      jump\t// in\n    tag_78:\n      sub(shl(0xa0, 0x01), 0x01)\n        /* \"@openzeppelin/contracts/access/Ownable.sol\":2627:2649  newOwner == address(0) */\n      dup2\n      and\n        /* \"@openzeppelin/contracts/access/Ownable.sol\":2623:2714  if (newOwner == address(0)) {... */\n      tag_80\n      jumpi\n        /* \"@openzeppelin/contracts/access/Ownable.sol\":2672:2703  OwnableInvalidOwner(address(0)) */\n      mload(0x40)\n      shl(0xe0, 0x1e4fbdf7)\n      dup2\n      mstore\n        /* \"@openzeppelin/contracts/access/Ownable.sol\":2700:2701  0 */\n      0x00\n        /* \"@openzeppelin/contracts/access/Ownable.sol\":2672:2703  OwnableInvalidOwner(address(0)) */\n      0x04\n      dup3\n      add\n        /* \"#utility.yul\":643:694   */\n      mstore\n        /* \"#utility.yul\":616:634   */\n      0x24\n      add\n        /* \"@openzeppelin/contracts/access/Ownable.sol\":2672:2703  OwnableInvalidOwner(address(0)) */\n      tag_48\n        /* \"#utility.yul\":497:700   */\n      jump\n        /* \"@openzeppelin/contracts/access/Ownable.sol\":2623:2714  if (newOwner == address(0)) {... */\n    tag_80:\n        /* \"@openzeppelin/contracts/access/Ownable.sol\":2723:2751  _transferOwnership(newOwner) */\n      tag_50\n        /* \"@openzeppelin/contracts/access/Ownable.sol\":2742:2750  newOwner */\n      dup2\n        /* \"@openzeppelin/contracts/access/Ownable.sol\":2723:2741  _transferOwnership */\n      tag_72\n        /* \"@openzeppelin/contracts/access/Ownable.sol\":2723:2751  _transferOwnership(newOwner) */\n      jump\t// in\n        /* \"Staking.sol\":2005:2260  function blockStake(address verifier) public onlyManager {... */\n    tag_45:\n        /* \"Staking.sol\":1066:1073  manager */\n      and(sub(shl(0xa0, 0x01), 0x01), sload(0x02))\n        /* \"Staking.sol\":1052:1062  msg.sender */\n      caller\n        /* \"Staking.sol\":1052:1073  msg.sender == manager */\n      eq\n        /* \"Staking.sol\":1044:1089  require(msg.sender == manager, \"NOT MANAGER\") */\n      tag_84\n      jumpi\n      mload(0x40)\n      shl(0xe5, 0x461bcd)\n      dup2\n      mstore\n        /* \"#utility.yul\":2665:2667   */\n      0x20\n        /* \"Staking.sol\":1044:1089  require(msg.sender == manager, \"NOT MANAGER\") */\n      0x04\n      dup3\n      add\n        /* \"#utility.yul\":2647:2668   */\n      mstore\n        /* \"#utility.yul\":2704:2706   */\n      0x0b\n        /* \"#utility.yul\":2684:2702   */\n      0x24\n      dup3\n      add\n        /* \"#utility.yul\":2677:2707   */\n      mstore\n      shl(0xa9, 0x2727aa1026a0a720a3a2a9)\n        /* \"#utility.yul\":2723:2741   */\n      0x44\n      dup3\n      add\n        /* \"#utility.yul\":2716:2757   */\n      mstore\n        /* \"#utility.yul\":2774:2792   */\n      0x64\n      add\n        /* \"Staking.sol\":1044:1089  require(msg.sender == manager, \"NOT MANAGER\") */\n      tag_48\n        /* \"#utility.yul\":2463:2798   */\n      jump\n        /* \"Staking.sol\":1044:1089  require(msg.sender == manager, \"NOT MANAGER\") */\n    tag_84:\n      sub(shl(0xa0, 0x01), 0x01)\n        /* \"Staking.sol\":2080:2100  isVerifier[verifier] */\n      dup2\n      and\n      0x00\n      swap1\n      dup2\n      mstore\n        /* \"Staking.sol\":2080:2090  isVerifier */\n      0x01\n        /* \"Staking.sol\":2080:2100  isVerifier[verifier] */\n      0x20\n      dup2\n      swap1\n      mstore\n      0x40\n      swap1\n      swap2\n      keccak256\n      sload\n      0xff\n      and\n        /* \"Staking.sol\":2080:2108  isVerifier[verifier] == true */\n      iszero\n      iszero\n      eq\n        /* \"Staking.sol\":2072:2127  require(isVerifier[verifier] == true, \"NOT A VERIFIER\") */\n      tag_88\n      jumpi\n      mload(0x40)\n      shl(0xe5, 0x461bcd)\n      dup2\n      mstore\n        /* \"#utility.yul\":1129:1131   */\n      0x20\n        /* \"Staking.sol\":2072:2127  require(isVerifier[verifier] == true, \"NOT A VERIFIER\") */\n      0x04\n      dup3\n      add\n        /* \"#utility.yul\":1111:1132   */\n      mstore\n        /* \"#utility.yul\":1168:1170   */\n      0x0e\n        /* \"#utility.yul\":1148:1166   */\n      0x24\n      dup3\n      add\n        /* \"#utility.yul\":1141:1171   */\n      mstore\n      shl(0x91, 0x2727aa1020902b22a924a324a2a9)\n        /* \"#utility.yul\":1187:1205   */\n      0x44\n      dup3\n      add\n        /* \"#utility.yul\":1180:1224   */\n      mstore\n        /* \"#utility.yul\":1241:1259   */\n      0x64\n      add\n        /* \"Staking.sol\":2072:2127  require(isVerifier[verifier] == true, \"NOT A VERIFIER\") */\n      tag_48\n        /* \"#utility.yul\":927:1265   */\n      jump\n        /* \"Staking.sol\":2072:2127  require(isVerifier[verifier] == true, \"NOT A VERIFIER\") */\n    tag_88:\n      sub(shl(0xa0, 0x01), 0x01)\n        /* \"Staking.sol\":2225:2245  isVerifier[verifier] */\n      and\n        /* \"Staking.sol\":2248:2253  false */\n      0x00\n        /* \"Staking.sol\":2225:2245  isVerifier[verifier] */\n      swap1\n      dup2\n      mstore\n        /* \"Staking.sol\":2225:2235  isVerifier */\n      0x01\n        /* \"Staking.sol\":2225:2245  isVerifier[verifier] */\n      0x20\n      mstore\n      0x40\n      swap1\n      keccak256\n        /* \"Staking.sol\":2225:2253  isVerifier[verifier] = false */\n      dup1\n      sload\n      not(0xff)\n      and\n      swap1\n      sstore\n        /* \"Staking.sol\":2005:2260  function blockStake(address verifier) public onlyManager {... */\n      jump\t// out\n        /* \"@uniswap/v3-periphery/contracts/libraries/TransferHelper.sol\":561:919  function safeTransferFrom(... */\n    tag_51:\n        /* \"@uniswap/v3-periphery/contracts/libraries/TransferHelper.sol\":759:828  abi.encodeWithSelector(IERC20.transferFrom.selector, from, to, value) */\n      0x40\n      dup1\n      mload\n      sub(shl(0xa0, 0x01), 0x01)\n        /* \"#utility.yul\":3061:3076   */\n      dup6\n      dup2\n      and\n        /* \"@uniswap/v3-periphery/contracts/libraries/TransferHelper.sol\":759:828  abi.encodeWithSelector(IERC20.transferFrom.selector, from, to, value) */\n      0x24\n      dup4\n      add\n        /* \"#utility.yul\":3043:3077   */\n      mstore\n        /* \"#utility.yul\":3113:3128   */\n      dup5\n      dup2\n      and\n        /* \"#utility.yul\":3093:3111   */\n      0x44\n      dup4\n      add\n        /* \"#utility.yul\":3086:3129   */\n      mstore\n        /* \"#utility.yul\":3145:3163   */\n      0x64\n      dup1\n      dup4\n      add\n        /* \"#utility.yul\":3138:3172   */\n      dup6\n      swap1\n      mstore\n        /* \"@uniswap/v3-periphery/contracts/libraries/TransferHelper.sol\":759:828  abi.encodeWithSelector(IERC20.transferFrom.selector, from, to, value) */\n      dup4\n      mload\n      dup1\n      dup5\n      sub\n      swap1\n      swap2\n      add\n      dup2\n      mstore\n        /* \"#utility.yul\":2978:2996   */\n      0x84\n      swap1\n      swap3\n      add\n        /* \"@uniswap/v3-periphery/contracts/libraries/TransferHelper.sol\":759:828  abi.encodeWithSelector(IERC20.transferFrom.selector, from, to, value) */\n      dup4\n      mstore\n      0x20\n      dup3\n      add\n      dup1\n      mload\n      sub(shl(0xe0, 0x01), 0x01)\n      and\n      shl(0xe0, 0x23b872dd)\n      or\n      swap1\n      mstore\n        /* \"@uniswap/v3-periphery/contracts/libraries/TransferHelper.sol\":748:829  token.call(abi.encodeWithSelector(IERC20.transferFrom.selector, from, to, value)) */\n      swap2\n      mload\n      0x00\n      swap3\n      dup4\n      swap3\n        /* \"@uniswap/v3-periphery/contracts/libraries/TransferHelper.sol\":748:758  token.call */\n      swap1\n      dup9\n      and\n      swap2\n        /* \"@uniswap/v3-periphery/contracts/libraries/TransferHelper.sol\":748:829  token.call(abi.encodeWithSelector(IERC20.transferFrom.selector, from, to, value)) */\n      tag_93\n      swap2\n        /* \"@uniswap/v3-periphery/contracts/libraries/TransferHelper.sol\":759:828  abi.encodeWithSelector(IERC20.transferFrom.selector, from, to, value) */\n      swap1\n        /* \"@uniswap/v3-periphery/contracts/libraries/TransferHelper.sol\":748:829  token.call(abi.encodeWithSelector(IERC20.transferFrom.selector, from, to, value)) */\n      tag_94\n      jump\t// in\n    tag_93:\n      0x00\n      mload(0x40)\n      dup1\n      dup4\n      sub\n      dup2\n      0x00\n      dup7\n      gas\n      call\n      swap2\n      pop\n      pop\n      returndatasize\n      dup1\n      0x00\n      dup2\n      eq\n      tag_97\n      jumpi\n      mload(0x40)\n      swap2\n      pop\n      and(add(returndatasize, 0x3f), not(0x1f))\n      dup3\n      add\n      0x40\n      mstore\n      returndatasize\n      dup3\n      mstore\n      returndatasize\n      0x00\n      0x20\n      dup5\n      add\n      returndatacopy\n      jump(tag_96)\n    tag_97:\n      0x60\n      swap2\n      pop\n    tag_96:\n      pop\n        /* \"@uniswap/v3-periphery/contracts/libraries/TransferHelper.sol\":700:829  (bool success, bytes memory data) =... */\n      swap2\n      pop\n      swap2\n      pop\n        /* \"@uniswap/v3-periphery/contracts/libraries/TransferHelper.sol\":847:854  success */\n      dup2\n        /* \"@uniswap/v3-periphery/contracts/libraries/TransferHelper.sol\":847:904  success && (data.length == 0 || abi.decode(data, (bool))) */\n      dup1\n      iszero\n      tag_100\n      jumpi\n      pop\n        /* \"@uniswap/v3-periphery/contracts/libraries/TransferHelper.sol\":859:870  data.length */\n      dup1\n      mload\n        /* \"@uniswap/v3-periphery/contracts/libraries/TransferHelper.sol\":859:875  data.length == 0 */\n      iszero\n      dup1\n        /* \"@uniswap/v3-periphery/contracts/libraries/TransferHelper.sol\":859:903  data.length == 0 || abi.decode(data, (bool)) */\n      tag_100\n      jumpi\n      pop\n        /* \"@uniswap/v3-periphery/contracts/libraries/TransferHelper.sol\":890:894  data */\n      dup1\n        /* \"@uniswap/v3-periphery/contracts/libraries/TransferHelper.sol\":879:903  abi.decode(data, (bool)) */\n      dup1\n      0x20\n      add\n      swap1\n      mload\n      dup2\n      add\n      swap1\n      tag_100\n      swap2\n      swap1\n      tag_101\n      jump\t// in\n    tag_100:\n        /* \"@uniswap/v3-periphery/contracts/libraries/TransferHelper.sol\":839:912  require(success && (data.length == 0 || abi.decode(data, (bool))), 'STF') */\n      tag_102\n      jumpi\n      mload(0x40)\n      shl(0xe5, 0x461bcd)\n      dup2\n      mstore\n        /* \"#utility.yul\":4084:4086   */\n      0x20\n        /* \"@uniswap/v3-periphery/contracts/libraries/TransferHelper.sol\":839:912  require(success && (data.length == 0 || abi.decode(data, (bool))), 'STF') */\n      0x04\n      dup3\n      add\n        /* \"#utility.yul\":4066:4087   */\n      mstore\n        /* \"#utility.yul\":4123:4124   */\n      0x03\n        /* \"#utility.yul\":4103:4121   */\n      0x24\n      dup3\n      add\n        /* \"#utility.yul\":4096:4125   */\n      mstore\n      shl(0xe9, 0x29aa23)\n        /* \"#utility.yul\":4141:4159   */\n      0x44\n      dup3\n      add\n        /* \"#utility.yul\":4134:4167   */\n      mstore\n        /* \"#utility.yul\":4184:4202   */\n      0x64\n      add\n        /* \"@uniswap/v3-periphery/contracts/libraries/TransferHelper.sol\":839:912  require(success && (data.length == 0 || abi.decode(data, (bool))), 'STF') */\n      tag_48\n        /* \"#utility.yul\":3882:4208   */\n      jump\n        /* \"@uniswap/v3-periphery/contracts/libraries/TransferHelper.sol\":839:912  require(success && (data.length == 0 || abi.decode(data, (bool))), 'STF') */\n    tag_102:\n        /* \"@uniswap/v3-periphery/contracts/libraries/TransferHelper.sol\":690:919  {... */\n      pop\n      pop\n        /* \"@uniswap/v3-periphery/contracts/libraries/TransferHelper.sol\":561:919  function safeTransferFrom(... */\n      pop\n      pop\n      pop\n      pop\n      jump\t// out\n        /* \"@uniswap/v3-periphery/contracts/libraries/TransferHelper.sol\":1211:1520  function safeTransfer(... */\n    tag_66:\n        /* \"@uniswap/v3-periphery/contracts/libraries/TransferHelper.sol\":1371:1430  abi.encodeWithSelector(IERC20.transfer.selector, to, value) */\n      0x40\n      dup1\n      mload\n      sub(shl(0xa0, 0x01), 0x01)\n        /* \"#utility.yul\":4405:4437   */\n      dup5\n      dup2\n      and\n        /* \"@uniswap/v3-periphery/contracts/libraries/TransferHelper.sol\":1371:1430  abi.encodeWithSelector(IERC20.transfer.selector, to, value) */\n      0x24\n      dup4\n      add\n        /* \"#utility.yul\":4387:4438   */\n      mstore\n        /* \"#utility.yul\":4454:4472   */\n      0x44\n      dup1\n      dup4\n      add\n        /* \"#utility.yul\":4447:4481   */\n      dup6\n      swap1\n      mstore\n        /* \"@uniswap/v3-periphery/contracts/libraries/TransferHelper.sol\":1371:1430  abi.encodeWithSelector(IERC20.transfer.selector, to, value) */\n      dup4\n      mload\n      dup1\n      dup5\n      sub\n      swap1\n      swap2\n      add\n      dup2\n      mstore\n        /* \"#utility.yul\":4360:4378   */\n      0x64\n      swap1\n      swap3\n      add\n        /* \"@uniswap/v3-periphery/contracts/libraries/TransferHelper.sol\":1371:1430  abi.encodeWithSelector(IERC20.transfer.selector, to, value) */\n      dup4\n      mstore\n      0x20\n      dup3\n      add\n      dup1\n      mload\n      sub(shl(0xe0, 0x01), 0x01)\n      and\n      shl(0xe0, 0xa9059cbb)\n      or\n      swap1\n      mstore\n        /* \"@uniswap/v3-periphery/contracts/libraries/TransferHelper.sol\":1360:1431  token.call(abi.encodeWithSelector(IERC20.transfer.selector, to, value)) */\n      swap2\n      mload\n      0x00\n      swap3\n      dup4\n      swap3\n        /* \"@uniswap/v3-periphery/contracts/libraries/TransferHelper.sol\":1360:1370  token.call */\n      swap1\n      dup8\n      and\n      swap2\n        /* \"@uniswap/v3-periphery/contracts/libraries/TransferHelper.sol\":1360:1431  token.call(abi.encodeWithSelector(IERC20.transfer.selector, to, value)) */\n      tag_108\n      swap2\n        /* \"@uniswap/v3-periphery/contracts/libraries/TransferHelper.sol\":1371:1430  abi.encodeWithSelector(IERC20.transfer.selector, to, value) */\n      swap1\n        /* \"@uniswap/v3-periphery/contracts/libraries/TransferHelper.sol\":1360:1431  token.call(abi.encodeWithSelector(IERC20.transfer.selector, to, value)) */\n      tag_94\n      jump\t// in\n    tag_108:\n      0x00\n      mload(0x40)\n      dup1\n      dup4\n      sub\n      dup2\n      0x00\n      dup7\n      gas\n      call\n      swap2\n      pop\n      pop\n      returndatasize\n      dup1\n      0x00\n      dup2\n      eq\n      tag_111\n      jumpi\n      mload(0x40)\n      swap2\n      pop\n      and(add(returndatasize, 0x3f), not(0x1f))\n      dup3\n      add\n      0x40\n      mstore\n      returndatasize\n      dup3\n      mstore\n      returndatasize\n      0x00\n      0x20\n      dup5\n      add\n      returndatacopy\n      jump(tag_110)\n    tag_111:\n      0x60\n      swap2\n      pop\n    tag_110:\n      pop\n        /* \"@uniswap/v3-periphery/contracts/libraries/TransferHelper.sol\":1324:1431  (bool success, bytes memory data) = token.call(abi.encodeWithSelector(IERC20.transfer.selector, to, value)) */\n      swap2\n      pop\n      swap2\n      pop\n        /* \"@uniswap/v3-periphery/contracts/libraries/TransferHelper.sol\":1449:1456  success */\n      dup2\n        /* \"@uniswap/v3-periphery/contracts/libraries/TransferHelper.sol\":1449:1506  success && (data.length == 0 || abi.decode(data, (bool))) */\n      dup1\n      iszero\n      tag_114\n      jumpi\n      pop\n        /* \"@uniswap/v3-periphery/contracts/libraries/TransferHelper.sol\":1461:1472  data.length */\n      dup1\n      mload\n        /* \"@uniswap/v3-periphery/contracts/libraries/TransferHelper.sol\":1461:1477  data.length == 0 */\n      iszero\n      dup1\n        /* \"@uniswap/v3-periphery/contracts/libraries/TransferHelper.sol\":1461:1505  data.length == 0 || abi.decode(data, (bool)) */\n      tag_114\n      jumpi\n      pop\n        /* \"@uniswap/v3-periphery/contracts/libraries/TransferHelper.sol\":1492:1496  data */\n      dup1\n        /* \"@uniswap/v3-periphery/contracts/libraries/TransferHelper.sol\":1481:1505  abi.decode(data, (bool)) */\n      dup1\n      0x20\n      add\n      swap1\n      mload\n      dup2\n      add\n      swap1\n      tag_114\n      swap2\n      swap1\n      tag_101\n      jump\t// in\n    tag_114:\n        /* \"@uniswap/v3-periphery/contracts/libraries/TransferHelper.sol\":1441:1513  require(success && (data.length == 0 || abi.decode(data, (bool))), 'ST') */\n      tag_115\n      jumpi\n      mload(0x40)\n      shl(0xe5, 0x461bcd)\n      dup2\n      mstore\n        /* \"#utility.yul\":4694:4696   */\n      0x20\n        /* \"@uniswap/v3-periphery/contracts/libraries/TransferHelper.sol\":1441:1513  require(success && (data.length == 0 || abi.decode(data, (bool))), 'ST') */\n      0x04\n      dup3\n      add\n        /* \"#utility.yul\":4676:4697   */\n      mstore\n        /* \"#utility.yul\":4733:4734   */\n      0x02\n        /* \"#utility.yul\":4713:4731   */\n      0x24\n      dup3\n      add\n        /* \"#utility.yul\":4706:4735   */\n      mstore\n      shl(0xf2, 0x14d5)\n        /* \"#utility.yul\":4751:4769   */\n      0x44\n      dup3\n      add\n        /* \"#utility.yul\":4744:4776   */\n      mstore\n        /* \"#utility.yul\":4793:4811   */\n      0x64\n      add\n        /* \"@uniswap/v3-periphery/contracts/libraries/TransferHelper.sol\":1441:1513  require(success && (data.length == 0 || abi.decode(data, (bool))), 'ST') */\n      tag_48\n        /* \"#utility.yul\":4492:4817   */\n      jump\n        /* \"@uniswap/v3-periphery/contracts/libraries/TransferHelper.sol\":1441:1513  require(success && (data.length == 0 || abi.decode(data, (bool))), 'ST') */\n    tag_115:\n        /* \"@uniswap/v3-periphery/contracts/libraries/TransferHelper.sol\":1314:1520  {... */\n      pop\n      pop\n        /* \"@uniswap/v3-periphery/contracts/libraries/TransferHelper.sol\":1211:1520  function safeTransfer(... */\n      pop\n      pop\n      pop\n      jump\t// out\n        /* \"@openzeppelin/contracts/access/Ownable.sol\":1796:1958  function _checkOwner() internal view virtual {... */\n    tag_69:\n        /* \"@openzeppelin/contracts/access/Ownable.sol\":1684:1691  address */\n      0x00\n        /* \"@openzeppelin/contracts/access/Ownable.sol\":1710:1716  _owner */\n      sload\n      sub(shl(0xa0, 0x01), 0x01)\n      and\n        /* \"@openzeppelin/contracts/utils/Context.sol\":735:745  msg.sender */\n      caller\n        /* \"@openzeppelin/contracts/access/Ownable.sol\":1855:1878  owner() != _msgSender() */\n      eq\n        /* \"@openzeppelin/contracts/access/Ownable.sol\":1851:1952  if (owner() != _msgSender()) {... */\n      tag_71\n      jumpi\n        /* \"@openzeppelin/contracts/access/Ownable.sol\":1901:1941  OwnableUnauthorizedAccount(_msgSender()) */\n      mload(0x40)\n      shl(0xe0, 0x118cdaa7)\n      dup2\n      mstore\n        /* \"@openzeppelin/contracts/utils/Context.sol\":735:745  msg.sender */\n      caller\n        /* \"@openzeppelin/contracts/access/Ownable.sol\":1901:1941  OwnableUnauthorizedAccount(_msgSender()) */\n      0x04\n      dup3\n      add\n        /* \"#utility.yul\":643:694   */\n      mstore\n        /* \"#utility.yul\":616:634   */\n      0x24\n      add\n        /* \"@openzeppelin/contracts/access/Ownable.sol\":1901:1941  OwnableUnauthorizedAccount(_msgSender()) */\n      tag_48\n        /* \"#utility.yul\":497:700   */\n      jump\n        /* \"@openzeppelin/contracts/access/Ownable.sol\":2912:3099  function _transferOwnership(address newOwner) internal virtual {... */\n    tag_72:\n        /* \"@openzeppelin/contracts/access/Ownable.sol\":2985:3001  address oldOwner */\n      0x00\n        /* \"@openzeppelin/contracts/access/Ownable.sol\":3004:3010  _owner */\n      dup1\n      sload\n      sub(shl(0xa0, 0x01), 0x01)\n        /* \"@openzeppelin/contracts/access/Ownable.sol\":3020:3037  _owner = newOwner */\n      dup4\n      dup2\n      and\n      not(sub(shl(0xa0, 0x01), 0x01))\n      dup4\n      and\n      dup2\n      or\n      dup5\n      sstore\n        /* \"@openzeppelin/contracts/access/Ownable.sol\":3052:3092  OwnershipTransferred(oldOwner, newOwner) */\n      mload(0x40)\n        /* \"@openzeppelin/contracts/access/Ownable.sol\":3004:3010  _owner */\n      swap2\n      swap1\n      swap3\n      and\n      swap3\n      dup4\n      swap2\n        /* \"@openzeppelin/contracts/access/Ownable.sol\":3052:3092  OwnershipTransferred(oldOwner, newOwner) */\n      0x8be0079c531659141344cd1fd0a4f28419497f9722a3daafe3b4186f6b6457e0\n      swap2\n        /* \"@openzeppelin/contracts/access/Ownable.sol\":2985:3001  address oldOwner */\n      swap1\n        /* \"@openzeppelin/contracts/access/Ownable.sol\":3052:3092  OwnershipTransferred(oldOwner, newOwner) */\n      log3\n        /* \"@openzeppelin/contracts/access/Ownable.sol\":2975:3099  {... */\n      pop\n        /* \"@openzeppelin/contracts/access/Ownable.sol\":2912:3099  function _transferOwnership(address newOwner) internal virtual {... */\n      pop\n      jump\t// out\n        /* \"#utility.yul\":14:300   */\n    tag_18:\n        /* \"#utility.yul\":73:79   */\n      0x00\n        /* \"#utility.yul\":126:128   */\n      0x20\n        /* \"#utility.yul\":114:123   */\n      dup3\n        /* \"#utility.yul\":105:112   */\n      dup5\n        /* \"#utility.yul\":101:124   */\n      sub\n        /* \"#utility.yul\":97:129   */\n      slt\n        /* \"#utility.yul\":94:146   */\n      iszero\n      tag_129\n      jumpi\n        /* \"#utility.yul\":142:143   */\n      0x00\n        /* \"#utility.yul\":139:140   */\n      dup1\n        /* \"#utility.yul\":132:144   */\n      revert\n        /* \"#utility.yul\":94:146   */\n    tag_129:\n        /* \"#utility.yul\":168:191   */\n      dup2\n      calldataload\n      sub(shl(0xa0, 0x01), 0x01)\n        /* \"#utility.yul\":220:251   */\n      dup2\n      and\n        /* \"#utility.yul\":210:252   */\n      dup2\n      eq\n        /* \"#utility.yul\":200:270   */\n      tag_130\n      jumpi\n        /* \"#utility.yul\":266:267   */\n      0x00\n        /* \"#utility.yul\":263:264   */\n      dup1\n        /* \"#utility.yul\":256:268   */\n      revert\n        /* \"#utility.yul\":200:270   */\n    tag_130:\n        /* \"#utility.yul\":289:294   */\n      swap4\n        /* \"#utility.yul\":14:300   */\n      swap3\n      pop\n      pop\n      pop\n      jump\t// out\n        /* \"#utility.yul\":1579:1763   */\n    tag_58:\n        /* \"#utility.yul\":1649:1655   */\n      0x00\n        /* \"#utility.yul\":1702:1704   */\n      0x20\n        /* \"#utility.yul\":1690:1699   */\n      dup3\n        /* \"#utility.yul\":1681:1688   */\n      dup5\n        /* \"#utility.yul\":1677:1700   */\n      sub\n        /* \"#utility.yul\":1673:1705   */\n      slt\n        /* \"#utility.yul\":1670:1722   */\n      iszero\n      tag_137\n      jumpi\n        /* \"#utility.yul\":1718:1719   */\n      0x00\n        /* \"#utility.yul\":1715:1716   */\n      dup1\n        /* \"#utility.yul\":1708:1720   */\n      revert\n        /* \"#utility.yul\":1670:1722   */\n    tag_137:\n      pop\n        /* \"#utility.yul\":1741:1757   */\n      mload\n      swap2\n        /* \"#utility.yul\":1579:1763   */\n      swap1\n      pop\n      jump\t// out\n        /* \"#utility.yul\":3183:3595   */\n    tag_94:\n        /* \"#utility.yul\":3312:3315   */\n      0x00\n        /* \"#utility.yul\":3350:3356   */\n      dup3\n        /* \"#utility.yul\":3344:3357   */\n      mload\n        /* \"#utility.yul\":3375:3376   */\n      0x00\n        /* \"#utility.yul\":3385:3514   */\n    tag_143:\n        /* \"#utility.yul\":3399:3405   */\n      dup2\n        /* \"#utility.yul\":3396:3397   */\n      dup2\n        /* \"#utility.yul\":3393:3406   */\n      lt\n        /* \"#utility.yul\":3385:3514   */\n      iszero\n      tag_145\n      jumpi\n        /* \"#utility.yul\":3497:3501   */\n      0x20\n        /* \"#utility.yul\":3481:3495   */\n      dup2\n      dup7\n      add\n        /* \"#utility.yul\":3477:3502   */\n      dup2\n      add\n        /* \"#utility.yul\":3471:3503   */\n      mload\n        /* \"#utility.yul\":3458:3469   */\n      dup6\n      dup4\n      add\n        /* \"#utility.yul\":3451:3504   */\n      mstore\n        /* \"#utility.yul\":3414:3426   */\n      add\n        /* \"#utility.yul\":3385:3514   */\n      jump(tag_143)\n    tag_145:\n      pop\n        /* \"#utility.yul\":3569:3570   */\n      0x00\n        /* \"#utility.yul\":3533:3549   */\n      swap3\n      add\n        /* \"#utility.yul\":3558:3571   */\n      swap2\n      dup3\n      mstore\n      pop\n        /* \"#utility.yul\":3533:3549   */\n      swap2\n        /* \"#utility.yul\":3183:3595   */\n      swap1\n      pop\n      jump\t// out\n        /* \"#utility.yul\":3600:3877   */\n    tag_101:\n        /* \"#utility.yul\":3667:3673   */\n      0x00\n        /* \"#utility.yul\":3720:3722   */\n      0x20\n        /* \"#utility.yul\":3708:3717   */\n      dup3\n        /* \"#utility.yul\":3699:3706   */\n      dup5\n        /* \"#utility.yul\":3695:3718   */\n      sub\n        /* \"#utility.yul\":3691:3723   */\n      slt\n        /* \"#utility.yul\":3688:3740   */\n      iszero\n      tag_147\n      jumpi\n        /* \"#utility.yul\":3736:3737   */\n      0x00\n        /* \"#utility.yul\":3733:3734   */\n      dup1\n        /* \"#utility.yul\":3726:3738   */\n      revert\n        /* \"#utility.yul\":3688:3740   */\n    tag_147:\n        /* \"#utility.yul\":3768:3777   */\n      dup2\n        /* \"#utility.yul\":3762:3778   */\n      mload\n        /* \"#utility.yul\":3821:3826   */\n      dup1\n        /* \"#utility.yul\":3814:3827   */\n      iszero\n        /* \"#utility.yul\":3807:3828   */\n      iszero\n        /* \"#utility.yul\":3800:3805   */\n      dup2\n        /* \"#utility.yul\":3797:3829   */\n      eq\n        /* \"#utility.yul\":3787:3847   */\n      tag_130\n      jumpi\n        /* \"#utility.yul\":3843:3844   */\n      0x00\n        /* \"#utility.yul\":3840:3841   */\n      dup1\n        /* \"#utility.yul\":3833:3845   */\n      revert\n\n    auxdata: 0xa2646970667358221220febe3818719777aa9fc5f536cf1b5b61f043e817d4ad1a701508d078a250eeb364736f6c63430008140033\n}\n",
				"bytecode": {
					"linkReferences": {},
					"object": "608060405234801561000f575f80fd5b5060405161091338038061091383398101604081905261002e916100f8565b338061005357604051631e4fbdf760e01b81525f600482015260240160405180910390fd5b61005c8161008e565b50600380546001600160a01b039384166001600160a01b03199182161790915560028054929093169116179055610129565b5f80546001600160a01b038381166001600160a01b0319831681178455604051919092169283917f8be0079c531659141344cd1fd0a4f28419497f9722a3daafe3b4186f6b6457e09190a35050565b80516001600160a01b03811681146100f3575f80fd5b919050565b5f8060408385031215610109575f80fd5b610112836100dd565b9150610120602084016100dd565b90509250929050565b6107dd806101365f395ff3fe608060405234801561000f575f80fd5b506004361061009b575f3560e01c8063715018a611610063578063715018a6146101265780638da5cb5b1461012e578063d0ebdbe71461013e578063f2fde38b14610151578063f4add3b514610164575f80fd5b80632def66201461009f57806333105218146100a95780633a4b66f1146100e0578063481c6a75146100e85780635996db9114610113575b5f80fd5b6100a7610177565b005b6100cb6100b7366004610718565b60016020525f908152604090205460ff1681565b60405190151581526020015b60405180910390f35b6100a761020e565b6002546100fb906001600160a01b031681565b6040516001600160a01b0390911681526020016100d7565b6003546100fb906001600160a01b031681565b6100a7610360565b5f546001600160a01b03166100fb565b6100a761014c366004610718565b610373565b6100a761015f366004610718565b61039d565b6100a7610172366004610718565b6103d7565b335f9081526001602081905260409091205460ff161515146101d15760405162461bcd60e51b815260206004820152600e60248201526d2727aa1020902b22a924a324a2a960911b60448201526064015b60405180910390fd5b335f818152600160205260409020805460ff19169055600354683635c9adc5dea000009161020b916001600160a01b03169030908461049d565b50565b600354604051636eb1769f60e11b8152336004820152306024820152683635c9adc5dea00000916001600160a01b03169063dd62ed3e90604401602060405180830381865afa158015610263573d5f803e3d5ffd5b505050506040513d601f19601f820116820180604052508101906102879190610745565b10156102cb5760405162461bcd60e51b81526020600482015260136024820152721513d2d15394c81393d5081054141493d59151606a1b60448201526064016101c8565b335f9081526001602052604090205460ff161561031f5760405162461bcd60e51b815260206004820152601260248201527120a62922a0a22c9020902b22a924a324a2a960711b60448201526064016101c8565b600354683635c9adc5dea0000090610341906001600160a01b031633836105a2565b50335f908152600160208190526040909120805460ff19169091179055565b61036861069d565b6103715f6106c9565b565b61037b61069d565b600280546001600160a01b0319166001600160a01b0392909216919091179055565b6103a561069d565b6001600160a01b0381166103ce57604051631e4fbdf760e01b81525f60048201526024016101c8565b61020b816106c9565b6002546001600160a01b0316331461041f5760405162461bcd60e51b815260206004820152600b60248201526a2727aa1026a0a720a3a2a960a91b60448201526064016101c8565b6001600160a01b0381165f9081526001602081905260409091205460ff1615151461047d5760405162461bcd60e51b815260206004820152600e60248201526d2727aa1020902b22a924a324a2a960911b60448201526064016101c8565b6001600160a01b03165f908152600160205260409020805460ff19169055565b604080516001600160a01b0385811660248301528481166044830152606480830185905283518084039091018152608490920183526020820180516001600160e01b03166323b872dd60e01b17905291515f92839290881691610500919061075c565b5f604051808303815f865af19150503d805f8114610539576040519150601f19603f3d011682016040523d82523d5f602084013e61053e565b606091505b50915091508180156105685750805115806105685750808060200190518101906105689190610788565b61059a5760405162461bcd60e51b815260206004820152600360248201526229aa2360e91b60448201526064016101c8565b505050505050565b604080516001600160a01b038481166024830152604480830185905283518084039091018152606490920183526020820180516001600160e01b031663a9059cbb60e01b17905291515f928392908716916105fd919061075c565b5f604051808303815f865af19150503d805f8114610636576040519150601f19603f3d011682016040523d82523d5f602084013e61063b565b606091505b50915091508180156106655750805115806106655750808060200190518101906106659190610788565b6106965760405162461bcd60e51b815260206004820152600260248201526114d560f21b60448201526064016101c8565b5050505050565b5f546001600160a01b031633146103715760405163118cdaa760e01b81523360048201526024016101c8565b5f80546001600160a01b038381166001600160a01b0319831681178455604051919092169283917f8be0079c531659141344cd1fd0a4f28419497f9722a3daafe3b4186f6b6457e09190a35050565b5f60208284031215610728575f80fd5b81356001600160a01b038116811461073e575f80fd5b9392505050565b5f60208284031215610755575f80fd5b5051919050565b5f82515f5b8181101561077b5760208186018101518583015201610761565b505f920191825250919050565b5f60208284031215610798575f80fd5b8151801515811461073e575f80fdfea2646970667358221220febe3818719777aa9fc5f536cf1b5b61f043e817d4ad1a701508d078a250eeb364736f6c63430008140033",
					"opcodes": "PUSH1 0x80 PUSH1 0x40 MSTORE CALLVALUE DUP1 ISZERO PUSH2 0xF JUMPI PUSH0 DUP1 REVERT JUMPDEST POP PUSH1 0x40 MLOAD PUSH2 0x913 CODESIZE SUB DUP1 PUSH2 0x913 DUP4 CODECOPY DUP2 ADD PUSH1 0x40 DUP2 SWAP1 MSTORE PUSH2 0x2E SWAP2 PUSH2 0xF8 JUMP JUMPDEST CALLER DUP1 PUSH2 0x53 JUMPI PUSH1 0x40 MLOAD PUSH4 0x1E4FBDF7 PUSH1 0xE0 SHL DUP2 MSTORE PUSH0 PUSH1 0x4 DUP3 ADD MSTORE PUSH1 0x24 ADD PUSH1 0x40 MLOAD DUP1 SWAP2 SUB SWAP1 REVERT JUMPDEST PUSH2 0x5C DUP2 PUSH2 0x8E JUMP JUMPDEST POP PUSH1 0x3 DUP1 SLOAD PUSH1 0x1 PUSH1 0x1 PUSH1 0xA0 SHL SUB SWAP4 DUP5 AND PUSH1 0x1 PUSH1 0x1 PUSH1 0xA0 SHL SUB NOT SWAP2 DUP3 AND OR SWAP1 SWAP2 SSTORE PUSH1 0x2 DUP1 SLOAD SWAP3 SWAP1 SWAP4 AND SWAP2 AND OR SWAP1 SSTORE PUSH2 0x129 JUMP JUMPDEST PUSH0 DUP1 SLOAD PUSH1 0x1 PUSH1 0x1 PUSH1 0xA0 SHL SUB DUP4 DUP2 AND PUSH1 0x1 PUSH1 0x1 PUSH1 0xA0 SHL SUB NOT DUP4 AND DUP2 OR DUP5 SSTORE PUSH1 0x40 MLOAD SWAP2 SWAP1 SWAP3 AND SWAP3 DUP4 SWAP2 PUSH32 0x8BE0079C531659141344CD1FD0A4F28419497F9722A3DAAFE3B4186F6B6457E0 SWAP2 SWAP1 LOG3 POP POP JUMP JUMPDEST DUP1 MLOAD PUSH1 0x1 PUSH1 0x1 PUSH1 0xA0 SHL SUB DUP2 AND DUP2 EQ PUSH2 0xF3 JUMPI PUSH0 DUP1 REVERT JUMPDEST SWAP2 SWAP1 POP JUMP JUMPDEST PUSH0 DUP1 PUSH1 0x40 DUP4 DUP6 SUB SLT ISZERO PUSH2 0x109 JUMPI PUSH0 DUP1 REVERT JUMPDEST PUSH2 0x112 DUP4 PUSH2 0xDD JUMP JUMPDEST SWAP2 POP PUSH2 0x120 PUSH1 0x20 DUP5 ADD PUSH2 0xDD JUMP JUMPDEST SWAP1 POP SWAP3 POP SWAP3 SWAP1 POP JUMP JUMPDEST PUSH2 0x7DD DUP1 PUSH2 0x136 PUSH0 CODECOPY PUSH0 RETURN INVALID PUSH1 0x80 PUSH1 0x40 MSTORE CALLVALUE DUP1 ISZERO PUSH2 0xF JUMPI PUSH0 DUP1 REVERT JUMPDEST POP PUSH1 0x4 CALLDATASIZE LT PUSH2 0x9B JUMPI PUSH0 CALLDATALOAD PUSH1 0xE0 SHR DUP1 PUSH4 0x715018A6 GT PUSH2 0x63 JUMPI DUP1 PUSH4 0x715018A6 EQ PUSH2 0x126 JUMPI DUP1 PUSH4 0x8DA5CB5B EQ PUSH2 0x12E JUMPI DUP1 PUSH4 0xD0EBDBE7 EQ PUSH2 0x13E JUMPI DUP1 PUSH4 0xF2FDE38B EQ PUSH2 0x151 JUMPI DUP1 PUSH4 0xF4ADD3B5 EQ PUSH2 0x164 JUMPI PUSH0 DUP1 REVERT JUMPDEST DUP1 PUSH4 0x2DEF6620 EQ PUSH2 0x9F JUMPI DUP1 PUSH4 0x33105218 EQ PUSH2 0xA9 JUMPI DUP1 PUSH4 0x3A4B66F1 EQ PUSH2 0xE0 JUMPI DUP1 PUSH4 0x481C6A75 EQ PUSH2 0xE8 JUMPI DUP1 PUSH4 0x5996DB91 EQ PUSH2 0x113 JUMPI JUMPDEST PUSH0 DUP1 REVERT JUMPDEST PUSH2 0xA7 PUSH2 0x177 JUMP JUMPDEST STOP JUMPDEST PUSH2 0xCB PUSH2 0xB7 CALLDATASIZE PUSH1 0x4 PUSH2 0x718 JUMP JUMPDEST PUSH1 0x1 PUSH1 0x20 MSTORE PUSH0 SWAP1 DUP2 MSTORE PUSH1 0x40 SWAP1 KECCAK256 SLOAD PUSH1 0xFF AND DUP2 JUMP JUMPDEST PUSH1 0x40 MLOAD SWAP1 ISZERO ISZERO DUP2 MSTORE PUSH1 0x20 ADD JUMPDEST PUSH1 0x40 MLOAD DUP1 SWAP2 SUB SWAP1 RETURN JUMPDEST PUSH2 0xA7 PUSH2 0x20E JUMP JUMPDEST PUSH1 0x2 SLOAD PUSH2 0xFB SWAP1 PUSH1 0x1 PUSH1 0x1 PUSH1 0xA0 SHL SUB AND DUP2 JUMP JUMPDEST PUSH1 0x40 MLOAD PUSH1 0x1 PUSH1 0x1 PUSH1 0xA0 SHL SUB SWAP1 SWAP2 AND DUP2 MSTORE PUSH1 0x20 ADD PUSH2 0xD7 JUMP JUMPDEST PUSH1 0x3 SLOAD PUSH2 0xFB SWAP1 PUSH1 0x1 PUSH1 0x1 PUSH1 0xA0 SHL SUB AND DUP2 JUMP JUMPDEST PUSH2 0xA7 PUSH2 0x360 JUMP JUMPDEST PUSH0 SLOAD PUSH1 0x1 PUSH1 0x1 PUSH1 0xA0 SHL SUB AND PUSH2 0xFB JUMP JUMPDEST PUSH2 0xA7 PUSH2 0x14C CALLDATASIZE PUSH1 0x4 PUSH2 0x718 JUMP JUMPDEST PUSH2 0x373 JUMP JUMPDEST PUSH2 0xA7 PUSH2 0x15F CALLDATASIZE PUSH1 0x4 PUSH2 0x718 JUMP JUMPDEST PUSH2 0x39D JUMP JUMPDEST PUSH2 0xA7 PUSH2 0x172 CALLDATASIZE PUSH1 0x4 PUSH2 0x718 JUMP JUMPDEST PUSH2 0x3D7 JUMP JUMPDEST CALLER PUSH0 SWAP1 DUP2 MSTORE PUSH1 0x1 PUSH1 0x20 DUP2 SWAP1 MSTORE PUSH1 0x40 SWAP1 SWAP2 KECCAK256 SLOAD PUSH1 0xFF AND ISZERO ISZERO EQ PUSH2 0x1D1 JUMPI PUSH1 0x40 MLOAD PUSH3 0x461BCD PUSH1 0xE5 SHL DUP2 MSTORE PUSH1 0x20 PUSH1 0x4 DUP3 ADD MSTORE PUSH1 0xE PUSH1 0x24 DUP3 ADD MSTORE PUSH14 0x2727AA1020902B22A924A324A2A9 PUSH1 0x91 SHL PUSH1 0x44 DUP3 ADD MSTORE PUSH1 0x64 ADD JUMPDEST PUSH1 0x40 MLOAD DUP1 SWAP2 SUB SWAP1 REVERT JUMPDEST CALLER PUSH0 DUP2 DUP2 MSTORE PUSH1 0x1 PUSH1 0x20 MSTORE PUSH1 0x40 SWAP1 KECCAK256 DUP1 SLOAD PUSH1 0xFF NOT AND SWAP1 SSTORE PUSH1 0x3 SLOAD PUSH9 0x3635C9ADC5DEA00000 SWAP2 PUSH2 0x20B SWAP2 PUSH1 0x1 PUSH1 0x1 PUSH1 0xA0 SHL SUB AND SWAP1 ADDRESS SWAP1 DUP5 PUSH2 0x49D JUMP JUMPDEST POP JUMP JUMPDEST PUSH1 0x3 SLOAD PUSH1 0x40 MLOAD PUSH4 0x6EB1769F PUSH1 0xE1 SHL DUP2 MSTORE CALLER PUSH1 0x4 DUP3 ADD MSTORE ADDRESS PUSH1 0x24 DUP3 ADD MSTORE PUSH9 0x3635C9ADC5DEA00000 SWAP2 PUSH1 0x1 PUSH1 0x1 PUSH1 0xA0 SHL SUB AND SWAP1 PUSH4 0xDD62ED3E SWAP1 PUSH1 0x44 ADD PUSH1 0x20 PUSH1 0x40 MLOAD DUP1 DUP4 SUB DUP2 DUP7 GAS STATICCALL ISZERO DUP1 ISZERO PUSH2 0x263 JUMPI RETURNDATASIZE PUSH0 DUP1 RETURNDATACOPY RETURNDATASIZE PUSH0 REVERT JUMPDEST POP POP POP POP PUSH1 0x40 MLOAD RETURNDATASIZE PUSH1 0x1F NOT PUSH1 0x1F DUP3 ADD AND DUP3 ADD DUP1 PUSH1 0x40 MSTORE POP DUP2 ADD SWAP1 PUSH2 0x287 SWAP2 SWAP1 PUSH2 0x745 JUMP JUMPDEST LT ISZERO PUSH2 0x2CB JUMPI PUSH1 0x40 MLOAD PUSH3 0x461BCD PUSH1 0xE5 SHL DUP2 MSTORE PUSH1 0x20 PUSH1 0x4 DUP3 ADD MSTORE PUSH1 0x13 PUSH1 0x24 DUP3 ADD MSTORE PUSH19 0x1513D2D15394C81393D5081054141493D59151 PUSH1 0x6A SHL PUSH1 0x44 DUP3 ADD MSTORE PUSH1 0x64 ADD PUSH2 0x1C8 JUMP JUMPDEST CALLER PUSH0 SWAP1 DUP2 MSTORE PUSH1 0x1 PUSH1 0x20 MSTORE PUSH1 0x40 SWAP1 KECCAK256 SLOAD PUSH1 0xFF AND ISZERO PUSH2 0x31F JUMPI PUSH1 0x40 MLOAD PUSH3 0x461BCD PUSH1 0xE5 SHL DUP2 MSTORE PUSH1 0x20 PUSH1 0x4 DUP3 ADD MSTORE PUSH1 0x12 PUSH1 0x24 DUP3 ADD MSTORE PUSH18 0x20A62922A0A22C9020902B22A924A324A2A9 PUSH1 0x71 SHL PUSH1 0x44 DUP3 ADD MSTORE PUSH1 0x64 ADD PUSH2 0x1C8 JUMP JUMPDEST PUSH1 0x3 SLOAD PUSH9 0x3635C9ADC5DEA00000 SWAP1 PUSH2 0x341 SWAP1 PUSH1 0x1 PUSH1 0x1 PUSH1 0xA0 SHL SUB AND CALLER DUP4 PUSH2 0x5A2 JUMP JUMPDEST POP CALLER PUSH0 SWAP1 DUP2 MSTORE PUSH1 0x1 PUSH1 0x20 DUP2 SWAP1 MSTORE PUSH1 0x40 SWAP1 SWAP2 KECCAK256 DUP1 SLOAD PUSH1 0xFF NOT AND SWAP1 SWAP2 OR SWAP1 SSTORE JUMP JUMPDEST PUSH2 0x368 PUSH2 0x69D JUMP JUMPDEST PUSH2 0x371 PUSH0 PUSH2 0x6C9 JUMP JUMPDEST JUMP JUMPDEST PUSH2 0x37B PUSH2 0x69D JUMP JUMPDEST PUSH1 0x2 DUP1 SLOAD PUSH1 0x1 PUSH1 0x1 PUSH1 0xA0 SHL SUB NOT AND PUSH1 0x1 PUSH1 0x1 PUSH1 0xA0 SHL SUB SWAP3 SWAP1 SWAP3 AND SWAP2 SWAP1 SWAP2 OR SWAP1 SSTORE JUMP JUMPDEST PUSH2 0x3A5 PUSH2 0x69D JUMP JUMPDEST PUSH1 0x1 PUSH1 0x1 PUSH1 0xA0 SHL SUB DUP2 AND PUSH2 0x3CE JUMPI PUSH1 0x40 MLOAD PUSH4 0x1E4FBDF7 PUSH1 0xE0 SHL DUP2 MSTORE PUSH0 PUSH1 0x4 DUP3 ADD MSTORE PUSH1 0x24 ADD PUSH2 0x1C8 JUMP JUMPDEST PUSH2 0x20B DUP2 PUSH2 0x6C9 JUMP JUMPDEST PUSH1 0x2 SLOAD PUSH1 0x1 PUSH1 0x1 PUSH1 0xA0 SHL SUB AND CALLER EQ PUSH2 0x41F JUMPI PUSH1 0x40 MLOAD PUSH3 0x461BCD PUSH1 0xE5 SHL DUP2 MSTORE PUSH1 0x20 PUSH1 0x4 DUP3 ADD MSTORE PUSH1 0xB PUSH1 0x24 DUP3 ADD MSTORE PUSH11 0x2727AA1026A0A720A3A2A9 PUSH1 0xA9 SHL PUSH1 0x44 DUP3 ADD MSTORE PUSH1 0x64 ADD PUSH2 0x1C8 JUMP JUMPDEST PUSH1 0x1 PUSH1 0x1 PUSH1 0xA0 SHL SUB DUP2 AND PUSH0 SWAP1 DUP2 MSTORE PUSH1 0x1 PUSH1 0x20 DUP2 SWAP1 MSTORE PUSH1 0x40 SWAP1 SWAP2 KECCAK256 SLOAD PUSH1 0xFF AND ISZERO ISZERO EQ PUSH2 0x47D JUMPI PUSH1 0x40 MLOAD PUSH3 0x461BCD PUSH1 0xE5 SHL DUP2 MSTORE PUSH1 0x20 PUSH1 0x4 DUP3 ADD MSTORE PUSH1 0xE PUSH1 0x24 DUP3 ADD MSTORE PUSH14 0x2727AA1020902B22A924A324A2A9 PUSH1 0x91 SHL PUSH1 0x44 DUP3 ADD MSTORE PUSH1 0x64 ADD PUSH2 0x1C8 JUMP JUMPDEST PUSH1 0x1 PUSH1 0x1 PUSH1 0xA0 SHL SUB AND PUSH0 SWAP1 DUP2 MSTORE PUSH1 0x1 PUSH1 0x20 MSTORE PUSH1 0x40 SWAP1 KECCAK256 DUP1 SLOAD PUSH1 0xFF NOT AND SWAP1 SSTORE JUMP JUMPDEST PUSH1 0x40 DUP1 MLOAD PUSH1 0x1 PUSH1 0x1 PUSH1 0xA0 SHL SUB DUP6 DUP2 AND PUSH1 0x24 DUP4 ADD MSTORE DUP5 DUP2 AND PUSH1 0x44 DUP4 ADD MSTORE PUSH1 0x64 DUP1 DUP4 ADD DUP6 SWAP1 MSTORE DUP4 MLOAD DUP1 DUP5 SUB SWAP1 SWAP2 ADD DUP2 MSTORE PUSH1 0x84 SWAP1 SWAP3 ADD DUP4 MSTORE PUSH1 0x20 DUP3 ADD DUP1 MLOAD PUSH1 0x1 PUSH1 0x1 PUSH1 0xE0 SHL SUB AND PUSH4 0x23B872DD PUSH1 0xE0 SHL OR SWAP1 MSTORE SWAP2 MLOAD PUSH0 SWAP3 DUP4 SWAP3 SWAP1 DUP9 AND SWAP2 PUSH2 0x500 SWAP2 SWAP1 PUSH2 0x75C JUMP JUMPDEST PUSH0 PUSH1 0x40 MLOAD DUP1 DUP4 SUB DUP2 PUSH0 DUP7 GAS CALL SWAP2 POP POP RETURNDATASIZE DUP1 PUSH0 DUP2 EQ PUSH2 0x539 JUMPI PUSH1 0x40 MLOAD SWAP2 POP PUSH1 0x1F NOT PUSH1 0x3F RETURNDATASIZE ADD AND DUP3 ADD PUSH1 0x40 MSTORE RETURNDATASIZE DUP3 MSTORE RETURNDATASIZE PUSH0 PUSH1 0x20 DUP5 ADD RETURNDATACOPY PUSH2 0x53E JUMP JUMPDEST PUSH1 0x60 SWAP2 POP JUMPDEST POP SWAP2 POP SWAP2 POP DUP2 DUP1 ISZERO PUSH2 0x568 JUMPI POP DUP1 MLOAD ISZERO DUP1 PUSH2 0x568 JUMPI POP DUP1 DUP1 PUSH1 0x20 ADD SWAP1 MLOAD DUP2 ADD SWAP1 PUSH2 0x568 SWAP2 SWAP1 PUSH2 0x788 JUMP JUMPDEST PUSH2 0x59A JUMPI PUSH1 0x40 MLOAD PUSH3 0x461BCD PUSH1 0xE5 SHL DUP2 MSTORE PUSH1 0x20 PUSH1 0x4 DUP3 ADD MSTORE PUSH1 0x3 PUSH1 0x24 DUP3 ADD MSTORE PUSH3 0x29AA23 PUSH1 0xE9 SHL PUSH1 0x44 DUP3 ADD MSTORE PUSH1 0x64 ADD PUSH2 0x1C8 JUMP JUMPDEST POP POP POP POP POP POP JUMP JUMPDEST PUSH1 0x40 DUP1 MLOAD PUSH1 0x1 PUSH1 0x1 PUSH1 0xA0 SHL SUB DUP5 DUP2 AND PUSH1 0x24 DUP4 ADD MSTORE PUSH1 0x44 DUP1 DUP4 ADD DUP6 SWAP1 MSTORE DUP4 MLOAD DUP1 DUP5 SUB SWAP1 SWAP2 ADD DUP2 MSTORE PUSH1 0x64 SWAP1 SWAP3 ADD DUP4 MSTORE PUSH1 0x20 DUP3 ADD DUP1 MLOAD PUSH1 0x1 PUSH1 0x1 PUSH1 0xE0 SHL SUB AND PUSH4 0xA9059CBB PUSH1 0xE0 SHL OR SWAP1 MSTORE SWAP2 MLOAD PUSH0 SWAP3 DUP4 SWAP3 SWAP1 DUP8 AND SWAP2 PUSH2 0x5FD SWAP2 SWAP1 PUSH2 0x75C JUMP JUMPDEST PUSH0 PUSH1 0x40 MLOAD DUP1 DUP4 SUB DUP2 PUSH0 DUP7 GAS CALL SWAP2 POP POP RETURNDATASIZE DUP1 PUSH0 DUP2 EQ PUSH2 0x636 JUMPI PUSH1 0x40 MLOAD SWAP2 POP PUSH1 0x1F NOT PUSH1 0x3F RETURNDATASIZE ADD AND DUP3 ADD PUSH1 0x40 MSTORE RETURNDATASIZE DUP3 MSTORE RETURNDATASIZE PUSH0 PUSH1 0x20 DUP5 ADD RETURNDATACOPY PUSH2 0x63B JUMP JUMPDEST PUSH1 0x60 SWAP2 POP JUMPDEST POP SWAP2 POP SWAP2 POP DUP2 DUP1 ISZERO PUSH2 0x665 JUMPI POP DUP1 MLOAD ISZERO DUP1 PUSH2 0x665 JUMPI POP DUP1 DUP1 PUSH1 0x20 ADD SWAP1 MLOAD DUP2 ADD SWAP1 PUSH2 0x665 SWAP2 SWAP1 PUSH2 0x788 JUMP JUMPDEST PUSH2 0x696 JUMPI PUSH1 0x40 MLOAD PUSH3 0x461BCD PUSH1 0xE5 SHL DUP2 MSTORE PUSH1 0x20 PUSH1 0x4 DUP3 ADD MSTORE PUSH1 0x2 PUSH1 0x24 DUP3 ADD MSTORE PUSH2 0x14D5 PUSH1 0xF2 SHL PUSH1 0x44 DUP3 ADD MSTORE PUSH1 0x64 ADD PUSH2 0x1C8 JUMP JUMPDEST POP POP POP POP POP JUMP JUMPDEST PUSH0 SLOAD PUSH1 0x1 PUSH1 0x1 PUSH1 0xA0 SHL SUB AND CALLER EQ PUSH2 0x371 JUMPI PUSH1 0x40 MLOAD PUSH4 0x118CDAA7 PUSH1 0xE0 SHL DUP2 MSTORE CALLER PUSH1 0x4 DUP3 ADD MSTORE PUSH1 0x24 ADD PUSH2 0x1C8 JUMP JUMPDEST PUSH0 DUP1 SLOAD PUSH1 0x1 PUSH1 0x1 PUSH1 0xA0 SHL SUB DUP4 DUP2 AND PUSH1 0x1 PUSH1 0x1 PUSH1 0xA0 SHL SUB NOT DUP4 AND DUP2 OR DUP5 SSTORE PUSH1 0x40 MLOAD SWAP2 SWAP1 SWAP3 AND SWAP3 DUP4 SWAP2 PUSH32 0x8BE0079C531659141344CD1FD0A4F28419497F9722A3DAAFE3B4186F6B6457E0 SWAP2 SWAP1 LOG3 POP POP JUMP JUMPDEST PUSH0 PUSH1 0x20 DUP3 DUP5 SUB SLT ISZERO PUSH2 0x728 JUMPI PUSH0 DUP1 REVERT JUMPDEST DUP2 CALLDATALOAD PUSH1 0x1 PUSH1 0x1 PUSH1 0xA0 SHL SUB DUP2 AND DUP2 EQ PUSH2 0x73E JUMPI PUSH0 DUP1 REVERT JUMPDEST SWAP4 SWAP3 POP POP POP JUMP JUMPDEST PUSH0 PUSH1 0x20 DUP3 DUP5 SUB SLT ISZERO PUSH2 0x755 JUMPI PUSH0 DUP1 REVERT JUMPDEST POP MLOAD SWAP2 SWAP1 POP JUMP JUMPDEST PUSH0 DUP3 MLOAD PUSH0 JUMPDEST DUP2 DUP2 LT ISZERO PUSH2 0x77B JUMPI PUSH1 0x20 DUP2 DUP7 ADD DUP2 ADD MLOAD DUP6 DUP4 ADD MSTORE ADD PUSH2 0x761 JUMP JUMPDEST POP PUSH0 SWAP3 ADD SWAP2 DUP3 MSTORE POP SWAP2 SWAP1 POP JUMP JUMPDEST PUSH0 PUSH1 0x20 DUP3 DUP5 SUB SLT ISZERO PUSH2 0x798 JUMPI PUSH0 DUP1 REVERT JUMPDEST DUP2 MLOAD DUP1 ISZERO ISZERO DUP2 EQ PUSH2 0x73E JUMPI PUSH0 DUP1 REVERT INVALID LOG2 PUSH5 0x6970667358 0x22 SLT KECCAK256 INVALID 0xBE CODESIZE XOR PUSH18 0x9777AA9FC5F536CF1B5B61F043E817D4AD1A PUSH17 0x1508D078A250EEB364736F6C6343000814 STOP CALLER "
				},
				"gasEstimates": {
					"creation": {
						"codeDepositCost": "402600",
						"executionCost": "infinite",
						"totalCost": "infinite"
					},
					"external": {
						"blockStake(address)": "29021",
						"ghoToken()": "2425",
						"isVerifier(address)": "2505",
						"manager()": "2403",
						"owner()": "2351",
						"renounceOwnership()": "infinite",
						"setManager(address)": "26741",
						"stake()": "infinite",
						"transferOwnership(address)": "28360",
						"unstake()": "infinite"
					}
				},
				"methodIdentifiers": {
					"blockStake(address)": "f4add3b5",
					"ghoToken()": "5996db91",
					"isVerifier(address)": "33105218",
					"manager()": "481c6a75",
					"owner()": "8da5cb5b",
					"renounceOwnership()": "715018a6",
					"setManager(address)": "d0ebdbe7",
					"stake()": "3a4b66f1",
					"transferOwnership(address)": "f2fde38b",
					"unstake()": "2def6620"
				}
			},
			"storageLayout": {
				"storage": [
					{
						"astId": 8,
						"contract": "Staking.sol:VerifierStaking",
						"label": "_owner",
						"offset": 0,
						"slot": "0",
						"type": "t_address"
					},
					{
						"astId": 437,
						"contract": "Staking.sol:VerifierStaking",
						"label": "isVerifier",
						"offset": 0,
						"slot": "1",
						"type": "t_mapping(t_address,t_bool)"
					},
					{
						"astId": 439,
						"contract": "Staking.sol:VerifierStaking",
						"label": "manager",
						"offset": 0,
						"slot": "2",
						"type": "t_address"
					},
					{
						"astId": 442,
						"contract": "Staking.sol:VerifierStaking",
						"label": "ghoToken",
						"offset": 0,
						"slot": "3",
						"type": "t_contract(IERC20)225"
					}
				],
				"types": {
					"t_address": {
						"encoding": "inplace",
						"label": "address",
						"numberOfBytes": "20"
					},
					"t_bool": {
						"encoding": "inplace",
						"label": "bool",
						"numberOfBytes": "1"
					},
					"t_contract(IERC20)225": {
						"encoding": "inplace",
						"label": "contract IERC20",
						"numberOfBytes": "20"
					},
					"t_mapping(t_address,t_bool)": {
						"encoding": "mapping",
						"key": "t_address",
						"label": "mapping(address => bool)",
						"numberOfBytes": "32",
						"value": "t_bool"
					}
				}
			},
			"userdoc": {
				"kind": "user",
				"methods": {},
				"version": 1
			}
		}
	}
}